{
	"treasury.sol": {
		"Treasury": {
			"abi": [
				{
					"stateMutability": "payable",
					"type": "fallback"
				},
				{
					"inputs": [
						{
							"internalType": "uint256",
							"name": "_amount",
							"type": "uint256"
						},
						{
							"internalType": "string",
							"name": "_p",
							"type": "string"
						}
					],
					"name": "AppealforFund",
					"outputs": [
						{
							"internalType": "bool",
							"name": "",
							"type": "bool"
						}
					],
					"stateMutability": "nonpayable",
					"type": "function"
				},
				{
					"inputs": [
						{
							"internalType": "address",
							"name": "applier",
							"type": "address"
						}
					],
					"name": "getstatus",
					"outputs": [],
					"stateMutability": "view",
					"type": "function"
				},
				{
					"inputs": [
						{
							"internalType": "string",
							"name": "_purpose",
							"type": "string"
						}
					],
					"name": "string_tobytes",
					"outputs": [
						{
							"internalType": "bytes",
							"name": "",
							"type": "bytes"
						}
					],
					"stateMutability": "pure",
					"type": "function"
				},
				{
					"stateMutability": "payable",
					"type": "receive"
				}
			],
			"devdoc": {
				"kind": "dev",
				"methods": {},
				"version": 1
			},
			"evm": {
				"assembly": "    /* \"treasury.sol\":93:1676  contract Treasury is Itreasury {... */\n  mstore(0x40, 0x80)\n    /* \"treasury.sol\":898:899  0 */\n  0x00\n    /* \"treasury.sol\":875:899  uint number_of_Appeals=0 */\n  dup1\n  sstore\n    /* \"treasury.sol\":93:1676  contract Treasury is Itreasury {... */\n  callvalue\n  dup1\n  iszero\n  tag_1\n  jumpi\n  0x00\n  dup1\n  revert\ntag_1:\n  pop\n  dataSize(sub_0)\n  dup1\n  dataOffset(sub_0)\n  0x00\n  codecopy\n  0x00\n  return\nstop\n\nsub_0: assembly {\n        /* \"treasury.sol\":93:1676  contract Treasury is Itreasury {... */\n      mstore(0x40, 0x80)\n      jumpi(tag_1, lt(calldatasize, 0x04))\n      shr(0xe0, calldataload(0x00))\n      dup1\n      0x3a3d0788\n      eq\n      tag_3\n      jumpi\n      dup1\n      0x88cdf176\n      eq\n      tag_4\n      jumpi\n      dup1\n      0xbc6d0577\n      eq\n      tag_5\n      jumpi\n      jump(tag_2)\n    tag_1:\n      jumpi(tag_2, calldatasize)\n      stop\n    tag_2:\n      stop\n        /* \"treasury.sol\":1603:1673  function getstatus(address applier) external view override{... */\n    tag_3:\n      callvalue\n      dup1\n      iszero\n      tag_10\n      jumpi\n      0x00\n      dup1\n      revert\n    tag_10:\n      pop\n      tag_11\n      0x04\n      dup1\n      calldatasize\n      sub\n      dup2\n      add\n      swap1\n      tag_12\n      swap2\n      swap1\n      tag_13\n      jump\t// in\n    tag_12:\n      tag_14\n      jump\t// in\n    tag_11:\n      stop\n        /* \"treasury.sol\":1041:1125  function AppealforFund(uint _amount,string memory _p) external returns(bool){... */\n    tag_4:\n      callvalue\n      dup1\n      iszero\n      tag_15\n      jumpi\n      0x00\n      dup1\n      revert\n    tag_15:\n      pop\n      tag_16\n      0x04\n      dup1\n      calldatasize\n      sub\n      dup2\n      add\n      swap1\n      tag_17\n      swap2\n      swap1\n      tag_18\n      jump\t// in\n    tag_17:\n      tag_19\n      jump\t// in\n    tag_16:\n      mload(0x40)\n      tag_20\n      swap2\n      swap1\n      tag_21\n      jump\t// in\n    tag_20:\n      mload(0x40)\n      dup1\n      swap2\n      sub\n      swap1\n      return\n        /* \"treasury.sol\":1189:1354  function string_tobytes( string memory _purpose) public pure returns (bytes memory){... */\n    tag_5:\n      callvalue\n      dup1\n      iszero\n      tag_22\n      jumpi\n      0x00\n      dup1\n      revert\n    tag_22:\n      pop\n      tag_23\n      0x04\n      dup1\n      calldatasize\n      sub\n      dup2\n      add\n      swap1\n      tag_24\n      swap2\n      swap1\n      tag_25\n      jump\t// in\n    tag_24:\n      tag_26\n      jump\t// in\n    tag_23:\n      mload(0x40)\n      tag_27\n      swap2\n      swap1\n      tag_28\n      jump\t// in\n    tag_27:\n      mload(0x40)\n      dup1\n      swap2\n      sub\n      swap1\n      return\n        /* \"treasury.sol\":1603:1673  function getstatus(address applier) external view override{... */\n    tag_14:\n      pop\n      jump\t// out\n        /* \"treasury.sol\":1041:1125  function AppealforFund(uint _amount,string memory _p) external returns(bool){... */\n    tag_19:\n        /* \"treasury.sol\":1112:1116  bool */\n      0x00\n        /* \"treasury.sol\":1041:1125  function AppealforFund(uint _amount,string memory _p) external returns(bool){... */\n      swap3\n      swap2\n      pop\n      pop\n      jump\t// out\n        /* \"treasury.sol\":1189:1354  function string_tobytes( string memory _purpose) public pure returns (bytes memory){... */\n    tag_26:\n        /* \"treasury.sol\":1259:1271  bytes memory */\n      0x60\n        /* \"treasury.sol\":1282:1301  bytes memory result */\n      0x00\n        /* \"treasury.sol\":1310:1318  _purpose */\n      dup3\n        /* \"treasury.sol\":1282:1319  bytes memory result = bytes(_purpose) */\n      swap1\n      pop\n        /* \"treasury.sol\":1336:1342  result */\n      dup1\n        /* \"treasury.sol\":1329:1342  return result */\n      swap2\n      pop\n      pop\n        /* \"treasury.sol\":1189:1354  function string_tobytes( string memory _purpose) public pure returns (bytes memory){... */\n      swap2\n      swap1\n      pop\n      jump\t// out\n        /* \"#utility.yul\":7:351   */\n    tag_33:\n      0x00\n        /* \"#utility.yul\":110:175   */\n      tag_35\n        /* \"#utility.yul\":125:174   */\n      tag_36\n        /* \"#utility.yul\":167:173   */\n      dup5\n        /* \"#utility.yul\":125:174   */\n      tag_37\n      jump\t// in\n    tag_36:\n        /* \"#utility.yul\":110:175   */\n      tag_38\n      jump\t// in\n    tag_35:\n        /* \"#utility.yul\":101:175   */\n      swap1\n      pop\n        /* \"#utility.yul\":198:204   */\n      dup3\n        /* \"#utility.yul\":191:196   */\n      dup2\n        /* \"#utility.yul\":184:205   */\n      mstore\n        /* \"#utility.yul\":236:240   */\n      0x20\n        /* \"#utility.yul\":229:234   */\n      dup2\n        /* \"#utility.yul\":225:241   */\n      add\n        /* \"#utility.yul\":274:277   */\n      dup5\n        /* \"#utility.yul\":265:271   */\n      dup5\n        /* \"#utility.yul\":260:263   */\n      dup5\n        /* \"#utility.yul\":256:272   */\n      add\n        /* \"#utility.yul\":253:278   */\n      gt\n        /* \"#utility.yul\":250:252   */\n      iszero\n      tag_39\n      jumpi\n        /* \"#utility.yul\":291:292   */\n      0x00\n        /* \"#utility.yul\":288:289   */\n      dup1\n        /* \"#utility.yul\":281:293   */\n      revert\n        /* \"#utility.yul\":250:252   */\n    tag_39:\n        /* \"#utility.yul\":304:345   */\n      tag_40\n        /* \"#utility.yul\":338:344   */\n      dup5\n        /* \"#utility.yul\":333:336   */\n      dup3\n        /* \"#utility.yul\":328:331   */\n      dup6\n        /* \"#utility.yul\":304:345   */\n      tag_41\n      jump\t// in\n    tag_40:\n        /* \"#utility.yul\":91:351   */\n      pop\n      swap4\n      swap3\n      pop\n      pop\n      pop\n      jump\t// out\n        /* \"#utility.yul\":357:496   */\n    tag_42:\n      0x00\n        /* \"#utility.yul\":441:447   */\n      dup2\n        /* \"#utility.yul\":428:448   */\n      calldataload\n        /* \"#utility.yul\":419:448   */\n      swap1\n      pop\n        /* \"#utility.yul\":457:490   */\n      tag_44\n        /* \"#utility.yul\":484:489   */\n      dup2\n        /* \"#utility.yul\":457:490   */\n      tag_45\n      jump\t// in\n    tag_44:\n        /* \"#utility.yul\":409:496   */\n      swap3\n      swap2\n      pop\n      pop\n      jump\t// out\n        /* \"#utility.yul\":516:789   */\n    tag_46:\n      0x00\n        /* \"#utility.yul\":621:624   */\n      dup3\n        /* \"#utility.yul\":614:618   */\n      0x1f\n        /* \"#utility.yul\":606:612   */\n      dup4\n        /* \"#utility.yul\":602:619   */\n      add\n        /* \"#utility.yul\":598:625   */\n      slt\n        /* \"#utility.yul\":588:590   */\n      tag_48\n      jumpi\n        /* \"#utility.yul\":639:640   */\n      0x00\n        /* \"#utility.yul\":636:637   */\n      dup1\n        /* \"#utility.yul\":629:641   */\n      revert\n        /* \"#utility.yul\":588:590   */\n    tag_48:\n        /* \"#utility.yul\":679:685   */\n      dup2\n        /* \"#utility.yul\":666:686   */\n      calldataload\n        /* \"#utility.yul\":704:783   */\n      tag_49\n        /* \"#utility.yul\":779:782   */\n      dup5\n        /* \"#utility.yul\":771:777   */\n      dup3\n        /* \"#utility.yul\":764:768   */\n      0x20\n        /* \"#utility.yul\":756:762   */\n      dup7\n        /* \"#utility.yul\":752:769   */\n      add\n        /* \"#utility.yul\":704:783   */\n      tag_33\n      jump\t// in\n    tag_49:\n        /* \"#utility.yul\":695:783   */\n      swap2\n      pop\n        /* \"#utility.yul\":578:789   */\n      pop\n      swap3\n      swap2\n      pop\n      pop\n      jump\t// out\n        /* \"#utility.yul\":795:934   */\n    tag_50:\n      0x00\n        /* \"#utility.yul\":879:885   */\n      dup2\n        /* \"#utility.yul\":866:886   */\n      calldataload\n        /* \"#utility.yul\":857:886   */\n      swap1\n      pop\n        /* \"#utility.yul\":895:928   */\n      tag_52\n        /* \"#utility.yul\":922:927   */\n      dup2\n        /* \"#utility.yul\":895:928   */\n      tag_53\n      jump\t// in\n    tag_52:\n        /* \"#utility.yul\":847:934   */\n      swap3\n      swap2\n      pop\n      pop\n      jump\t// out\n        /* \"#utility.yul\":940:1202   */\n    tag_13:\n      0x00\n        /* \"#utility.yul\":1048:1050   */\n      0x20\n        /* \"#utility.yul\":1036:1045   */\n      dup3\n        /* \"#utility.yul\":1027:1034   */\n      dup5\n        /* \"#utility.yul\":1023:1046   */\n      sub\n        /* \"#utility.yul\":1019:1051   */\n      slt\n        /* \"#utility.yul\":1016:1018   */\n      iszero\n      tag_55\n      jumpi\n        /* \"#utility.yul\":1064:1065   */\n      0x00\n        /* \"#utility.yul\":1061:1062   */\n      dup1\n        /* \"#utility.yul\":1054:1066   */\n      revert\n        /* \"#utility.yul\":1016:1018   */\n    tag_55:\n        /* \"#utility.yul\":1107:1108   */\n      0x00\n        /* \"#utility.yul\":1132:1185   */\n      tag_56\n        /* \"#utility.yul\":1177:1184   */\n      dup5\n        /* \"#utility.yul\":1168:1174   */\n      dup3\n        /* \"#utility.yul\":1157:1166   */\n      dup6\n        /* \"#utility.yul\":1153:1175   */\n      add\n        /* \"#utility.yul\":1132:1185   */\n      tag_42\n      jump\t// in\n    tag_56:\n        /* \"#utility.yul\":1122:1185   */\n      swap2\n      pop\n        /* \"#utility.yul\":1078:1195   */\n      pop\n        /* \"#utility.yul\":1006:1202   */\n      swap3\n      swap2\n      pop\n      pop\n      jump\t// out\n        /* \"#utility.yul\":1208:1583   */\n    tag_25:\n      0x00\n        /* \"#utility.yul\":1326:1328   */\n      0x20\n        /* \"#utility.yul\":1314:1323   */\n      dup3\n        /* \"#utility.yul\":1305:1312   */\n      dup5\n        /* \"#utility.yul\":1301:1324   */\n      sub\n        /* \"#utility.yul\":1297:1329   */\n      slt\n        /* \"#utility.yul\":1294:1296   */\n      iszero\n      tag_58\n      jumpi\n        /* \"#utility.yul\":1342:1343   */\n      0x00\n        /* \"#utility.yul\":1339:1340   */\n      dup1\n        /* \"#utility.yul\":1332:1344   */\n      revert\n        /* \"#utility.yul\":1294:1296   */\n    tag_58:\n        /* \"#utility.yul\":1413:1414   */\n      0x00\n        /* \"#utility.yul\":1402:1411   */\n      dup3\n        /* \"#utility.yul\":1398:1415   */\n      add\n        /* \"#utility.yul\":1385:1416   */\n      calldataload\n        /* \"#utility.yul\":1443:1461   */\n      0xffffffffffffffff\n        /* \"#utility.yul\":1435:1441   */\n      dup2\n        /* \"#utility.yul\":1432:1462   */\n      gt\n        /* \"#utility.yul\":1429:1431   */\n      iszero\n      tag_59\n      jumpi\n        /* \"#utility.yul\":1475:1476   */\n      0x00\n        /* \"#utility.yul\":1472:1473   */\n      dup1\n        /* \"#utility.yul\":1465:1477   */\n      revert\n        /* \"#utility.yul\":1429:1431   */\n    tag_59:\n        /* \"#utility.yul\":1503:1566   */\n      tag_60\n        /* \"#utility.yul\":1558:1565   */\n      dup5\n        /* \"#utility.yul\":1549:1555   */\n      dup3\n        /* \"#utility.yul\":1538:1547   */\n      dup6\n        /* \"#utility.yul\":1534:1556   */\n      add\n        /* \"#utility.yul\":1503:1566   */\n      tag_46\n      jump\t// in\n    tag_60:\n        /* \"#utility.yul\":1493:1566   */\n      swap2\n      pop\n        /* \"#utility.yul\":1356:1576   */\n      pop\n        /* \"#utility.yul\":1284:1583   */\n      swap3\n      swap2\n      pop\n      pop\n      jump\t// out\n        /* \"#utility.yul\":1589:2109   */\n    tag_18:\n      0x00\n      dup1\n        /* \"#utility.yul\":1724:1726   */\n      0x40\n        /* \"#utility.yul\":1712:1721   */\n      dup4\n        /* \"#utility.yul\":1703:1710   */\n      dup6\n        /* \"#utility.yul\":1699:1722   */\n      sub\n        /* \"#utility.yul\":1695:1727   */\n      slt\n        /* \"#utility.yul\":1692:1694   */\n      iszero\n      tag_62\n      jumpi\n        /* \"#utility.yul\":1740:1741   */\n      0x00\n        /* \"#utility.yul\":1737:1738   */\n      dup1\n        /* \"#utility.yul\":1730:1742   */\n      revert\n        /* \"#utility.yul\":1692:1694   */\n    tag_62:\n        /* \"#utility.yul\":1783:1784   */\n      0x00\n        /* \"#utility.yul\":1808:1861   */\n      tag_63\n        /* \"#utility.yul\":1853:1860   */\n      dup6\n        /* \"#utility.yul\":1844:1850   */\n      dup3\n        /* \"#utility.yul\":1833:1842   */\n      dup7\n        /* \"#utility.yul\":1829:1851   */\n      add\n        /* \"#utility.yul\":1808:1861   */\n      tag_50\n      jump\t// in\n    tag_63:\n        /* \"#utility.yul\":1798:1861   */\n      swap3\n      pop\n        /* \"#utility.yul\":1754:1871   */\n      pop\n        /* \"#utility.yul\":1938:1940   */\n      0x20\n        /* \"#utility.yul\":1927:1936   */\n      dup4\n        /* \"#utility.yul\":1923:1941   */\n      add\n        /* \"#utility.yul\":1910:1942   */\n      calldataload\n        /* \"#utility.yul\":1969:1987   */\n      0xffffffffffffffff\n        /* \"#utility.yul\":1961:1967   */\n      dup2\n        /* \"#utility.yul\":1958:1988   */\n      gt\n        /* \"#utility.yul\":1955:1957   */\n      iszero\n      tag_64\n      jumpi\n        /* \"#utility.yul\":2001:2002   */\n      0x00\n        /* \"#utility.yul\":1998:1999   */\n      dup1\n        /* \"#utility.yul\":1991:2003   */\n      revert\n        /* \"#utility.yul\":1955:1957   */\n    tag_64:\n        /* \"#utility.yul\":2029:2092   */\n      tag_65\n        /* \"#utility.yul\":2084:2091   */\n      dup6\n        /* \"#utility.yul\":2075:2081   */\n      dup3\n        /* \"#utility.yul\":2064:2073   */\n      dup7\n        /* \"#utility.yul\":2060:2082   */\n      add\n        /* \"#utility.yul\":2029:2092   */\n      tag_46\n      jump\t// in\n    tag_65:\n        /* \"#utility.yul\":2019:2092   */\n      swap2\n      pop\n        /* \"#utility.yul\":1881:2102   */\n      pop\n        /* \"#utility.yul\":1682:2109   */\n      swap3\n      pop\n      swap3\n      swap1\n      pop\n      jump\t// out\n        /* \"#utility.yul\":2115:2224   */\n    tag_66:\n        /* \"#utility.yul\":2196:2217   */\n      tag_68\n        /* \"#utility.yul\":2211:2216   */\n      dup2\n        /* \"#utility.yul\":2196:2217   */\n      tag_69\n      jump\t// in\n    tag_68:\n        /* \"#utility.yul\":2191:2194   */\n      dup3\n        /* \"#utility.yul\":2184:2218   */\n      mstore\n        /* \"#utility.yul\":2174:2224   */\n      pop\n      pop\n      jump\t// out\n        /* \"#utility.yul\":2230:2590   */\n    tag_70:\n      0x00\n        /* \"#utility.yul\":2344:2382   */\n      tag_72\n        /* \"#utility.yul\":2376:2381   */\n      dup3\n        /* \"#utility.yul\":2344:2382   */\n      tag_73\n      jump\t// in\n    tag_72:\n        /* \"#utility.yul\":2398:2468   */\n      tag_74\n        /* \"#utility.yul\":2461:2467   */\n      dup2\n        /* \"#utility.yul\":2456:2459   */\n      dup6\n        /* \"#utility.yul\":2398:2468   */\n      tag_75\n      jump\t// in\n    tag_74:\n        /* \"#utility.yul\":2391:2468   */\n      swap4\n      pop\n        /* \"#utility.yul\":2477:2529   */\n      tag_76\n        /* \"#utility.yul\":2522:2528   */\n      dup2\n        /* \"#utility.yul\":2517:2520   */\n      dup6\n        /* \"#utility.yul\":2510:2514   */\n      0x20\n        /* \"#utility.yul\":2503:2508   */\n      dup7\n        /* \"#utility.yul\":2499:2515   */\n      add\n        /* \"#utility.yul\":2477:2529   */\n      tag_77\n      jump\t// in\n    tag_76:\n        /* \"#utility.yul\":2554:2583   */\n      tag_78\n        /* \"#utility.yul\":2576:2582   */\n      dup2\n        /* \"#utility.yul\":2554:2583   */\n      tag_79\n      jump\t// in\n    tag_78:\n        /* \"#utility.yul\":2549:2552   */\n      dup5\n        /* \"#utility.yul\":2545:2584   */\n      add\n        /* \"#utility.yul\":2538:2584   */\n      swap2\n      pop\n        /* \"#utility.yul\":2320:2590   */\n      pop\n      swap3\n      swap2\n      pop\n      pop\n      jump\t// out\n        /* \"#utility.yul\":2596:2806   */\n    tag_21:\n      0x00\n        /* \"#utility.yul\":2721:2723   */\n      0x20\n        /* \"#utility.yul\":2710:2719   */\n      dup3\n        /* \"#utility.yul\":2706:2724   */\n      add\n        /* \"#utility.yul\":2698:2724   */\n      swap1\n      pop\n        /* \"#utility.yul\":2734:2799   */\n      tag_81\n        /* \"#utility.yul\":2796:2797   */\n      0x00\n        /* \"#utility.yul\":2785:2794   */\n      dup4\n        /* \"#utility.yul\":2781:2798   */\n      add\n        /* \"#utility.yul\":2772:2778   */\n      dup5\n        /* \"#utility.yul\":2734:2799   */\n      tag_66\n      jump\t// in\n    tag_81:\n        /* \"#utility.yul\":2688:2806   */\n      swap3\n      swap2\n      pop\n      pop\n      jump\t// out\n        /* \"#utility.yul\":2812:3121   */\n    tag_28:\n      0x00\n        /* \"#utility.yul\":2961:2963   */\n      0x20\n        /* \"#utility.yul\":2950:2959   */\n      dup3\n        /* \"#utility.yul\":2946:2964   */\n      add\n        /* \"#utility.yul\":2938:2964   */\n      swap1\n      pop\n        /* \"#utility.yul\":3010:3019   */\n      dup2\n        /* \"#utility.yul\":3004:3008   */\n      dup2\n        /* \"#utility.yul\":3000:3020   */\n      sub\n        /* \"#utility.yul\":2996:2997   */\n      0x00\n        /* \"#utility.yul\":2985:2994   */\n      dup4\n        /* \"#utility.yul\":2981:2998   */\n      add\n        /* \"#utility.yul\":2974:3021   */\n      mstore\n        /* \"#utility.yul\":3038:3114   */\n      tag_83\n        /* \"#utility.yul\":3109:3113   */\n      dup2\n        /* \"#utility.yul\":3100:3106   */\n      dup5\n        /* \"#utility.yul\":3038:3114   */\n      tag_70\n      jump\t// in\n    tag_83:\n        /* \"#utility.yul\":3030:3114   */\n      swap1\n      pop\n        /* \"#utility.yul\":2928:3121   */\n      swap3\n      swap2\n      pop\n      pop\n      jump\t// out\n        /* \"#utility.yul\":3127:3410   */\n    tag_38:\n      0x00\n        /* \"#utility.yul\":3193:3195   */\n      0x40\n        /* \"#utility.yul\":3187:3196   */\n      mload\n        /* \"#utility.yul\":3177:3196   */\n      swap1\n      pop\n        /* \"#utility.yul\":3235:3239   */\n      dup2\n        /* \"#utility.yul\":3227:3233   */\n      dup2\n        /* \"#utility.yul\":3223:3240   */\n      add\n        /* \"#utility.yul\":3342:3348   */\n      dup2\n        /* \"#utility.yul\":3330:3340   */\n      dup2\n        /* \"#utility.yul\":3327:3349   */\n      lt\n        /* \"#utility.yul\":3306:3324   */\n      0xffffffffffffffff\n        /* \"#utility.yul\":3294:3304   */\n      dup3\n        /* \"#utility.yul\":3291:3325   */\n      gt\n        /* \"#utility.yul\":3288:3350   */\n      or\n        /* \"#utility.yul\":3285:3287   */\n      iszero\n      tag_85\n      jumpi\n        /* \"#utility.yul\":3353:3371   */\n      tag_86\n      tag_87\n      jump\t// in\n    tag_86:\n        /* \"#utility.yul\":3285:3287   */\n    tag_85:\n        /* \"#utility.yul\":3393:3403   */\n      dup1\n        /* \"#utility.yul\":3389:3391   */\n      0x40\n        /* \"#utility.yul\":3382:3404   */\n      mstore\n        /* \"#utility.yul\":3167:3410   */\n      pop\n      swap2\n      swap1\n      pop\n      jump\t// out\n        /* \"#utility.yul\":3416:3748   */\n    tag_37:\n      0x00\n        /* \"#utility.yul\":3568:3586   */\n      0xffffffffffffffff\n        /* \"#utility.yul\":3560:3566   */\n      dup3\n        /* \"#utility.yul\":3557:3587   */\n      gt\n        /* \"#utility.yul\":3554:3556   */\n      iszero\n      tag_89\n      jumpi\n        /* \"#utility.yul\":3590:3608   */\n      tag_90\n      tag_87\n      jump\t// in\n    tag_90:\n        /* \"#utility.yul\":3554:3556   */\n    tag_89:\n        /* \"#utility.yul\":3675:3679   */\n      0x1f\n        /* \"#utility.yul\":3671:3680   */\n      not\n        /* \"#utility.yul\":3664:3668   */\n      0x1f\n        /* \"#utility.yul\":3656:3662   */\n      dup4\n        /* \"#utility.yul\":3652:3669   */\n      add\n        /* \"#utility.yul\":3648:3681   */\n      and\n        /* \"#utility.yul\":3640:3681   */\n      swap1\n      pop\n        /* \"#utility.yul\":3736:3740   */\n      0x20\n        /* \"#utility.yul\":3730:3734   */\n      dup2\n        /* \"#utility.yul\":3726:3741   */\n      add\n        /* \"#utility.yul\":3718:3741   */\n      swap1\n      pop\n        /* \"#utility.yul\":3483:3748   */\n      swap2\n      swap1\n      pop\n      jump\t// out\n        /* \"#utility.yul\":3754:3852   */\n    tag_73:\n      0x00\n        /* \"#utility.yul\":3839:3844   */\n      dup2\n        /* \"#utility.yul\":3833:3845   */\n      mload\n        /* \"#utility.yul\":3823:3845   */\n      swap1\n      pop\n        /* \"#utility.yul\":3812:3852   */\n      swap2\n      swap1\n      pop\n      jump\t// out\n        /* \"#utility.yul\":3858:4026   */\n    tag_75:\n      0x00\n        /* \"#utility.yul\":3975:3981   */\n      dup3\n        /* \"#utility.yul\":3970:3973   */\n      dup3\n        /* \"#utility.yul\":3963:3982   */\n      mstore\n        /* \"#utility.yul\":4015:4019   */\n      0x20\n        /* \"#utility.yul\":4010:4013   */\n      dup3\n        /* \"#utility.yul\":4006:4020   */\n      add\n        /* \"#utility.yul\":3991:4020   */\n      swap1\n      pop\n        /* \"#utility.yul\":3953:4026   */\n      swap3\n      swap2\n      pop\n      pop\n      jump\t// out\n        /* \"#utility.yul\":4032:4128   */\n    tag_93:\n      0x00\n        /* \"#utility.yul\":4098:4122   */\n      tag_95\n        /* \"#utility.yul\":4116:4121   */\n      dup3\n        /* \"#utility.yul\":4098:4122   */\n      tag_96\n      jump\t// in\n    tag_95:\n        /* \"#utility.yul\":4087:4122   */\n      swap1\n      pop\n        /* \"#utility.yul\":4077:4128   */\n      swap2\n      swap1\n      pop\n      jump\t// out\n        /* \"#utility.yul\":4134:4224   */\n    tag_69:\n      0x00\n        /* \"#utility.yul\":4211:4216   */\n      dup2\n        /* \"#utility.yul\":4204:4217   */\n      iszero\n        /* \"#utility.yul\":4197:4218   */\n      iszero\n        /* \"#utility.yul\":4186:4218   */\n      swap1\n      pop\n        /* \"#utility.yul\":4176:4224   */\n      swap2\n      swap1\n      pop\n      jump\t// out\n        /* \"#utility.yul\":4230:4356   */\n    tag_96:\n      0x00\n        /* \"#utility.yul\":4307:4349   */\n      0xffffffffffffffffffffffffffffffffffffffff\n        /* \"#utility.yul\":4300:4305   */\n      dup3\n        /* \"#utility.yul\":4296:4350   */\n      and\n        /* \"#utility.yul\":4285:4350   */\n      swap1\n      pop\n        /* \"#utility.yul\":4275:4356   */\n      swap2\n      swap1\n      pop\n      jump\t// out\n        /* \"#utility.yul\":4362:4439   */\n    tag_99:\n      0x00\n        /* \"#utility.yul\":4428:4433   */\n      dup2\n        /* \"#utility.yul\":4417:4433   */\n      swap1\n      pop\n        /* \"#utility.yul\":4407:4439   */\n      swap2\n      swap1\n      pop\n      jump\t// out\n        /* \"#utility.yul\":4445:4599   */\n    tag_41:\n        /* \"#utility.yul\":4529:4535   */\n      dup3\n        /* \"#utility.yul\":4524:4527   */\n      dup2\n        /* \"#utility.yul\":4519:4522   */\n      dup4\n        /* \"#utility.yul\":4506:4536   */\n      calldatacopy\n        /* \"#utility.yul\":4591:4592   */\n      0x00\n        /* \"#utility.yul\":4582:4588   */\n      dup4\n        /* \"#utility.yul\":4577:4580   */\n      dup4\n        /* \"#utility.yul\":4573:4589   */\n      add\n        /* \"#utility.yul\":4566:4593   */\n      mstore\n        /* \"#utility.yul\":4496:4599   */\n      pop\n      pop\n      pop\n      jump\t// out\n        /* \"#utility.yul\":4605:4912   */\n    tag_77:\n        /* \"#utility.yul\":4673:4674   */\n      0x00\n        /* \"#utility.yul\":4683:4796   */\n    tag_103:\n        /* \"#utility.yul\":4697:4703   */\n      dup4\n        /* \"#utility.yul\":4694:4695   */\n      dup2\n        /* \"#utility.yul\":4691:4704   */\n      lt\n        /* \"#utility.yul\":4683:4796   */\n      iszero\n      tag_105\n      jumpi\n        /* \"#utility.yul\":4782:4783   */\n      dup1\n        /* \"#utility.yul\":4777:4780   */\n      dup3\n        /* \"#utility.yul\":4773:4784   */\n      add\n        /* \"#utility.yul\":4767:4785   */\n      mload\n        /* \"#utility.yul\":4763:4764   */\n      dup2\n        /* \"#utility.yul\":4758:4761   */\n      dup5\n        /* \"#utility.yul\":4754:4765   */\n      add\n        /* \"#utility.yul\":4747:4786   */\n      mstore\n        /* \"#utility.yul\":4719:4721   */\n      0x20\n        /* \"#utility.yul\":4716:4717   */\n      dup2\n        /* \"#utility.yul\":4712:4722   */\n      add\n        /* \"#utility.yul\":4707:4722   */\n      swap1\n      pop\n        /* \"#utility.yul\":4683:4796   */\n      jump(tag_103)\n    tag_105:\n        /* \"#utility.yul\":4814:4820   */\n      dup4\n        /* \"#utility.yul\":4811:4812   */\n      dup2\n        /* \"#utility.yul\":4808:4821   */\n      gt\n        /* \"#utility.yul\":4805:4807   */\n      iszero\n      tag_106\n      jumpi\n        /* \"#utility.yul\":4894:4895   */\n      0x00\n        /* \"#utility.yul\":4885:4891   */\n      dup5\n        /* \"#utility.yul\":4880:4883   */\n      dup5\n        /* \"#utility.yul\":4876:4892   */\n      add\n        /* \"#utility.yul\":4869:4896   */\n      mstore\n        /* \"#utility.yul\":4805:4807   */\n    tag_106:\n        /* \"#utility.yul\":4654:4912   */\n      pop\n      pop\n      pop\n      pop\n      jump\t// out\n        /* \"#utility.yul\":4918:5098   */\n    tag_87:\n        /* \"#utility.yul\":4966:5043   */\n      0x4e487b7100000000000000000000000000000000000000000000000000000000\n        /* \"#utility.yul\":4963:4964   */\n      0x00\n        /* \"#utility.yul\":4956:5044   */\n      mstore\n        /* \"#utility.yul\":5063:5067   */\n      0x41\n        /* \"#utility.yul\":5060:5061   */\n      0x04\n        /* \"#utility.yul\":5053:5068   */\n      mstore\n        /* \"#utility.yul\":5087:5091   */\n      0x24\n        /* \"#utility.yul\":5084:5085   */\n      0x00\n        /* \"#utility.yul\":5077:5092   */\n      revert\n        /* \"#utility.yul\":5104:5206   */\n    tag_79:\n      0x00\n        /* \"#utility.yul\":5196:5198   */\n      0x1f\n        /* \"#utility.yul\":5192:5199   */\n      not\n        /* \"#utility.yul\":5187:5189   */\n      0x1f\n        /* \"#utility.yul\":5180:5185   */\n      dup4\n        /* \"#utility.yul\":5176:5190   */\n      add\n        /* \"#utility.yul\":5172:5200   */\n      and\n        /* \"#utility.yul\":5162:5200   */\n      swap1\n      pop\n        /* \"#utility.yul\":5152:5206   */\n      swap2\n      swap1\n      pop\n      jump\t// out\n        /* \"#utility.yul\":5212:5334   */\n    tag_45:\n        /* \"#utility.yul\":5285:5309   */\n      tag_110\n        /* \"#utility.yul\":5303:5308   */\n      dup2\n        /* \"#utility.yul\":5285:5309   */\n      tag_93\n      jump\t// in\n    tag_110:\n        /* \"#utility.yul\":5278:5283   */\n      dup2\n        /* \"#utility.yul\":5275:5310   */\n      eq\n        /* \"#utility.yul\":5265:5267   */\n      tag_111\n      jumpi\n        /* \"#utility.yul\":5324:5325   */\n      0x00\n        /* \"#utility.yul\":5321:5322   */\n      dup1\n        /* \"#utility.yul\":5314:5326   */\n      revert\n        /* \"#utility.yul\":5265:5267   */\n    tag_111:\n        /* \"#utility.yul\":5255:5334   */\n      pop\n      jump\t// out\n        /* \"#utility.yul\":5340:5462   */\n    tag_53:\n        /* \"#utility.yul\":5413:5437   */\n      tag_113\n        /* \"#utility.yul\":5431:5436   */\n      dup2\n        /* \"#utility.yul\":5413:5437   */\n      tag_99\n      jump\t// in\n    tag_113:\n        /* \"#utility.yul\":5406:5411   */\n      dup2\n        /* \"#utility.yul\":5403:5438   */\n      eq\n        /* \"#utility.yul\":5393:5395   */\n      tag_114\n      jumpi\n        /* \"#utility.yul\":5452:5453   */\n      0x00\n        /* \"#utility.yul\":5449:5450   */\n      dup1\n        /* \"#utility.yul\":5442:5454   */\n      revert\n        /* \"#utility.yul\":5393:5395   */\n    tag_114:\n        /* \"#utility.yul\":5383:5462   */\n      pop\n      jump\t// out\n\n    auxdata: 0xa264697066735822122074c37a9ac4e79fdc70714aeb0529fa8b6b67dcea98a5eea4a6d68013889543a964736f6c63430008000033\n}\n",
				"bytecode": {
					"linkReferences": {},
					"object": "60806040526000805534801561001457600080fd5b5061047f806100246000396000f3fe6080604052600436106100385760003560e01c80633a3d07881461004157806388cdf1761461006a578063bc6d0577146100a75761003f565b3661003f57005b005b34801561004d57600080fd5b5061006860048036038101906100639190610191565b6100e4565b005b34801561007657600080fd5b50610091600480360381019061008c91906101fb565b6100e7565b60405161009e9190610297565b60405180910390f35b3480156100b357600080fd5b506100ce60048036038101906100c991906101ba565b6100ef565b6040516100db91906102b2565b60405180910390f35b50565b600092915050565b6060600082905080915050919050565b600061011261010d84610305565b6102d4565b90508281526020810184848401111561012a57600080fd5b610135848285610399565b509392505050565b60008135905061014c8161041b565b92915050565b600082601f83011261016357600080fd5b81356101738482602086016100ff565b91505092915050565b60008135905061018b81610432565b92915050565b6000602082840312156101a357600080fd5b60006101b18482850161013d565b91505092915050565b6000602082840312156101cc57600080fd5b600082013567ffffffffffffffff8111156101e657600080fd5b6101f284828501610152565b91505092915050565b6000806040838503121561020e57600080fd5b600061021c8582860161017c565b925050602083013567ffffffffffffffff81111561023957600080fd5b61024585828601610152565b9150509250929050565b61025881610363565b82525050565b600061026982610335565b6102738185610340565b93506102838185602086016103a8565b61028c8161040a565b840191505092915050565b60006020820190506102ac600083018461024f565b92915050565b600060208201905081810360008301526102cc818461025e565b905092915050565b6000604051905081810181811067ffffffffffffffff821117156102fb576102fa6103db565b5b8060405250919050565b600067ffffffffffffffff8211156103205761031f6103db565b5b601f19601f8301169050602081019050919050565b600081519050919050565b600082825260208201905092915050565b600061035c8261036f565b9050919050565b60008115159050919050565b600073ffffffffffffffffffffffffffffffffffffffff82169050919050565b6000819050919050565b82818337600083830152505050565b60005b838110156103c65780820151818401526020810190506103ab565b838111156103d5576000848401525b50505050565b7f4e487b7100000000000000000000000000000000000000000000000000000000600052604160045260246000fd5b6000601f19601f8301169050919050565b61042481610351565b811461042f57600080fd5b50565b61043b8161038f565b811461044657600080fd5b5056fea264697066735822122074c37a9ac4e79fdc70714aeb0529fa8b6b67dcea98a5eea4a6d68013889543a964736f6c63430008000033",
					"opcodes": "PUSH1 0x80 PUSH1 0x40 MSTORE PUSH1 0x0 DUP1 SSTORE CALLVALUE DUP1 ISZERO PUSH2 0x14 JUMPI PUSH1 0x0 DUP1 REVERT JUMPDEST POP PUSH2 0x47F DUP1 PUSH2 0x24 PUSH1 0x0 CODECOPY PUSH1 0x0 RETURN INVALID PUSH1 0x80 PUSH1 0x40 MSTORE PUSH1 0x4 CALLDATASIZE LT PUSH2 0x38 JUMPI PUSH1 0x0 CALLDATALOAD PUSH1 0xE0 SHR DUP1 PUSH4 0x3A3D0788 EQ PUSH2 0x41 JUMPI DUP1 PUSH4 0x88CDF176 EQ PUSH2 0x6A JUMPI DUP1 PUSH4 0xBC6D0577 EQ PUSH2 0xA7 JUMPI PUSH2 0x3F JUMP JUMPDEST CALLDATASIZE PUSH2 0x3F JUMPI STOP JUMPDEST STOP JUMPDEST CALLVALUE DUP1 ISZERO PUSH2 0x4D JUMPI PUSH1 0x0 DUP1 REVERT JUMPDEST POP PUSH2 0x68 PUSH1 0x4 DUP1 CALLDATASIZE SUB DUP2 ADD SWAP1 PUSH2 0x63 SWAP2 SWAP1 PUSH2 0x191 JUMP JUMPDEST PUSH2 0xE4 JUMP JUMPDEST STOP JUMPDEST CALLVALUE DUP1 ISZERO PUSH2 0x76 JUMPI PUSH1 0x0 DUP1 REVERT JUMPDEST POP PUSH2 0x91 PUSH1 0x4 DUP1 CALLDATASIZE SUB DUP2 ADD SWAP1 PUSH2 0x8C SWAP2 SWAP1 PUSH2 0x1FB JUMP JUMPDEST PUSH2 0xE7 JUMP JUMPDEST PUSH1 0x40 MLOAD PUSH2 0x9E SWAP2 SWAP1 PUSH2 0x297 JUMP JUMPDEST PUSH1 0x40 MLOAD DUP1 SWAP2 SUB SWAP1 RETURN JUMPDEST CALLVALUE DUP1 ISZERO PUSH2 0xB3 JUMPI PUSH1 0x0 DUP1 REVERT JUMPDEST POP PUSH2 0xCE PUSH1 0x4 DUP1 CALLDATASIZE SUB DUP2 ADD SWAP1 PUSH2 0xC9 SWAP2 SWAP1 PUSH2 0x1BA JUMP JUMPDEST PUSH2 0xEF JUMP JUMPDEST PUSH1 0x40 MLOAD PUSH2 0xDB SWAP2 SWAP1 PUSH2 0x2B2 JUMP JUMPDEST PUSH1 0x40 MLOAD DUP1 SWAP2 SUB SWAP1 RETURN JUMPDEST POP JUMP JUMPDEST PUSH1 0x0 SWAP3 SWAP2 POP POP JUMP JUMPDEST PUSH1 0x60 PUSH1 0x0 DUP3 SWAP1 POP DUP1 SWAP2 POP POP SWAP2 SWAP1 POP JUMP JUMPDEST PUSH1 0x0 PUSH2 0x112 PUSH2 0x10D DUP5 PUSH2 0x305 JUMP JUMPDEST PUSH2 0x2D4 JUMP JUMPDEST SWAP1 POP DUP3 DUP2 MSTORE PUSH1 0x20 DUP2 ADD DUP5 DUP5 DUP5 ADD GT ISZERO PUSH2 0x12A JUMPI PUSH1 0x0 DUP1 REVERT JUMPDEST PUSH2 0x135 DUP5 DUP3 DUP6 PUSH2 0x399 JUMP JUMPDEST POP SWAP4 SWAP3 POP POP POP JUMP JUMPDEST PUSH1 0x0 DUP2 CALLDATALOAD SWAP1 POP PUSH2 0x14C DUP2 PUSH2 0x41B JUMP JUMPDEST SWAP3 SWAP2 POP POP JUMP JUMPDEST PUSH1 0x0 DUP3 PUSH1 0x1F DUP4 ADD SLT PUSH2 0x163 JUMPI PUSH1 0x0 DUP1 REVERT JUMPDEST DUP2 CALLDATALOAD PUSH2 0x173 DUP5 DUP3 PUSH1 0x20 DUP7 ADD PUSH2 0xFF JUMP JUMPDEST SWAP2 POP POP SWAP3 SWAP2 POP POP JUMP JUMPDEST PUSH1 0x0 DUP2 CALLDATALOAD SWAP1 POP PUSH2 0x18B DUP2 PUSH2 0x432 JUMP JUMPDEST SWAP3 SWAP2 POP POP JUMP JUMPDEST PUSH1 0x0 PUSH1 0x20 DUP3 DUP5 SUB SLT ISZERO PUSH2 0x1A3 JUMPI PUSH1 0x0 DUP1 REVERT JUMPDEST PUSH1 0x0 PUSH2 0x1B1 DUP5 DUP3 DUP6 ADD PUSH2 0x13D JUMP JUMPDEST SWAP2 POP POP SWAP3 SWAP2 POP POP JUMP JUMPDEST PUSH1 0x0 PUSH1 0x20 DUP3 DUP5 SUB SLT ISZERO PUSH2 0x1CC JUMPI PUSH1 0x0 DUP1 REVERT JUMPDEST PUSH1 0x0 DUP3 ADD CALLDATALOAD PUSH8 0xFFFFFFFFFFFFFFFF DUP2 GT ISZERO PUSH2 0x1E6 JUMPI PUSH1 0x0 DUP1 REVERT JUMPDEST PUSH2 0x1F2 DUP5 DUP3 DUP6 ADD PUSH2 0x152 JUMP JUMPDEST SWAP2 POP POP SWAP3 SWAP2 POP POP JUMP JUMPDEST PUSH1 0x0 DUP1 PUSH1 0x40 DUP4 DUP6 SUB SLT ISZERO PUSH2 0x20E JUMPI PUSH1 0x0 DUP1 REVERT JUMPDEST PUSH1 0x0 PUSH2 0x21C DUP6 DUP3 DUP7 ADD PUSH2 0x17C JUMP JUMPDEST SWAP3 POP POP PUSH1 0x20 DUP4 ADD CALLDATALOAD PUSH8 0xFFFFFFFFFFFFFFFF DUP2 GT ISZERO PUSH2 0x239 JUMPI PUSH1 0x0 DUP1 REVERT JUMPDEST PUSH2 0x245 DUP6 DUP3 DUP7 ADD PUSH2 0x152 JUMP JUMPDEST SWAP2 POP POP SWAP3 POP SWAP3 SWAP1 POP JUMP JUMPDEST PUSH2 0x258 DUP2 PUSH2 0x363 JUMP JUMPDEST DUP3 MSTORE POP POP JUMP JUMPDEST PUSH1 0x0 PUSH2 0x269 DUP3 PUSH2 0x335 JUMP JUMPDEST PUSH2 0x273 DUP2 DUP6 PUSH2 0x340 JUMP JUMPDEST SWAP4 POP PUSH2 0x283 DUP2 DUP6 PUSH1 0x20 DUP7 ADD PUSH2 0x3A8 JUMP JUMPDEST PUSH2 0x28C DUP2 PUSH2 0x40A JUMP JUMPDEST DUP5 ADD SWAP2 POP POP SWAP3 SWAP2 POP POP JUMP JUMPDEST PUSH1 0x0 PUSH1 0x20 DUP3 ADD SWAP1 POP PUSH2 0x2AC PUSH1 0x0 DUP4 ADD DUP5 PUSH2 0x24F JUMP JUMPDEST SWAP3 SWAP2 POP POP JUMP JUMPDEST PUSH1 0x0 PUSH1 0x20 DUP3 ADD SWAP1 POP DUP2 DUP2 SUB PUSH1 0x0 DUP4 ADD MSTORE PUSH2 0x2CC DUP2 DUP5 PUSH2 0x25E JUMP JUMPDEST SWAP1 POP SWAP3 SWAP2 POP POP JUMP JUMPDEST PUSH1 0x0 PUSH1 0x40 MLOAD SWAP1 POP DUP2 DUP2 ADD DUP2 DUP2 LT PUSH8 0xFFFFFFFFFFFFFFFF DUP3 GT OR ISZERO PUSH2 0x2FB JUMPI PUSH2 0x2FA PUSH2 0x3DB JUMP JUMPDEST JUMPDEST DUP1 PUSH1 0x40 MSTORE POP SWAP2 SWAP1 POP JUMP JUMPDEST PUSH1 0x0 PUSH8 0xFFFFFFFFFFFFFFFF DUP3 GT ISZERO PUSH2 0x320 JUMPI PUSH2 0x31F PUSH2 0x3DB JUMP JUMPDEST JUMPDEST PUSH1 0x1F NOT PUSH1 0x1F DUP4 ADD AND SWAP1 POP PUSH1 0x20 DUP2 ADD SWAP1 POP SWAP2 SWAP1 POP JUMP JUMPDEST PUSH1 0x0 DUP2 MLOAD SWAP1 POP SWAP2 SWAP1 POP JUMP JUMPDEST PUSH1 0x0 DUP3 DUP3 MSTORE PUSH1 0x20 DUP3 ADD SWAP1 POP SWAP3 SWAP2 POP POP JUMP JUMPDEST PUSH1 0x0 PUSH2 0x35C DUP3 PUSH2 0x36F JUMP JUMPDEST SWAP1 POP SWAP2 SWAP1 POP JUMP JUMPDEST PUSH1 0x0 DUP2 ISZERO ISZERO SWAP1 POP SWAP2 SWAP1 POP JUMP JUMPDEST PUSH1 0x0 PUSH20 0xFFFFFFFFFFFFFFFFFFFFFFFFFFFFFFFFFFFFFFFF DUP3 AND SWAP1 POP SWAP2 SWAP1 POP JUMP JUMPDEST PUSH1 0x0 DUP2 SWAP1 POP SWAP2 SWAP1 POP JUMP JUMPDEST DUP3 DUP2 DUP4 CALLDATACOPY PUSH1 0x0 DUP4 DUP4 ADD MSTORE POP POP POP JUMP JUMPDEST PUSH1 0x0 JUMPDEST DUP4 DUP2 LT ISZERO PUSH2 0x3C6 JUMPI DUP1 DUP3 ADD MLOAD DUP2 DUP5 ADD MSTORE PUSH1 0x20 DUP2 ADD SWAP1 POP PUSH2 0x3AB JUMP JUMPDEST DUP4 DUP2 GT ISZERO PUSH2 0x3D5 JUMPI PUSH1 0x0 DUP5 DUP5 ADD MSTORE JUMPDEST POP POP POP POP JUMP JUMPDEST PUSH32 0x4E487B7100000000000000000000000000000000000000000000000000000000 PUSH1 0x0 MSTORE PUSH1 0x41 PUSH1 0x4 MSTORE PUSH1 0x24 PUSH1 0x0 REVERT JUMPDEST PUSH1 0x0 PUSH1 0x1F NOT PUSH1 0x1F DUP4 ADD AND SWAP1 POP SWAP2 SWAP1 POP JUMP JUMPDEST PUSH2 0x424 DUP2 PUSH2 0x351 JUMP JUMPDEST DUP2 EQ PUSH2 0x42F JUMPI PUSH1 0x0 DUP1 REVERT JUMPDEST POP JUMP JUMPDEST PUSH2 0x43B DUP2 PUSH2 0x38F JUMP JUMPDEST DUP2 EQ PUSH2 0x446 JUMPI PUSH1 0x0 DUP1 REVERT JUMPDEST POP JUMP INVALID LOG2 PUSH5 0x6970667358 0x22 SLT KECCAK256 PUSH21 0xC37A9AC4E79FDC70714AEB0529FA8B6B67DCEA98A5 0xEE LOG4 0xA6 0xD6 DUP1 SGT DUP9 SWAP6 NUMBER 0xA9 PUSH5 0x736F6C6343 STOP ADDMOD STOP STOP CALLER "
				},
				"gasEstimates": {
					"creation": {
						"codeDepositCost": "230200",
						"executionCost": "5275",
						"totalCost": "235475"
					},
					"external": {
						"": "129",
						"AppealforFund(uint256,string)": "infinite",
						"getstatus(address)": "433",
						"string_tobytes(string)": "infinite"
					}
				},
				"methodIdentifiers": {
					"AppealforFund(uint256,string)": "88cdf176",
					"getstatus(address)": "3a3d0788",
					"string_tobytes(string)": "bc6d0577"
				}
			},
			"userdoc": {
				"kind": "user",
				"methods": {},
				"version": 1
			}
		}
	}
}