{
	"treasury.sol": {
		"Treasury": {
			"abi": [
				{
					"stateMutability": "payable",
					"type": "fallback"
				},
				{
					"inputs": [],
					"name": "AppealforFund",
					"outputs": [
						{
							"internalType": "bool",
							"name": "",
							"type": "bool"
						}
					],
					"stateMutability": "nonpayable",
					"type": "function"
				},
				{
					"inputs": [
						{
							"internalType": "address",
							"name": "applier",
							"type": "address"
						}
					],
					"name": "getstatus",
					"outputs": [],
					"stateMutability": "view",
					"type": "function"
				},
				{
					"inputs": [
						{
							"internalType": "string",
							"name": "_purpose",
							"type": "string"
						}
					],
					"name": "string_tobytes",
					"outputs": [
						{
							"internalType": "bytes",
							"name": "",
							"type": "bytes"
						}
					],
					"stateMutability": "pure",
					"type": "function"
				},
				{
					"stateMutability": "payable",
					"type": "receive"
				}
			],
			"devdoc": {
				"kind": "dev",
				"methods": {},
				"version": 1
			},
			"evm": {
				"assembly": "    /* \"treasury.sol\":93:1641  contract Treasury is Itreasury {... */\n  mstore(0x40, 0x80)\n    /* \"treasury.sol\":898:899  0 */\n  0x00\n    /* \"treasury.sol\":875:899  uint number_of_Appeals=0 */\n  dup1\n  sstore\n    /* \"treasury.sol\":93:1641  contract Treasury is Itreasury {... */\n  callvalue\n  dup1\n  iszero\n  tag_1\n  jumpi\n  0x00\n  dup1\n  revert\ntag_1:\n  pop\n  dataSize(sub_0)\n  dup1\n  dataOffset(sub_0)\n  0x00\n  codecopy\n  0x00\n  return\nstop\n\nsub_0: assembly {\n        /* \"treasury.sol\":93:1641  contract Treasury is Itreasury {... */\n      mstore(0x40, 0x80)\n      jumpi(tag_1, lt(calldatasize, 0x04))\n      shr(0xe0, calldataload(0x00))\n      dup1\n      0x266f7e9a\n      eq\n      tag_3\n      jumpi\n      dup1\n      0x3a3d0788\n      eq\n      tag_4\n      jumpi\n      dup1\n      0xbc6d0577\n      eq\n      tag_5\n      jumpi\n      jump(tag_2)\n    tag_1:\n      jumpi(tag_2, calldatasize)\n      stop\n    tag_2:\n      stop\n        /* \"treasury.sol\":1041:1090  function AppealforFund() external returns(bool){} */\n    tag_3:\n      callvalue\n      dup1\n      iszero\n      tag_10\n      jumpi\n      0x00\n      dup1\n      revert\n    tag_10:\n      pop\n      tag_11\n      tag_12\n      jump\t// in\n    tag_11:\n      mload(0x40)\n      tag_13\n      swap2\n      swap1\n      tag_14\n      jump\t// in\n    tag_13:\n      mload(0x40)\n      dup1\n      swap2\n      sub\n      swap1\n      return\n        /* \"treasury.sol\":1568:1638  function getstatus(address applier) external view override{... */\n    tag_4:\n      callvalue\n      dup1\n      iszero\n      tag_15\n      jumpi\n      0x00\n      dup1\n      revert\n    tag_15:\n      pop\n      tag_16\n      0x04\n      dup1\n      calldatasize\n      sub\n      dup2\n      add\n      swap1\n      tag_17\n      swap2\n      swap1\n      tag_18\n      jump\t// in\n    tag_17:\n      tag_19\n      jump\t// in\n    tag_16:\n      stop\n        /* \"treasury.sol\":1154:1319  function string_tobytes( string memory _purpose) public pure returns (bytes memory){... */\n    tag_5:\n      callvalue\n      dup1\n      iszero\n      tag_20\n      jumpi\n      0x00\n      dup1\n      revert\n    tag_20:\n      pop\n      tag_21\n      0x04\n      dup1\n      calldatasize\n      sub\n      dup2\n      add\n      swap1\n      tag_22\n      swap2\n      swap1\n      tag_23\n      jump\t// in\n    tag_22:\n      tag_24\n      jump\t// in\n    tag_21:\n      mload(0x40)\n      tag_25\n      swap2\n      swap1\n      tag_26\n      jump\t// in\n    tag_25:\n      mload(0x40)\n      dup1\n      swap2\n      sub\n      swap1\n      return\n        /* \"treasury.sol\":1041:1090  function AppealforFund() external returns(bool){} */\n    tag_12:\n        /* \"treasury.sol\":1083:1087  bool */\n      0x00\n        /* \"treasury.sol\":1041:1090  function AppealforFund() external returns(bool){} */\n      swap1\n      jump\t// out\n        /* \"treasury.sol\":1568:1638  function getstatus(address applier) external view override{... */\n    tag_19:\n      pop\n      jump\t// out\n        /* \"treasury.sol\":1154:1319  function string_tobytes( string memory _purpose) public pure returns (bytes memory){... */\n    tag_24:\n        /* \"treasury.sol\":1224:1236  bytes memory */\n      0x60\n        /* \"treasury.sol\":1247:1266  bytes memory result */\n      0x00\n        /* \"treasury.sol\":1275:1283  _purpose */\n      dup3\n        /* \"treasury.sol\":1247:1284  bytes memory result = bytes(_purpose) */\n      swap1\n      pop\n        /* \"treasury.sol\":1301:1307  result */\n      dup1\n        /* \"treasury.sol\":1294:1307  return result */\n      swap2\n      pop\n      pop\n        /* \"treasury.sol\":1154:1319  function string_tobytes( string memory _purpose) public pure returns (bytes memory){... */\n      swap2\n      swap1\n      pop\n      jump\t// out\n        /* \"#utility.yul\":7:351   */\n    tag_31:\n      0x00\n        /* \"#utility.yul\":110:175   */\n      tag_33\n        /* \"#utility.yul\":125:174   */\n      tag_34\n        /* \"#utility.yul\":167:173   */\n      dup5\n        /* \"#utility.yul\":125:174   */\n      tag_35\n      jump\t// in\n    tag_34:\n        /* \"#utility.yul\":110:175   */\n      tag_36\n      jump\t// in\n    tag_33:\n        /* \"#utility.yul\":101:175   */\n      swap1\n      pop\n        /* \"#utility.yul\":198:204   */\n      dup3\n        /* \"#utility.yul\":191:196   */\n      dup2\n        /* \"#utility.yul\":184:205   */\n      mstore\n        /* \"#utility.yul\":236:240   */\n      0x20\n        /* \"#utility.yul\":229:234   */\n      dup2\n        /* \"#utility.yul\":225:241   */\n      add\n        /* \"#utility.yul\":274:277   */\n      dup5\n        /* \"#utility.yul\":265:271   */\n      dup5\n        /* \"#utility.yul\":260:263   */\n      dup5\n        /* \"#utility.yul\":256:272   */\n      add\n        /* \"#utility.yul\":253:278   */\n      gt\n        /* \"#utility.yul\":250:252   */\n      iszero\n      tag_37\n      jumpi\n        /* \"#utility.yul\":291:292   */\n      0x00\n        /* \"#utility.yul\":288:289   */\n      dup1\n        /* \"#utility.yul\":281:293   */\n      revert\n        /* \"#utility.yul\":250:252   */\n    tag_37:\n        /* \"#utility.yul\":304:345   */\n      tag_38\n        /* \"#utility.yul\":338:344   */\n      dup5\n        /* \"#utility.yul\":333:336   */\n      dup3\n        /* \"#utility.yul\":328:331   */\n      dup6\n        /* \"#utility.yul\":304:345   */\n      tag_39\n      jump\t// in\n    tag_38:\n        /* \"#utility.yul\":91:351   */\n      pop\n      swap4\n      swap3\n      pop\n      pop\n      pop\n      jump\t// out\n        /* \"#utility.yul\":357:496   */\n    tag_40:\n      0x00\n        /* \"#utility.yul\":441:447   */\n      dup2\n        /* \"#utility.yul\":428:448   */\n      calldataload\n        /* \"#utility.yul\":419:448   */\n      swap1\n      pop\n        /* \"#utility.yul\":457:490   */\n      tag_42\n        /* \"#utility.yul\":484:489   */\n      dup2\n        /* \"#utility.yul\":457:490   */\n      tag_43\n      jump\t// in\n    tag_42:\n        /* \"#utility.yul\":409:496   */\n      swap3\n      swap2\n      pop\n      pop\n      jump\t// out\n        /* \"#utility.yul\":516:789   */\n    tag_44:\n      0x00\n        /* \"#utility.yul\":621:624   */\n      dup3\n        /* \"#utility.yul\":614:618   */\n      0x1f\n        /* \"#utility.yul\":606:612   */\n      dup4\n        /* \"#utility.yul\":602:619   */\n      add\n        /* \"#utility.yul\":598:625   */\n      slt\n        /* \"#utility.yul\":588:590   */\n      tag_46\n      jumpi\n        /* \"#utility.yul\":639:640   */\n      0x00\n        /* \"#utility.yul\":636:637   */\n      dup1\n        /* \"#utility.yul\":629:641   */\n      revert\n        /* \"#utility.yul\":588:590   */\n    tag_46:\n        /* \"#utility.yul\":679:685   */\n      dup2\n        /* \"#utility.yul\":666:686   */\n      calldataload\n        /* \"#utility.yul\":704:783   */\n      tag_47\n        /* \"#utility.yul\":779:782   */\n      dup5\n        /* \"#utility.yul\":771:777   */\n      dup3\n        /* \"#utility.yul\":764:768   */\n      0x20\n        /* \"#utility.yul\":756:762   */\n      dup7\n        /* \"#utility.yul\":752:769   */\n      add\n        /* \"#utility.yul\":704:783   */\n      tag_31\n      jump\t// in\n    tag_47:\n        /* \"#utility.yul\":695:783   */\n      swap2\n      pop\n        /* \"#utility.yul\":578:789   */\n      pop\n      swap3\n      swap2\n      pop\n      pop\n      jump\t// out\n        /* \"#utility.yul\":795:1057   */\n    tag_18:\n      0x00\n        /* \"#utility.yul\":903:905   */\n      0x20\n        /* \"#utility.yul\":891:900   */\n      dup3\n        /* \"#utility.yul\":882:889   */\n      dup5\n        /* \"#utility.yul\":878:901   */\n      sub\n        /* \"#utility.yul\":874:906   */\n      slt\n        /* \"#utility.yul\":871:873   */\n      iszero\n      tag_49\n      jumpi\n        /* \"#utility.yul\":919:920   */\n      0x00\n        /* \"#utility.yul\":916:917   */\n      dup1\n        /* \"#utility.yul\":909:921   */\n      revert\n        /* \"#utility.yul\":871:873   */\n    tag_49:\n        /* \"#utility.yul\":962:963   */\n      0x00\n        /* \"#utility.yul\":987:1040   */\n      tag_50\n        /* \"#utility.yul\":1032:1039   */\n      dup5\n        /* \"#utility.yul\":1023:1029   */\n      dup3\n        /* \"#utility.yul\":1012:1021   */\n      dup6\n        /* \"#utility.yul\":1008:1030   */\n      add\n        /* \"#utility.yul\":987:1040   */\n      tag_40\n      jump\t// in\n    tag_50:\n        /* \"#utility.yul\":977:1040   */\n      swap2\n      pop\n        /* \"#utility.yul\":933:1050   */\n      pop\n        /* \"#utility.yul\":861:1057   */\n      swap3\n      swap2\n      pop\n      pop\n      jump\t// out\n        /* \"#utility.yul\":1063:1438   */\n    tag_23:\n      0x00\n        /* \"#utility.yul\":1181:1183   */\n      0x20\n        /* \"#utility.yul\":1169:1178   */\n      dup3\n        /* \"#utility.yul\":1160:1167   */\n      dup5\n        /* \"#utility.yul\":1156:1179   */\n      sub\n        /* \"#utility.yul\":1152:1184   */\n      slt\n        /* \"#utility.yul\":1149:1151   */\n      iszero\n      tag_52\n      jumpi\n        /* \"#utility.yul\":1197:1198   */\n      0x00\n        /* \"#utility.yul\":1194:1195   */\n      dup1\n        /* \"#utility.yul\":1187:1199   */\n      revert\n        /* \"#utility.yul\":1149:1151   */\n    tag_52:\n        /* \"#utility.yul\":1268:1269   */\n      0x00\n        /* \"#utility.yul\":1257:1266   */\n      dup3\n        /* \"#utility.yul\":1253:1270   */\n      add\n        /* \"#utility.yul\":1240:1271   */\n      calldataload\n        /* \"#utility.yul\":1298:1316   */\n      0xffffffffffffffff\n        /* \"#utility.yul\":1290:1296   */\n      dup2\n        /* \"#utility.yul\":1287:1317   */\n      gt\n        /* \"#utility.yul\":1284:1286   */\n      iszero\n      tag_53\n      jumpi\n        /* \"#utility.yul\":1330:1331   */\n      0x00\n        /* \"#utility.yul\":1327:1328   */\n      dup1\n        /* \"#utility.yul\":1320:1332   */\n      revert\n        /* \"#utility.yul\":1284:1286   */\n    tag_53:\n        /* \"#utility.yul\":1358:1421   */\n      tag_54\n        /* \"#utility.yul\":1413:1420   */\n      dup5\n        /* \"#utility.yul\":1404:1410   */\n      dup3\n        /* \"#utility.yul\":1393:1402   */\n      dup6\n        /* \"#utility.yul\":1389:1411   */\n      add\n        /* \"#utility.yul\":1358:1421   */\n      tag_44\n      jump\t// in\n    tag_54:\n        /* \"#utility.yul\":1348:1421   */\n      swap2\n      pop\n        /* \"#utility.yul\":1211:1431   */\n      pop\n        /* \"#utility.yul\":1139:1438   */\n      swap3\n      swap2\n      pop\n      pop\n      jump\t// out\n        /* \"#utility.yul\":1444:1553   */\n    tag_55:\n        /* \"#utility.yul\":1525:1546   */\n      tag_57\n        /* \"#utility.yul\":1540:1545   */\n      dup2\n        /* \"#utility.yul\":1525:1546   */\n      tag_58\n      jump\t// in\n    tag_57:\n        /* \"#utility.yul\":1520:1523   */\n      dup3\n        /* \"#utility.yul\":1513:1547   */\n      mstore\n        /* \"#utility.yul\":1503:1553   */\n      pop\n      pop\n      jump\t// out\n        /* \"#utility.yul\":1559:1919   */\n    tag_59:\n      0x00\n        /* \"#utility.yul\":1673:1711   */\n      tag_61\n        /* \"#utility.yul\":1705:1710   */\n      dup3\n        /* \"#utility.yul\":1673:1711   */\n      tag_62\n      jump\t// in\n    tag_61:\n        /* \"#utility.yul\":1727:1797   */\n      tag_63\n        /* \"#utility.yul\":1790:1796   */\n      dup2\n        /* \"#utility.yul\":1785:1788   */\n      dup6\n        /* \"#utility.yul\":1727:1797   */\n      tag_64\n      jump\t// in\n    tag_63:\n        /* \"#utility.yul\":1720:1797   */\n      swap4\n      pop\n        /* \"#utility.yul\":1806:1858   */\n      tag_65\n        /* \"#utility.yul\":1851:1857   */\n      dup2\n        /* \"#utility.yul\":1846:1849   */\n      dup6\n        /* \"#utility.yul\":1839:1843   */\n      0x20\n        /* \"#utility.yul\":1832:1837   */\n      dup7\n        /* \"#utility.yul\":1828:1844   */\n      add\n        /* \"#utility.yul\":1806:1858   */\n      tag_66\n      jump\t// in\n    tag_65:\n        /* \"#utility.yul\":1883:1912   */\n      tag_67\n        /* \"#utility.yul\":1905:1911   */\n      dup2\n        /* \"#utility.yul\":1883:1912   */\n      tag_68\n      jump\t// in\n    tag_67:\n        /* \"#utility.yul\":1878:1881   */\n      dup5\n        /* \"#utility.yul\":1874:1913   */\n      add\n        /* \"#utility.yul\":1867:1913   */\n      swap2\n      pop\n        /* \"#utility.yul\":1649:1919   */\n      pop\n      swap3\n      swap2\n      pop\n      pop\n      jump\t// out\n        /* \"#utility.yul\":1925:2135   */\n    tag_14:\n      0x00\n        /* \"#utility.yul\":2050:2052   */\n      0x20\n        /* \"#utility.yul\":2039:2048   */\n      dup3\n        /* \"#utility.yul\":2035:2053   */\n      add\n        /* \"#utility.yul\":2027:2053   */\n      swap1\n      pop\n        /* \"#utility.yul\":2063:2128   */\n      tag_70\n        /* \"#utility.yul\":2125:2126   */\n      0x00\n        /* \"#utility.yul\":2114:2123   */\n      dup4\n        /* \"#utility.yul\":2110:2127   */\n      add\n        /* \"#utility.yul\":2101:2107   */\n      dup5\n        /* \"#utility.yul\":2063:2128   */\n      tag_55\n      jump\t// in\n    tag_70:\n        /* \"#utility.yul\":2017:2135   */\n      swap3\n      swap2\n      pop\n      pop\n      jump\t// out\n        /* \"#utility.yul\":2141:2450   */\n    tag_26:\n      0x00\n        /* \"#utility.yul\":2290:2292   */\n      0x20\n        /* \"#utility.yul\":2279:2288   */\n      dup3\n        /* \"#utility.yul\":2275:2293   */\n      add\n        /* \"#utility.yul\":2267:2293   */\n      swap1\n      pop\n        /* \"#utility.yul\":2339:2348   */\n      dup2\n        /* \"#utility.yul\":2333:2337   */\n      dup2\n        /* \"#utility.yul\":2329:2349   */\n      sub\n        /* \"#utility.yul\":2325:2326   */\n      0x00\n        /* \"#utility.yul\":2314:2323   */\n      dup4\n        /* \"#utility.yul\":2310:2327   */\n      add\n        /* \"#utility.yul\":2303:2350   */\n      mstore\n        /* \"#utility.yul\":2367:2443   */\n      tag_72\n        /* \"#utility.yul\":2438:2442   */\n      dup2\n        /* \"#utility.yul\":2429:2435   */\n      dup5\n        /* \"#utility.yul\":2367:2443   */\n      tag_59\n      jump\t// in\n    tag_72:\n        /* \"#utility.yul\":2359:2443   */\n      swap1\n      pop\n        /* \"#utility.yul\":2257:2450   */\n      swap3\n      swap2\n      pop\n      pop\n      jump\t// out\n        /* \"#utility.yul\":2456:2739   */\n    tag_36:\n      0x00\n        /* \"#utility.yul\":2522:2524   */\n      0x40\n        /* \"#utility.yul\":2516:2525   */\n      mload\n        /* \"#utility.yul\":2506:2525   */\n      swap1\n      pop\n        /* \"#utility.yul\":2564:2568   */\n      dup2\n        /* \"#utility.yul\":2556:2562   */\n      dup2\n        /* \"#utility.yul\":2552:2569   */\n      add\n        /* \"#utility.yul\":2671:2677   */\n      dup2\n        /* \"#utility.yul\":2659:2669   */\n      dup2\n        /* \"#utility.yul\":2656:2678   */\n      lt\n        /* \"#utility.yul\":2635:2653   */\n      0xffffffffffffffff\n        /* \"#utility.yul\":2623:2633   */\n      dup3\n        /* \"#utility.yul\":2620:2654   */\n      gt\n        /* \"#utility.yul\":2617:2679   */\n      or\n        /* \"#utility.yul\":2614:2616   */\n      iszero\n      tag_74\n      jumpi\n        /* \"#utility.yul\":2682:2700   */\n      tag_75\n      tag_76\n      jump\t// in\n    tag_75:\n        /* \"#utility.yul\":2614:2616   */\n    tag_74:\n        /* \"#utility.yul\":2722:2732   */\n      dup1\n        /* \"#utility.yul\":2718:2720   */\n      0x40\n        /* \"#utility.yul\":2711:2733   */\n      mstore\n        /* \"#utility.yul\":2496:2739   */\n      pop\n      swap2\n      swap1\n      pop\n      jump\t// out\n        /* \"#utility.yul\":2745:3077   */\n    tag_35:\n      0x00\n        /* \"#utility.yul\":2897:2915   */\n      0xffffffffffffffff\n        /* \"#utility.yul\":2889:2895   */\n      dup3\n        /* \"#utility.yul\":2886:2916   */\n      gt\n        /* \"#utility.yul\":2883:2885   */\n      iszero\n      tag_78\n      jumpi\n        /* \"#utility.yul\":2919:2937   */\n      tag_79\n      tag_76\n      jump\t// in\n    tag_79:\n        /* \"#utility.yul\":2883:2885   */\n    tag_78:\n        /* \"#utility.yul\":3004:3008   */\n      0x1f\n        /* \"#utility.yul\":3000:3009   */\n      not\n        /* \"#utility.yul\":2993:2997   */\n      0x1f\n        /* \"#utility.yul\":2985:2991   */\n      dup4\n        /* \"#utility.yul\":2981:2998   */\n      add\n        /* \"#utility.yul\":2977:3010   */\n      and\n        /* \"#utility.yul\":2969:3010   */\n      swap1\n      pop\n        /* \"#utility.yul\":3065:3069   */\n      0x20\n        /* \"#utility.yul\":3059:3063   */\n      dup2\n        /* \"#utility.yul\":3055:3070   */\n      add\n        /* \"#utility.yul\":3047:3070   */\n      swap1\n      pop\n        /* \"#utility.yul\":2812:3077   */\n      swap2\n      swap1\n      pop\n      jump\t// out\n        /* \"#utility.yul\":3083:3181   */\n    tag_62:\n      0x00\n        /* \"#utility.yul\":3168:3173   */\n      dup2\n        /* \"#utility.yul\":3162:3174   */\n      mload\n        /* \"#utility.yul\":3152:3174   */\n      swap1\n      pop\n        /* \"#utility.yul\":3141:3181   */\n      swap2\n      swap1\n      pop\n      jump\t// out\n        /* \"#utility.yul\":3187:3355   */\n    tag_64:\n      0x00\n        /* \"#utility.yul\":3304:3310   */\n      dup3\n        /* \"#utility.yul\":3299:3302   */\n      dup3\n        /* \"#utility.yul\":3292:3311   */\n      mstore\n        /* \"#utility.yul\":3344:3348   */\n      0x20\n        /* \"#utility.yul\":3339:3342   */\n      dup3\n        /* \"#utility.yul\":3335:3349   */\n      add\n        /* \"#utility.yul\":3320:3349   */\n      swap1\n      pop\n        /* \"#utility.yul\":3282:3355   */\n      swap3\n      swap2\n      pop\n      pop\n      jump\t// out\n        /* \"#utility.yul\":3361:3457   */\n    tag_82:\n      0x00\n        /* \"#utility.yul\":3427:3451   */\n      tag_84\n        /* \"#utility.yul\":3445:3450   */\n      dup3\n        /* \"#utility.yul\":3427:3451   */\n      tag_85\n      jump\t// in\n    tag_84:\n        /* \"#utility.yul\":3416:3451   */\n      swap1\n      pop\n        /* \"#utility.yul\":3406:3457   */\n      swap2\n      swap1\n      pop\n      jump\t// out\n        /* \"#utility.yul\":3463:3553   */\n    tag_58:\n      0x00\n        /* \"#utility.yul\":3540:3545   */\n      dup2\n        /* \"#utility.yul\":3533:3546   */\n      iszero\n        /* \"#utility.yul\":3526:3547   */\n      iszero\n        /* \"#utility.yul\":3515:3547   */\n      swap1\n      pop\n        /* \"#utility.yul\":3505:3553   */\n      swap2\n      swap1\n      pop\n      jump\t// out\n        /* \"#utility.yul\":3559:3685   */\n    tag_85:\n      0x00\n        /* \"#utility.yul\":3636:3678   */\n      0xffffffffffffffffffffffffffffffffffffffff\n        /* \"#utility.yul\":3629:3634   */\n      dup3\n        /* \"#utility.yul\":3625:3679   */\n      and\n        /* \"#utility.yul\":3614:3679   */\n      swap1\n      pop\n        /* \"#utility.yul\":3604:3685   */\n      swap2\n      swap1\n      pop\n      jump\t// out\n        /* \"#utility.yul\":3691:3845   */\n    tag_39:\n        /* \"#utility.yul\":3775:3781   */\n      dup3\n        /* \"#utility.yul\":3770:3773   */\n      dup2\n        /* \"#utility.yul\":3765:3768   */\n      dup4\n        /* \"#utility.yul\":3752:3782   */\n      calldatacopy\n        /* \"#utility.yul\":3837:3838   */\n      0x00\n        /* \"#utility.yul\":3828:3834   */\n      dup4\n        /* \"#utility.yul\":3823:3826   */\n      dup4\n        /* \"#utility.yul\":3819:3835   */\n      add\n        /* \"#utility.yul\":3812:3839   */\n      mstore\n        /* \"#utility.yul\":3742:3845   */\n      pop\n      pop\n      pop\n      jump\t// out\n        /* \"#utility.yul\":3851:4158   */\n    tag_66:\n        /* \"#utility.yul\":3919:3920   */\n      0x00\n        /* \"#utility.yul\":3929:4042   */\n    tag_90:\n        /* \"#utility.yul\":3943:3949   */\n      dup4\n        /* \"#utility.yul\":3940:3941   */\n      dup2\n        /* \"#utility.yul\":3937:3950   */\n      lt\n        /* \"#utility.yul\":3929:4042   */\n      iszero\n      tag_92\n      jumpi\n        /* \"#utility.yul\":4028:4029   */\n      dup1\n        /* \"#utility.yul\":4023:4026   */\n      dup3\n        /* \"#utility.yul\":4019:4030   */\n      add\n        /* \"#utility.yul\":4013:4031   */\n      mload\n        /* \"#utility.yul\":4009:4010   */\n      dup2\n        /* \"#utility.yul\":4004:4007   */\n      dup5\n        /* \"#utility.yul\":4000:4011   */\n      add\n        /* \"#utility.yul\":3993:4032   */\n      mstore\n        /* \"#utility.yul\":3965:3967   */\n      0x20\n        /* \"#utility.yul\":3962:3963   */\n      dup2\n        /* \"#utility.yul\":3958:3968   */\n      add\n        /* \"#utility.yul\":3953:3968   */\n      swap1\n      pop\n        /* \"#utility.yul\":3929:4042   */\n      jump(tag_90)\n    tag_92:\n        /* \"#utility.yul\":4060:4066   */\n      dup4\n        /* \"#utility.yul\":4057:4058   */\n      dup2\n        /* \"#utility.yul\":4054:4067   */\n      gt\n        /* \"#utility.yul\":4051:4053   */\n      iszero\n      tag_93\n      jumpi\n        /* \"#utility.yul\":4140:4141   */\n      0x00\n        /* \"#utility.yul\":4131:4137   */\n      dup5\n        /* \"#utility.yul\":4126:4129   */\n      dup5\n        /* \"#utility.yul\":4122:4138   */\n      add\n        /* \"#utility.yul\":4115:4142   */\n      mstore\n        /* \"#utility.yul\":4051:4053   */\n    tag_93:\n        /* \"#utility.yul\":3900:4158   */\n      pop\n      pop\n      pop\n      pop\n      jump\t// out\n        /* \"#utility.yul\":4164:4344   */\n    tag_76:\n        /* \"#utility.yul\":4212:4289   */\n      0x4e487b7100000000000000000000000000000000000000000000000000000000\n        /* \"#utility.yul\":4209:4210   */\n      0x00\n        /* \"#utility.yul\":4202:4290   */\n      mstore\n        /* \"#utility.yul\":4309:4313   */\n      0x41\n        /* \"#utility.yul\":4306:4307   */\n      0x04\n        /* \"#utility.yul\":4299:4314   */\n      mstore\n        /* \"#utility.yul\":4333:4337   */\n      0x24\n        /* \"#utility.yul\":4330:4331   */\n      0x00\n        /* \"#utility.yul\":4323:4338   */\n      revert\n        /* \"#utility.yul\":4350:4452   */\n    tag_68:\n      0x00\n        /* \"#utility.yul\":4442:4444   */\n      0x1f\n        /* \"#utility.yul\":4438:4445   */\n      not\n        /* \"#utility.yul\":4433:4435   */\n      0x1f\n        /* \"#utility.yul\":4426:4431   */\n      dup4\n        /* \"#utility.yul\":4422:4436   */\n      add\n        /* \"#utility.yul\":4418:4446   */\n      and\n        /* \"#utility.yul\":4408:4446   */\n      swap1\n      pop\n        /* \"#utility.yul\":4398:4452   */\n      swap2\n      swap1\n      pop\n      jump\t// out\n        /* \"#utility.yul\":4458:4580   */\n    tag_43:\n        /* \"#utility.yul\":4531:4555   */\n      tag_97\n        /* \"#utility.yul\":4549:4554   */\n      dup2\n        /* \"#utility.yul\":4531:4555   */\n      tag_82\n      jump\t// in\n    tag_97:\n        /* \"#utility.yul\":4524:4529   */\n      dup2\n        /* \"#utility.yul\":4521:4556   */\n      eq\n        /* \"#utility.yul\":4511:4513   */\n      tag_98\n      jumpi\n        /* \"#utility.yul\":4570:4571   */\n      0x00\n        /* \"#utility.yul\":4567:4568   */\n      dup1\n        /* \"#utility.yul\":4560:4572   */\n      revert\n        /* \"#utility.yul\":4511:4513   */\n    tag_98:\n        /* \"#utility.yul\":4501:4580   */\n      pop\n      jump\t// out\n\n    auxdata: 0xa2646970667358221220197f5f5f8268a34e9979bc630a59a40e07dd667b43b176920f34280871ceb5f164736f6c63430008000033\n}\n",
				"bytecode": {
					"linkReferences": {},
					"object": "60806040526000805534801561001457600080fd5b506103e0806100246000396000f3fe6080604052600436106100385760003560e01c8063266f7e9a146100415780633a3d07881461006c578063bc6d0577146100955761003f565b3661003f57005b005b34801561004d57600080fd5b506100566100d2565b6040516100639190610219565b60405180910390f35b34801561007857600080fd5b50610093600480360381019061008e9190610167565b6100d7565b005b3480156100a157600080fd5b506100bc60048036038101906100b79190610190565b6100da565b6040516100c99190610234565b60405180910390f35b600090565b50565b6060600082905080915050919050565b60006100fd6100f884610287565b610256565b90508281526020810184848401111561011557600080fd5b610120848285610311565b509392505050565b60008135905061013781610393565b92915050565b600082601f83011261014e57600080fd5b813561015e8482602086016100ea565b91505092915050565b60006020828403121561017957600080fd5b600061018784828501610128565b91505092915050565b6000602082840312156101a257600080fd5b600082013567ffffffffffffffff8111156101bc57600080fd5b6101c88482850161013d565b91505092915050565b6101da816102e5565b82525050565b60006101eb826102b7565b6101f581856102c2565b9350610205818560208601610320565b61020e81610382565b840191505092915050565b600060208201905061022e60008301846101d1565b92915050565b6000602082019050818103600083015261024e81846101e0565b905092915050565b6000604051905081810181811067ffffffffffffffff8211171561027d5761027c610353565b5b8060405250919050565b600067ffffffffffffffff8211156102a2576102a1610353565b5b601f19601f8301169050602081019050919050565b600081519050919050565b600082825260208201905092915050565b60006102de826102f1565b9050919050565b60008115159050919050565b600073ffffffffffffffffffffffffffffffffffffffff82169050919050565b82818337600083830152505050565b60005b8381101561033e578082015181840152602081019050610323565b8381111561034d576000848401525b50505050565b7f4e487b7100000000000000000000000000000000000000000000000000000000600052604160045260246000fd5b6000601f19601f8301169050919050565b61039c816102d3565b81146103a757600080fd5b5056fea2646970667358221220197f5f5f8268a34e9979bc630a59a40e07dd667b43b176920f34280871ceb5f164736f6c63430008000033",
					"opcodes": "PUSH1 0x80 PUSH1 0x40 MSTORE PUSH1 0x0 DUP1 SSTORE CALLVALUE DUP1 ISZERO PUSH2 0x14 JUMPI PUSH1 0x0 DUP1 REVERT JUMPDEST POP PUSH2 0x3E0 DUP1 PUSH2 0x24 PUSH1 0x0 CODECOPY PUSH1 0x0 RETURN INVALID PUSH1 0x80 PUSH1 0x40 MSTORE PUSH1 0x4 CALLDATASIZE LT PUSH2 0x38 JUMPI PUSH1 0x0 CALLDATALOAD PUSH1 0xE0 SHR DUP1 PUSH4 0x266F7E9A EQ PUSH2 0x41 JUMPI DUP1 PUSH4 0x3A3D0788 EQ PUSH2 0x6C JUMPI DUP1 PUSH4 0xBC6D0577 EQ PUSH2 0x95 JUMPI PUSH2 0x3F JUMP JUMPDEST CALLDATASIZE PUSH2 0x3F JUMPI STOP JUMPDEST STOP JUMPDEST CALLVALUE DUP1 ISZERO PUSH2 0x4D JUMPI PUSH1 0x0 DUP1 REVERT JUMPDEST POP PUSH2 0x56 PUSH2 0xD2 JUMP JUMPDEST PUSH1 0x40 MLOAD PUSH2 0x63 SWAP2 SWAP1 PUSH2 0x219 JUMP JUMPDEST PUSH1 0x40 MLOAD DUP1 SWAP2 SUB SWAP1 RETURN JUMPDEST CALLVALUE DUP1 ISZERO PUSH2 0x78 JUMPI PUSH1 0x0 DUP1 REVERT JUMPDEST POP PUSH2 0x93 PUSH1 0x4 DUP1 CALLDATASIZE SUB DUP2 ADD SWAP1 PUSH2 0x8E SWAP2 SWAP1 PUSH2 0x167 JUMP JUMPDEST PUSH2 0xD7 JUMP JUMPDEST STOP JUMPDEST CALLVALUE DUP1 ISZERO PUSH2 0xA1 JUMPI PUSH1 0x0 DUP1 REVERT JUMPDEST POP PUSH2 0xBC PUSH1 0x4 DUP1 CALLDATASIZE SUB DUP2 ADD SWAP1 PUSH2 0xB7 SWAP2 SWAP1 PUSH2 0x190 JUMP JUMPDEST PUSH2 0xDA JUMP JUMPDEST PUSH1 0x40 MLOAD PUSH2 0xC9 SWAP2 SWAP1 PUSH2 0x234 JUMP JUMPDEST PUSH1 0x40 MLOAD DUP1 SWAP2 SUB SWAP1 RETURN JUMPDEST PUSH1 0x0 SWAP1 JUMP JUMPDEST POP JUMP JUMPDEST PUSH1 0x60 PUSH1 0x0 DUP3 SWAP1 POP DUP1 SWAP2 POP POP SWAP2 SWAP1 POP JUMP JUMPDEST PUSH1 0x0 PUSH2 0xFD PUSH2 0xF8 DUP5 PUSH2 0x287 JUMP JUMPDEST PUSH2 0x256 JUMP JUMPDEST SWAP1 POP DUP3 DUP2 MSTORE PUSH1 0x20 DUP2 ADD DUP5 DUP5 DUP5 ADD GT ISZERO PUSH2 0x115 JUMPI PUSH1 0x0 DUP1 REVERT JUMPDEST PUSH2 0x120 DUP5 DUP3 DUP6 PUSH2 0x311 JUMP JUMPDEST POP SWAP4 SWAP3 POP POP POP JUMP JUMPDEST PUSH1 0x0 DUP2 CALLDATALOAD SWAP1 POP PUSH2 0x137 DUP2 PUSH2 0x393 JUMP JUMPDEST SWAP3 SWAP2 POP POP JUMP JUMPDEST PUSH1 0x0 DUP3 PUSH1 0x1F DUP4 ADD SLT PUSH2 0x14E JUMPI PUSH1 0x0 DUP1 REVERT JUMPDEST DUP2 CALLDATALOAD PUSH2 0x15E DUP5 DUP3 PUSH1 0x20 DUP7 ADD PUSH2 0xEA JUMP JUMPDEST SWAP2 POP POP SWAP3 SWAP2 POP POP JUMP JUMPDEST PUSH1 0x0 PUSH1 0x20 DUP3 DUP5 SUB SLT ISZERO PUSH2 0x179 JUMPI PUSH1 0x0 DUP1 REVERT JUMPDEST PUSH1 0x0 PUSH2 0x187 DUP5 DUP3 DUP6 ADD PUSH2 0x128 JUMP JUMPDEST SWAP2 POP POP SWAP3 SWAP2 POP POP JUMP JUMPDEST PUSH1 0x0 PUSH1 0x20 DUP3 DUP5 SUB SLT ISZERO PUSH2 0x1A2 JUMPI PUSH1 0x0 DUP1 REVERT JUMPDEST PUSH1 0x0 DUP3 ADD CALLDATALOAD PUSH8 0xFFFFFFFFFFFFFFFF DUP2 GT ISZERO PUSH2 0x1BC JUMPI PUSH1 0x0 DUP1 REVERT JUMPDEST PUSH2 0x1C8 DUP5 DUP3 DUP6 ADD PUSH2 0x13D JUMP JUMPDEST SWAP2 POP POP SWAP3 SWAP2 POP POP JUMP JUMPDEST PUSH2 0x1DA DUP2 PUSH2 0x2E5 JUMP JUMPDEST DUP3 MSTORE POP POP JUMP JUMPDEST PUSH1 0x0 PUSH2 0x1EB DUP3 PUSH2 0x2B7 JUMP JUMPDEST PUSH2 0x1F5 DUP2 DUP6 PUSH2 0x2C2 JUMP JUMPDEST SWAP4 POP PUSH2 0x205 DUP2 DUP6 PUSH1 0x20 DUP7 ADD PUSH2 0x320 JUMP JUMPDEST PUSH2 0x20E DUP2 PUSH2 0x382 JUMP JUMPDEST DUP5 ADD SWAP2 POP POP SWAP3 SWAP2 POP POP JUMP JUMPDEST PUSH1 0x0 PUSH1 0x20 DUP3 ADD SWAP1 POP PUSH2 0x22E PUSH1 0x0 DUP4 ADD DUP5 PUSH2 0x1D1 JUMP JUMPDEST SWAP3 SWAP2 POP POP JUMP JUMPDEST PUSH1 0x0 PUSH1 0x20 DUP3 ADD SWAP1 POP DUP2 DUP2 SUB PUSH1 0x0 DUP4 ADD MSTORE PUSH2 0x24E DUP2 DUP5 PUSH2 0x1E0 JUMP JUMPDEST SWAP1 POP SWAP3 SWAP2 POP POP JUMP JUMPDEST PUSH1 0x0 PUSH1 0x40 MLOAD SWAP1 POP DUP2 DUP2 ADD DUP2 DUP2 LT PUSH8 0xFFFFFFFFFFFFFFFF DUP3 GT OR ISZERO PUSH2 0x27D JUMPI PUSH2 0x27C PUSH2 0x353 JUMP JUMPDEST JUMPDEST DUP1 PUSH1 0x40 MSTORE POP SWAP2 SWAP1 POP JUMP JUMPDEST PUSH1 0x0 PUSH8 0xFFFFFFFFFFFFFFFF DUP3 GT ISZERO PUSH2 0x2A2 JUMPI PUSH2 0x2A1 PUSH2 0x353 JUMP JUMPDEST JUMPDEST PUSH1 0x1F NOT PUSH1 0x1F DUP4 ADD AND SWAP1 POP PUSH1 0x20 DUP2 ADD SWAP1 POP SWAP2 SWAP1 POP JUMP JUMPDEST PUSH1 0x0 DUP2 MLOAD SWAP1 POP SWAP2 SWAP1 POP JUMP JUMPDEST PUSH1 0x0 DUP3 DUP3 MSTORE PUSH1 0x20 DUP3 ADD SWAP1 POP SWAP3 SWAP2 POP POP JUMP JUMPDEST PUSH1 0x0 PUSH2 0x2DE DUP3 PUSH2 0x2F1 JUMP JUMPDEST SWAP1 POP SWAP2 SWAP1 POP JUMP JUMPDEST PUSH1 0x0 DUP2 ISZERO ISZERO SWAP1 POP SWAP2 SWAP1 POP JUMP JUMPDEST PUSH1 0x0 PUSH20 0xFFFFFFFFFFFFFFFFFFFFFFFFFFFFFFFFFFFFFFFF DUP3 AND SWAP1 POP SWAP2 SWAP1 POP JUMP JUMPDEST DUP3 DUP2 DUP4 CALLDATACOPY PUSH1 0x0 DUP4 DUP4 ADD MSTORE POP POP POP JUMP JUMPDEST PUSH1 0x0 JUMPDEST DUP4 DUP2 LT ISZERO PUSH2 0x33E JUMPI DUP1 DUP3 ADD MLOAD DUP2 DUP5 ADD MSTORE PUSH1 0x20 DUP2 ADD SWAP1 POP PUSH2 0x323 JUMP JUMPDEST DUP4 DUP2 GT ISZERO PUSH2 0x34D JUMPI PUSH1 0x0 DUP5 DUP5 ADD MSTORE JUMPDEST POP POP POP POP JUMP JUMPDEST PUSH32 0x4E487B7100000000000000000000000000000000000000000000000000000000 PUSH1 0x0 MSTORE PUSH1 0x41 PUSH1 0x4 MSTORE PUSH1 0x24 PUSH1 0x0 REVERT JUMPDEST PUSH1 0x0 PUSH1 0x1F NOT PUSH1 0x1F DUP4 ADD AND SWAP1 POP SWAP2 SWAP1 POP JUMP JUMPDEST PUSH2 0x39C DUP2 PUSH2 0x2D3 JUMP JUMPDEST DUP2 EQ PUSH2 0x3A7 JUMPI PUSH1 0x0 DUP1 REVERT JUMPDEST POP JUMP INVALID LOG2 PUSH5 0x6970667358 0x22 SLT KECCAK256 NOT PUSH32 0x5F5F8268A34E9979BC630A59A40E07DD667B43B176920F34280871CEB5F16473 PUSH16 0x6C634300080000330000000000000000 "
				},
				"gasEstimates": {
					"creation": {
						"codeDepositCost": "198400",
						"executionCost": "5244",
						"totalCost": "203644"
					},
					"external": {
						"": "129",
						"AppealforFund()": "313",
						"getstatus(address)": "455",
						"string_tobytes(string)": "infinite"
					}
				},
				"methodIdentifiers": {
					"AppealforFund()": "266f7e9a",
					"getstatus(address)": "3a3d0788",
					"string_tobytes(string)": "bc6d0577"
				}
			},
			"userdoc": {
				"kind": "user",
				"methods": {},
				"version": 1
			}
		}
	}
}