{
	"treasury.sol": {
		"Treasury": {
			"abi": [
				{
					"stateMutability": "payable",
					"type": "fallback"
				},
				{
					"inputs": [
						{
							"internalType": "uint256",
							"name": "_a",
							"type": "uint256"
						}
					],
					"name": "AppealforFund",
					"outputs": [
						{
							"internalType": "bool",
							"name": "",
							"type": "bool"
						}
					],
					"stateMutability": "nonpayable",
					"type": "function"
				},
				{
					"inputs": [
						{
							"internalType": "address",
							"name": "applier",
							"type": "address"
						}
					],
					"name": "getstatus",
					"outputs": [],
					"stateMutability": "view",
					"type": "function"
				},
				{
					"inputs": [
						{
							"internalType": "string",
							"name": "_purpose",
							"type": "string"
						}
					],
					"name": "string_tobytes",
					"outputs": [
						{
							"internalType": "bytes",
							"name": "",
							"type": "bytes"
						}
					],
					"stateMutability": "pure",
					"type": "function"
				},
				{
					"stateMutability": "payable",
					"type": "receive"
				}
			],
			"devdoc": {
				"kind": "dev",
				"methods": {},
				"version": 1
			},
			"evm": {
				"assembly": "    /* \"treasury.sol\":93:1654  contract Treasury is Itreasury {... */\n  mstore(0x40, 0x80)\n    /* \"treasury.sol\":898:899  0 */\n  0x00\n    /* \"treasury.sol\":875:899  uint number_of_Appeals=0 */\n  dup1\n  sstore\n    /* \"treasury.sol\":93:1654  contract Treasury is Itreasury {... */\n  callvalue\n  dup1\n  iszero\n  tag_1\n  jumpi\n  0x00\n  dup1\n  revert\ntag_1:\n  pop\n  dataSize(sub_0)\n  dup1\n  dataOffset(sub_0)\n  0x00\n  codecopy\n  0x00\n  return\nstop\n\nsub_0: assembly {\n        /* \"treasury.sol\":93:1654  contract Treasury is Itreasury {... */\n      mstore(0x40, 0x80)\n      jumpi(tag_1, lt(calldatasize, 0x04))\n      shr(0xe0, calldataload(0x00))\n      dup1\n      0x3a3d0788\n      eq\n      tag_3\n      jumpi\n      dup1\n      0x7069b3e5\n      eq\n      tag_4\n      jumpi\n      dup1\n      0xbc6d0577\n      eq\n      tag_5\n      jumpi\n      jump(tag_2)\n    tag_1:\n      jumpi(tag_2, calldatasize)\n      stop\n    tag_2:\n      stop\n        /* \"treasury.sol\":1581:1651  function getstatus(address applier) external view override{... */\n    tag_3:\n      callvalue\n      dup1\n      iszero\n      tag_10\n      jumpi\n      0x00\n      dup1\n      revert\n    tag_10:\n      pop\n      tag_11\n      0x04\n      dup1\n      calldatasize\n      sub\n      dup2\n      add\n      swap1\n      tag_12\n      swap2\n      swap1\n      tag_13\n      jump\t// in\n    tag_12:\n      tag_14\n      jump\t// in\n    tag_11:\n      stop\n        /* \"treasury.sol\":1041:1103  function AppealforFund(uint _a) external returns(bool){... */\n    tag_4:\n      callvalue\n      dup1\n      iszero\n      tag_15\n      jumpi\n      0x00\n      dup1\n      revert\n    tag_15:\n      pop\n      tag_16\n      0x04\n      dup1\n      calldatasize\n      sub\n      dup2\n      add\n      swap1\n      tag_17\n      swap2\n      swap1\n      tag_18\n      jump\t// in\n    tag_17:\n      tag_19\n      jump\t// in\n    tag_16:\n      mload(0x40)\n      tag_20\n      swap2\n      swap1\n      tag_21\n      jump\t// in\n    tag_20:\n      mload(0x40)\n      dup1\n      swap2\n      sub\n      swap1\n      return\n        /* \"treasury.sol\":1167:1332  function string_tobytes( string memory _purpose) public pure returns (bytes memory){... */\n    tag_5:\n      callvalue\n      dup1\n      iszero\n      tag_22\n      jumpi\n      0x00\n      dup1\n      revert\n    tag_22:\n      pop\n      tag_23\n      0x04\n      dup1\n      calldatasize\n      sub\n      dup2\n      add\n      swap1\n      tag_24\n      swap2\n      swap1\n      tag_25\n      jump\t// in\n    tag_24:\n      tag_26\n      jump\t// in\n    tag_23:\n      mload(0x40)\n      tag_27\n      swap2\n      swap1\n      tag_28\n      jump\t// in\n    tag_27:\n      mload(0x40)\n      dup1\n      swap2\n      sub\n      swap1\n      return\n        /* \"treasury.sol\":1581:1651  function getstatus(address applier) external view override{... */\n    tag_14:\n      pop\n      jump\t// out\n        /* \"treasury.sol\":1041:1103  function AppealforFund(uint _a) external returns(bool){... */\n    tag_19:\n        /* \"treasury.sol\":1090:1094  bool */\n      0x00\n        /* \"treasury.sol\":1041:1103  function AppealforFund(uint _a) external returns(bool){... */\n      swap2\n      swap1\n      pop\n      jump\t// out\n        /* \"treasury.sol\":1167:1332  function string_tobytes( string memory _purpose) public pure returns (bytes memory){... */\n    tag_26:\n        /* \"treasury.sol\":1237:1249  bytes memory */\n      0x60\n        /* \"treasury.sol\":1260:1279  bytes memory result */\n      0x00\n        /* \"treasury.sol\":1288:1296  _purpose */\n      dup3\n        /* \"treasury.sol\":1260:1297  bytes memory result = bytes(_purpose) */\n      swap1\n      pop\n        /* \"treasury.sol\":1314:1320  result */\n      dup1\n        /* \"treasury.sol\":1307:1320  return result */\n      swap2\n      pop\n      pop\n        /* \"treasury.sol\":1167:1332  function string_tobytes( string memory _purpose) public pure returns (bytes memory){... */\n      swap2\n      swap1\n      pop\n      jump\t// out\n        /* \"#utility.yul\":7:351   */\n    tag_33:\n      0x00\n        /* \"#utility.yul\":110:175   */\n      tag_35\n        /* \"#utility.yul\":125:174   */\n      tag_36\n        /* \"#utility.yul\":167:173   */\n      dup5\n        /* \"#utility.yul\":125:174   */\n      tag_37\n      jump\t// in\n    tag_36:\n        /* \"#utility.yul\":110:175   */\n      tag_38\n      jump\t// in\n    tag_35:\n        /* \"#utility.yul\":101:175   */\n      swap1\n      pop\n        /* \"#utility.yul\":198:204   */\n      dup3\n        /* \"#utility.yul\":191:196   */\n      dup2\n        /* \"#utility.yul\":184:205   */\n      mstore\n        /* \"#utility.yul\":236:240   */\n      0x20\n        /* \"#utility.yul\":229:234   */\n      dup2\n        /* \"#utility.yul\":225:241   */\n      add\n        /* \"#utility.yul\":274:277   */\n      dup5\n        /* \"#utility.yul\":265:271   */\n      dup5\n        /* \"#utility.yul\":260:263   */\n      dup5\n        /* \"#utility.yul\":256:272   */\n      add\n        /* \"#utility.yul\":253:278   */\n      gt\n        /* \"#utility.yul\":250:252   */\n      iszero\n      tag_39\n      jumpi\n        /* \"#utility.yul\":291:292   */\n      0x00\n        /* \"#utility.yul\":288:289   */\n      dup1\n        /* \"#utility.yul\":281:293   */\n      revert\n        /* \"#utility.yul\":250:252   */\n    tag_39:\n        /* \"#utility.yul\":304:345   */\n      tag_40\n        /* \"#utility.yul\":338:344   */\n      dup5\n        /* \"#utility.yul\":333:336   */\n      dup3\n        /* \"#utility.yul\":328:331   */\n      dup6\n        /* \"#utility.yul\":304:345   */\n      tag_41\n      jump\t// in\n    tag_40:\n        /* \"#utility.yul\":91:351   */\n      pop\n      swap4\n      swap3\n      pop\n      pop\n      pop\n      jump\t// out\n        /* \"#utility.yul\":357:496   */\n    tag_42:\n      0x00\n        /* \"#utility.yul\":441:447   */\n      dup2\n        /* \"#utility.yul\":428:448   */\n      calldataload\n        /* \"#utility.yul\":419:448   */\n      swap1\n      pop\n        /* \"#utility.yul\":457:490   */\n      tag_44\n        /* \"#utility.yul\":484:489   */\n      dup2\n        /* \"#utility.yul\":457:490   */\n      tag_45\n      jump\t// in\n    tag_44:\n        /* \"#utility.yul\":409:496   */\n      swap3\n      swap2\n      pop\n      pop\n      jump\t// out\n        /* \"#utility.yul\":516:789   */\n    tag_46:\n      0x00\n        /* \"#utility.yul\":621:624   */\n      dup3\n        /* \"#utility.yul\":614:618   */\n      0x1f\n        /* \"#utility.yul\":606:612   */\n      dup4\n        /* \"#utility.yul\":602:619   */\n      add\n        /* \"#utility.yul\":598:625   */\n      slt\n        /* \"#utility.yul\":588:590   */\n      tag_48\n      jumpi\n        /* \"#utility.yul\":639:640   */\n      0x00\n        /* \"#utility.yul\":636:637   */\n      dup1\n        /* \"#utility.yul\":629:641   */\n      revert\n        /* \"#utility.yul\":588:590   */\n    tag_48:\n        /* \"#utility.yul\":679:685   */\n      dup2\n        /* \"#utility.yul\":666:686   */\n      calldataload\n        /* \"#utility.yul\":704:783   */\n      tag_49\n        /* \"#utility.yul\":779:782   */\n      dup5\n        /* \"#utility.yul\":771:777   */\n      dup3\n        /* \"#utility.yul\":764:768   */\n      0x20\n        /* \"#utility.yul\":756:762   */\n      dup7\n        /* \"#utility.yul\":752:769   */\n      add\n        /* \"#utility.yul\":704:783   */\n      tag_33\n      jump\t// in\n    tag_49:\n        /* \"#utility.yul\":695:783   */\n      swap2\n      pop\n        /* \"#utility.yul\":578:789   */\n      pop\n      swap3\n      swap2\n      pop\n      pop\n      jump\t// out\n        /* \"#utility.yul\":795:934   */\n    tag_50:\n      0x00\n        /* \"#utility.yul\":879:885   */\n      dup2\n        /* \"#utility.yul\":866:886   */\n      calldataload\n        /* \"#utility.yul\":857:886   */\n      swap1\n      pop\n        /* \"#utility.yul\":895:928   */\n      tag_52\n        /* \"#utility.yul\":922:927   */\n      dup2\n        /* \"#utility.yul\":895:928   */\n      tag_53\n      jump\t// in\n    tag_52:\n        /* \"#utility.yul\":847:934   */\n      swap3\n      swap2\n      pop\n      pop\n      jump\t// out\n        /* \"#utility.yul\":940:1202   */\n    tag_13:\n      0x00\n        /* \"#utility.yul\":1048:1050   */\n      0x20\n        /* \"#utility.yul\":1036:1045   */\n      dup3\n        /* \"#utility.yul\":1027:1034   */\n      dup5\n        /* \"#utility.yul\":1023:1046   */\n      sub\n        /* \"#utility.yul\":1019:1051   */\n      slt\n        /* \"#utility.yul\":1016:1018   */\n      iszero\n      tag_55\n      jumpi\n        /* \"#utility.yul\":1064:1065   */\n      0x00\n        /* \"#utility.yul\":1061:1062   */\n      dup1\n        /* \"#utility.yul\":1054:1066   */\n      revert\n        /* \"#utility.yul\":1016:1018   */\n    tag_55:\n        /* \"#utility.yul\":1107:1108   */\n      0x00\n        /* \"#utility.yul\":1132:1185   */\n      tag_56\n        /* \"#utility.yul\":1177:1184   */\n      dup5\n        /* \"#utility.yul\":1168:1174   */\n      dup3\n        /* \"#utility.yul\":1157:1166   */\n      dup6\n        /* \"#utility.yul\":1153:1175   */\n      add\n        /* \"#utility.yul\":1132:1185   */\n      tag_42\n      jump\t// in\n    tag_56:\n        /* \"#utility.yul\":1122:1185   */\n      swap2\n      pop\n        /* \"#utility.yul\":1078:1195   */\n      pop\n        /* \"#utility.yul\":1006:1202   */\n      swap3\n      swap2\n      pop\n      pop\n      jump\t// out\n        /* \"#utility.yul\":1208:1583   */\n    tag_25:\n      0x00\n        /* \"#utility.yul\":1326:1328   */\n      0x20\n        /* \"#utility.yul\":1314:1323   */\n      dup3\n        /* \"#utility.yul\":1305:1312   */\n      dup5\n        /* \"#utility.yul\":1301:1324   */\n      sub\n        /* \"#utility.yul\":1297:1329   */\n      slt\n        /* \"#utility.yul\":1294:1296   */\n      iszero\n      tag_58\n      jumpi\n        /* \"#utility.yul\":1342:1343   */\n      0x00\n        /* \"#utility.yul\":1339:1340   */\n      dup1\n        /* \"#utility.yul\":1332:1344   */\n      revert\n        /* \"#utility.yul\":1294:1296   */\n    tag_58:\n        /* \"#utility.yul\":1413:1414   */\n      0x00\n        /* \"#utility.yul\":1402:1411   */\n      dup3\n        /* \"#utility.yul\":1398:1415   */\n      add\n        /* \"#utility.yul\":1385:1416   */\n      calldataload\n        /* \"#utility.yul\":1443:1461   */\n      0xffffffffffffffff\n        /* \"#utility.yul\":1435:1441   */\n      dup2\n        /* \"#utility.yul\":1432:1462   */\n      gt\n        /* \"#utility.yul\":1429:1431   */\n      iszero\n      tag_59\n      jumpi\n        /* \"#utility.yul\":1475:1476   */\n      0x00\n        /* \"#utility.yul\":1472:1473   */\n      dup1\n        /* \"#utility.yul\":1465:1477   */\n      revert\n        /* \"#utility.yul\":1429:1431   */\n    tag_59:\n        /* \"#utility.yul\":1503:1566   */\n      tag_60\n        /* \"#utility.yul\":1558:1565   */\n      dup5\n        /* \"#utility.yul\":1549:1555   */\n      dup3\n        /* \"#utility.yul\":1538:1547   */\n      dup6\n        /* \"#utility.yul\":1534:1556   */\n      add\n        /* \"#utility.yul\":1503:1566   */\n      tag_46\n      jump\t// in\n    tag_60:\n        /* \"#utility.yul\":1493:1566   */\n      swap2\n      pop\n        /* \"#utility.yul\":1356:1576   */\n      pop\n        /* \"#utility.yul\":1284:1583   */\n      swap3\n      swap2\n      pop\n      pop\n      jump\t// out\n        /* \"#utility.yul\":1589:1851   */\n    tag_18:\n      0x00\n        /* \"#utility.yul\":1697:1699   */\n      0x20\n        /* \"#utility.yul\":1685:1694   */\n      dup3\n        /* \"#utility.yul\":1676:1683   */\n      dup5\n        /* \"#utility.yul\":1672:1695   */\n      sub\n        /* \"#utility.yul\":1668:1700   */\n      slt\n        /* \"#utility.yul\":1665:1667   */\n      iszero\n      tag_62\n      jumpi\n        /* \"#utility.yul\":1713:1714   */\n      0x00\n        /* \"#utility.yul\":1710:1711   */\n      dup1\n        /* \"#utility.yul\":1703:1715   */\n      revert\n        /* \"#utility.yul\":1665:1667   */\n    tag_62:\n        /* \"#utility.yul\":1756:1757   */\n      0x00\n        /* \"#utility.yul\":1781:1834   */\n      tag_63\n        /* \"#utility.yul\":1826:1833   */\n      dup5\n        /* \"#utility.yul\":1817:1823   */\n      dup3\n        /* \"#utility.yul\":1806:1815   */\n      dup6\n        /* \"#utility.yul\":1802:1824   */\n      add\n        /* \"#utility.yul\":1781:1834   */\n      tag_50\n      jump\t// in\n    tag_63:\n        /* \"#utility.yul\":1771:1834   */\n      swap2\n      pop\n        /* \"#utility.yul\":1727:1844   */\n      pop\n        /* \"#utility.yul\":1655:1851   */\n      swap3\n      swap2\n      pop\n      pop\n      jump\t// out\n        /* \"#utility.yul\":1857:1966   */\n    tag_64:\n        /* \"#utility.yul\":1938:1959   */\n      tag_66\n        /* \"#utility.yul\":1953:1958   */\n      dup2\n        /* \"#utility.yul\":1938:1959   */\n      tag_67\n      jump\t// in\n    tag_66:\n        /* \"#utility.yul\":1933:1936   */\n      dup3\n        /* \"#utility.yul\":1926:1960   */\n      mstore\n        /* \"#utility.yul\":1916:1966   */\n      pop\n      pop\n      jump\t// out\n        /* \"#utility.yul\":1972:2332   */\n    tag_68:\n      0x00\n        /* \"#utility.yul\":2086:2124   */\n      tag_70\n        /* \"#utility.yul\":2118:2123   */\n      dup3\n        /* \"#utility.yul\":2086:2124   */\n      tag_71\n      jump\t// in\n    tag_70:\n        /* \"#utility.yul\":2140:2210   */\n      tag_72\n        /* \"#utility.yul\":2203:2209   */\n      dup2\n        /* \"#utility.yul\":2198:2201   */\n      dup6\n        /* \"#utility.yul\":2140:2210   */\n      tag_73\n      jump\t// in\n    tag_72:\n        /* \"#utility.yul\":2133:2210   */\n      swap4\n      pop\n        /* \"#utility.yul\":2219:2271   */\n      tag_74\n        /* \"#utility.yul\":2264:2270   */\n      dup2\n        /* \"#utility.yul\":2259:2262   */\n      dup6\n        /* \"#utility.yul\":2252:2256   */\n      0x20\n        /* \"#utility.yul\":2245:2250   */\n      dup7\n        /* \"#utility.yul\":2241:2257   */\n      add\n        /* \"#utility.yul\":2219:2271   */\n      tag_75\n      jump\t// in\n    tag_74:\n        /* \"#utility.yul\":2296:2325   */\n      tag_76\n        /* \"#utility.yul\":2318:2324   */\n      dup2\n        /* \"#utility.yul\":2296:2325   */\n      tag_77\n      jump\t// in\n    tag_76:\n        /* \"#utility.yul\":2291:2294   */\n      dup5\n        /* \"#utility.yul\":2287:2326   */\n      add\n        /* \"#utility.yul\":2280:2326   */\n      swap2\n      pop\n        /* \"#utility.yul\":2062:2332   */\n      pop\n      swap3\n      swap2\n      pop\n      pop\n      jump\t// out\n        /* \"#utility.yul\":2338:2548   */\n    tag_21:\n      0x00\n        /* \"#utility.yul\":2463:2465   */\n      0x20\n        /* \"#utility.yul\":2452:2461   */\n      dup3\n        /* \"#utility.yul\":2448:2466   */\n      add\n        /* \"#utility.yul\":2440:2466   */\n      swap1\n      pop\n        /* \"#utility.yul\":2476:2541   */\n      tag_79\n        /* \"#utility.yul\":2538:2539   */\n      0x00\n        /* \"#utility.yul\":2527:2536   */\n      dup4\n        /* \"#utility.yul\":2523:2540   */\n      add\n        /* \"#utility.yul\":2514:2520   */\n      dup5\n        /* \"#utility.yul\":2476:2541   */\n      tag_64\n      jump\t// in\n    tag_79:\n        /* \"#utility.yul\":2430:2548   */\n      swap3\n      swap2\n      pop\n      pop\n      jump\t// out\n        /* \"#utility.yul\":2554:2863   */\n    tag_28:\n      0x00\n        /* \"#utility.yul\":2703:2705   */\n      0x20\n        /* \"#utility.yul\":2692:2701   */\n      dup3\n        /* \"#utility.yul\":2688:2706   */\n      add\n        /* \"#utility.yul\":2680:2706   */\n      swap1\n      pop\n        /* \"#utility.yul\":2752:2761   */\n      dup2\n        /* \"#utility.yul\":2746:2750   */\n      dup2\n        /* \"#utility.yul\":2742:2762   */\n      sub\n        /* \"#utility.yul\":2738:2739   */\n      0x00\n        /* \"#utility.yul\":2727:2736   */\n      dup4\n        /* \"#utility.yul\":2723:2740   */\n      add\n        /* \"#utility.yul\":2716:2763   */\n      mstore\n        /* \"#utility.yul\":2780:2856   */\n      tag_81\n        /* \"#utility.yul\":2851:2855   */\n      dup2\n        /* \"#utility.yul\":2842:2848   */\n      dup5\n        /* \"#utility.yul\":2780:2856   */\n      tag_68\n      jump\t// in\n    tag_81:\n        /* \"#utility.yul\":2772:2856   */\n      swap1\n      pop\n        /* \"#utility.yul\":2670:2863   */\n      swap3\n      swap2\n      pop\n      pop\n      jump\t// out\n        /* \"#utility.yul\":2869:3152   */\n    tag_38:\n      0x00\n        /* \"#utility.yul\":2935:2937   */\n      0x40\n        /* \"#utility.yul\":2929:2938   */\n      mload\n        /* \"#utility.yul\":2919:2938   */\n      swap1\n      pop\n        /* \"#utility.yul\":2977:2981   */\n      dup2\n        /* \"#utility.yul\":2969:2975   */\n      dup2\n        /* \"#utility.yul\":2965:2982   */\n      add\n        /* \"#utility.yul\":3084:3090   */\n      dup2\n        /* \"#utility.yul\":3072:3082   */\n      dup2\n        /* \"#utility.yul\":3069:3091   */\n      lt\n        /* \"#utility.yul\":3048:3066   */\n      0xffffffffffffffff\n        /* \"#utility.yul\":3036:3046   */\n      dup3\n        /* \"#utility.yul\":3033:3067   */\n      gt\n        /* \"#utility.yul\":3030:3092   */\n      or\n        /* \"#utility.yul\":3027:3029   */\n      iszero\n      tag_83\n      jumpi\n        /* \"#utility.yul\":3095:3113   */\n      tag_84\n      tag_85\n      jump\t// in\n    tag_84:\n        /* \"#utility.yul\":3027:3029   */\n    tag_83:\n        /* \"#utility.yul\":3135:3145   */\n      dup1\n        /* \"#utility.yul\":3131:3133   */\n      0x40\n        /* \"#utility.yul\":3124:3146   */\n      mstore\n        /* \"#utility.yul\":2909:3152   */\n      pop\n      swap2\n      swap1\n      pop\n      jump\t// out\n        /* \"#utility.yul\":3158:3490   */\n    tag_37:\n      0x00\n        /* \"#utility.yul\":3310:3328   */\n      0xffffffffffffffff\n        /* \"#utility.yul\":3302:3308   */\n      dup3\n        /* \"#utility.yul\":3299:3329   */\n      gt\n        /* \"#utility.yul\":3296:3298   */\n      iszero\n      tag_87\n      jumpi\n        /* \"#utility.yul\":3332:3350   */\n      tag_88\n      tag_85\n      jump\t// in\n    tag_88:\n        /* \"#utility.yul\":3296:3298   */\n    tag_87:\n        /* \"#utility.yul\":3417:3421   */\n      0x1f\n        /* \"#utility.yul\":3413:3422   */\n      not\n        /* \"#utility.yul\":3406:3410   */\n      0x1f\n        /* \"#utility.yul\":3398:3404   */\n      dup4\n        /* \"#utility.yul\":3394:3411   */\n      add\n        /* \"#utility.yul\":3390:3423   */\n      and\n        /* \"#utility.yul\":3382:3423   */\n      swap1\n      pop\n        /* \"#utility.yul\":3478:3482   */\n      0x20\n        /* \"#utility.yul\":3472:3476   */\n      dup2\n        /* \"#utility.yul\":3468:3483   */\n      add\n        /* \"#utility.yul\":3460:3483   */\n      swap1\n      pop\n        /* \"#utility.yul\":3225:3490   */\n      swap2\n      swap1\n      pop\n      jump\t// out\n        /* \"#utility.yul\":3496:3594   */\n    tag_71:\n      0x00\n        /* \"#utility.yul\":3581:3586   */\n      dup2\n        /* \"#utility.yul\":3575:3587   */\n      mload\n        /* \"#utility.yul\":3565:3587   */\n      swap1\n      pop\n        /* \"#utility.yul\":3554:3594   */\n      swap2\n      swap1\n      pop\n      jump\t// out\n        /* \"#utility.yul\":3600:3768   */\n    tag_73:\n      0x00\n        /* \"#utility.yul\":3717:3723   */\n      dup3\n        /* \"#utility.yul\":3712:3715   */\n      dup3\n        /* \"#utility.yul\":3705:3724   */\n      mstore\n        /* \"#utility.yul\":3757:3761   */\n      0x20\n        /* \"#utility.yul\":3752:3755   */\n      dup3\n        /* \"#utility.yul\":3748:3762   */\n      add\n        /* \"#utility.yul\":3733:3762   */\n      swap1\n      pop\n        /* \"#utility.yul\":3695:3768   */\n      swap3\n      swap2\n      pop\n      pop\n      jump\t// out\n        /* \"#utility.yul\":3774:3870   */\n    tag_91:\n      0x00\n        /* \"#utility.yul\":3840:3864   */\n      tag_93\n        /* \"#utility.yul\":3858:3863   */\n      dup3\n        /* \"#utility.yul\":3840:3864   */\n      tag_94\n      jump\t// in\n    tag_93:\n        /* \"#utility.yul\":3829:3864   */\n      swap1\n      pop\n        /* \"#utility.yul\":3819:3870   */\n      swap2\n      swap1\n      pop\n      jump\t// out\n        /* \"#utility.yul\":3876:3966   */\n    tag_67:\n      0x00\n        /* \"#utility.yul\":3953:3958   */\n      dup2\n        /* \"#utility.yul\":3946:3959   */\n      iszero\n        /* \"#utility.yul\":3939:3960   */\n      iszero\n        /* \"#utility.yul\":3928:3960   */\n      swap1\n      pop\n        /* \"#utility.yul\":3918:3966   */\n      swap2\n      swap1\n      pop\n      jump\t// out\n        /* \"#utility.yul\":3972:4098   */\n    tag_94:\n      0x00\n        /* \"#utility.yul\":4049:4091   */\n      0xffffffffffffffffffffffffffffffffffffffff\n        /* \"#utility.yul\":4042:4047   */\n      dup3\n        /* \"#utility.yul\":4038:4092   */\n      and\n        /* \"#utility.yul\":4027:4092   */\n      swap1\n      pop\n        /* \"#utility.yul\":4017:4098   */\n      swap2\n      swap1\n      pop\n      jump\t// out\n        /* \"#utility.yul\":4104:4181   */\n    tag_97:\n      0x00\n        /* \"#utility.yul\":4170:4175   */\n      dup2\n        /* \"#utility.yul\":4159:4175   */\n      swap1\n      pop\n        /* \"#utility.yul\":4149:4181   */\n      swap2\n      swap1\n      pop\n      jump\t// out\n        /* \"#utility.yul\":4187:4341   */\n    tag_41:\n        /* \"#utility.yul\":4271:4277   */\n      dup3\n        /* \"#utility.yul\":4266:4269   */\n      dup2\n        /* \"#utility.yul\":4261:4264   */\n      dup4\n        /* \"#utility.yul\":4248:4278   */\n      calldatacopy\n        /* \"#utility.yul\":4333:4334   */\n      0x00\n        /* \"#utility.yul\":4324:4330   */\n      dup4\n        /* \"#utility.yul\":4319:4322   */\n      dup4\n        /* \"#utility.yul\":4315:4331   */\n      add\n        /* \"#utility.yul\":4308:4335   */\n      mstore\n        /* \"#utility.yul\":4238:4341   */\n      pop\n      pop\n      pop\n      jump\t// out\n        /* \"#utility.yul\":4347:4654   */\n    tag_75:\n        /* \"#utility.yul\":4415:4416   */\n      0x00\n        /* \"#utility.yul\":4425:4538   */\n    tag_101:\n        /* \"#utility.yul\":4439:4445   */\n      dup4\n        /* \"#utility.yul\":4436:4437   */\n      dup2\n        /* \"#utility.yul\":4433:4446   */\n      lt\n        /* \"#utility.yul\":4425:4538   */\n      iszero\n      tag_103\n      jumpi\n        /* \"#utility.yul\":4524:4525   */\n      dup1\n        /* \"#utility.yul\":4519:4522   */\n      dup3\n        /* \"#utility.yul\":4515:4526   */\n      add\n        /* \"#utility.yul\":4509:4527   */\n      mload\n        /* \"#utility.yul\":4505:4506   */\n      dup2\n        /* \"#utility.yul\":4500:4503   */\n      dup5\n        /* \"#utility.yul\":4496:4507   */\n      add\n        /* \"#utility.yul\":4489:4528   */\n      mstore\n        /* \"#utility.yul\":4461:4463   */\n      0x20\n        /* \"#utility.yul\":4458:4459   */\n      dup2\n        /* \"#utility.yul\":4454:4464   */\n      add\n        /* \"#utility.yul\":4449:4464   */\n      swap1\n      pop\n        /* \"#utility.yul\":4425:4538   */\n      jump(tag_101)\n    tag_103:\n        /* \"#utility.yul\":4556:4562   */\n      dup4\n        /* \"#utility.yul\":4553:4554   */\n      dup2\n        /* \"#utility.yul\":4550:4563   */\n      gt\n        /* \"#utility.yul\":4547:4549   */\n      iszero\n      tag_104\n      jumpi\n        /* \"#utility.yul\":4636:4637   */\n      0x00\n        /* \"#utility.yul\":4627:4633   */\n      dup5\n        /* \"#utility.yul\":4622:4625   */\n      dup5\n        /* \"#utility.yul\":4618:4634   */\n      add\n        /* \"#utility.yul\":4611:4638   */\n      mstore\n        /* \"#utility.yul\":4547:4549   */\n    tag_104:\n        /* \"#utility.yul\":4396:4654   */\n      pop\n      pop\n      pop\n      pop\n      jump\t// out\n        /* \"#utility.yul\":4660:4840   */\n    tag_85:\n        /* \"#utility.yul\":4708:4785   */\n      0x4e487b7100000000000000000000000000000000000000000000000000000000\n        /* \"#utility.yul\":4705:4706   */\n      0x00\n        /* \"#utility.yul\":4698:4786   */\n      mstore\n        /* \"#utility.yul\":4805:4809   */\n      0x41\n        /* \"#utility.yul\":4802:4803   */\n      0x04\n        /* \"#utility.yul\":4795:4810   */\n      mstore\n        /* \"#utility.yul\":4829:4833   */\n      0x24\n        /* \"#utility.yul\":4826:4827   */\n      0x00\n        /* \"#utility.yul\":4819:4834   */\n      revert\n        /* \"#utility.yul\":4846:4948   */\n    tag_77:\n      0x00\n        /* \"#utility.yul\":4938:4940   */\n      0x1f\n        /* \"#utility.yul\":4934:4941   */\n      not\n        /* \"#utility.yul\":4929:4931   */\n      0x1f\n        /* \"#utility.yul\":4922:4927   */\n      dup4\n        /* \"#utility.yul\":4918:4932   */\n      add\n        /* \"#utility.yul\":4914:4942   */\n      and\n        /* \"#utility.yul\":4904:4942   */\n      swap1\n      pop\n        /* \"#utility.yul\":4894:4948   */\n      swap2\n      swap1\n      pop\n      jump\t// out\n        /* \"#utility.yul\":4954:5076   */\n    tag_45:\n        /* \"#utility.yul\":5027:5051   */\n      tag_108\n        /* \"#utility.yul\":5045:5050   */\n      dup2\n        /* \"#utility.yul\":5027:5051   */\n      tag_91\n      jump\t// in\n    tag_108:\n        /* \"#utility.yul\":5020:5025   */\n      dup2\n        /* \"#utility.yul\":5017:5052   */\n      eq\n        /* \"#utility.yul\":5007:5009   */\n      tag_109\n      jumpi\n        /* \"#utility.yul\":5066:5067   */\n      0x00\n        /* \"#utility.yul\":5063:5064   */\n      dup1\n        /* \"#utility.yul\":5056:5068   */\n      revert\n        /* \"#utility.yul\":5007:5009   */\n    tag_109:\n        /* \"#utility.yul\":4997:5076   */\n      pop\n      jump\t// out\n        /* \"#utility.yul\":5082:5204   */\n    tag_53:\n        /* \"#utility.yul\":5155:5179   */\n      tag_111\n        /* \"#utility.yul\":5173:5178   */\n      dup2\n        /* \"#utility.yul\":5155:5179   */\n      tag_97\n      jump\t// in\n    tag_111:\n        /* \"#utility.yul\":5148:5153   */\n      dup2\n        /* \"#utility.yul\":5145:5180   */\n      eq\n        /* \"#utility.yul\":5135:5137   */\n      tag_112\n      jumpi\n        /* \"#utility.yul\":5194:5195   */\n      0x00\n        /* \"#utility.yul\":5191:5192   */\n      dup1\n        /* \"#utility.yul\":5184:5196   */\n      revert\n        /* \"#utility.yul\":5135:5137   */\n    tag_112:\n        /* \"#utility.yul\":5125:5204   */\n      pop\n      jump\t// out\n\n    auxdata: 0xa2646970667358221220d4c133cbfc6b85473b4470c0835188c494930b3969adacdcc3f9a116c64f5c2a64736f6c63430008000033\n}\n",
				"bytecode": {
					"linkReferences": {},
					"object": "60806040526000805534801561001457600080fd5b50610453806100246000396000f3fe6080604052600436106100385760003560e01c80633a3d0788146100415780637069b3e51461006a578063bc6d0577146100a75761003f565b3661003f57005b005b34801561004d57600080fd5b5061006860048036038101906100639190610190565b6100e4565b005b34801561007657600080fd5b50610091600480360381019061008c91906101fa565b6100e7565b60405161009e919061026b565b60405180910390f35b3480156100b357600080fd5b506100ce60048036038101906100c991906101b9565b6100ee565b6040516100db9190610286565b60405180910390f35b50565b6000919050565b6060600082905080915050919050565b600061011161010c846102d9565b6102a8565b90508281526020810184848401111561012957600080fd5b61013484828561036d565b509392505050565b60008135905061014b816103ef565b92915050565b600082601f83011261016257600080fd5b81356101728482602086016100fe565b91505092915050565b60008135905061018a81610406565b92915050565b6000602082840312156101a257600080fd5b60006101b08482850161013c565b91505092915050565b6000602082840312156101cb57600080fd5b600082013567ffffffffffffffff8111156101e557600080fd5b6101f184828501610151565b91505092915050565b60006020828403121561020c57600080fd5b600061021a8482850161017b565b91505092915050565b61022c81610337565b82525050565b600061023d82610309565b6102478185610314565b935061025781856020860161037c565b610260816103de565b840191505092915050565b60006020820190506102806000830184610223565b92915050565b600060208201905081810360008301526102a08184610232565b905092915050565b6000604051905081810181811067ffffffffffffffff821117156102cf576102ce6103af565b5b8060405250919050565b600067ffffffffffffffff8211156102f4576102f36103af565b5b601f19601f8301169050602081019050919050565b600081519050919050565b600082825260208201905092915050565b600061033082610343565b9050919050565b60008115159050919050565b600073ffffffffffffffffffffffffffffffffffffffff82169050919050565b6000819050919050565b82818337600083830152505050565b60005b8381101561039a57808201518184015260208101905061037f565b838111156103a9576000848401525b50505050565b7f4e487b7100000000000000000000000000000000000000000000000000000000600052604160045260246000fd5b6000601f19601f8301169050919050565b6103f881610325565b811461040357600080fd5b50565b61040f81610363565b811461041a57600080fd5b5056fea2646970667358221220d4c133cbfc6b85473b4470c0835188c494930b3969adacdcc3f9a116c64f5c2a64736f6c63430008000033",
					"opcodes": "PUSH1 0x80 PUSH1 0x40 MSTORE PUSH1 0x0 DUP1 SSTORE CALLVALUE DUP1 ISZERO PUSH2 0x14 JUMPI PUSH1 0x0 DUP1 REVERT JUMPDEST POP PUSH2 0x453 DUP1 PUSH2 0x24 PUSH1 0x0 CODECOPY PUSH1 0x0 RETURN INVALID PUSH1 0x80 PUSH1 0x40 MSTORE PUSH1 0x4 CALLDATASIZE LT PUSH2 0x38 JUMPI PUSH1 0x0 CALLDATALOAD PUSH1 0xE0 SHR DUP1 PUSH4 0x3A3D0788 EQ PUSH2 0x41 JUMPI DUP1 PUSH4 0x7069B3E5 EQ PUSH2 0x6A JUMPI DUP1 PUSH4 0xBC6D0577 EQ PUSH2 0xA7 JUMPI PUSH2 0x3F JUMP JUMPDEST CALLDATASIZE PUSH2 0x3F JUMPI STOP JUMPDEST STOP JUMPDEST CALLVALUE DUP1 ISZERO PUSH2 0x4D JUMPI PUSH1 0x0 DUP1 REVERT JUMPDEST POP PUSH2 0x68 PUSH1 0x4 DUP1 CALLDATASIZE SUB DUP2 ADD SWAP1 PUSH2 0x63 SWAP2 SWAP1 PUSH2 0x190 JUMP JUMPDEST PUSH2 0xE4 JUMP JUMPDEST STOP JUMPDEST CALLVALUE DUP1 ISZERO PUSH2 0x76 JUMPI PUSH1 0x0 DUP1 REVERT JUMPDEST POP PUSH2 0x91 PUSH1 0x4 DUP1 CALLDATASIZE SUB DUP2 ADD SWAP1 PUSH2 0x8C SWAP2 SWAP1 PUSH2 0x1FA JUMP JUMPDEST PUSH2 0xE7 JUMP JUMPDEST PUSH1 0x40 MLOAD PUSH2 0x9E SWAP2 SWAP1 PUSH2 0x26B JUMP JUMPDEST PUSH1 0x40 MLOAD DUP1 SWAP2 SUB SWAP1 RETURN JUMPDEST CALLVALUE DUP1 ISZERO PUSH2 0xB3 JUMPI PUSH1 0x0 DUP1 REVERT JUMPDEST POP PUSH2 0xCE PUSH1 0x4 DUP1 CALLDATASIZE SUB DUP2 ADD SWAP1 PUSH2 0xC9 SWAP2 SWAP1 PUSH2 0x1B9 JUMP JUMPDEST PUSH2 0xEE JUMP JUMPDEST PUSH1 0x40 MLOAD PUSH2 0xDB SWAP2 SWAP1 PUSH2 0x286 JUMP JUMPDEST PUSH1 0x40 MLOAD DUP1 SWAP2 SUB SWAP1 RETURN JUMPDEST POP JUMP JUMPDEST PUSH1 0x0 SWAP2 SWAP1 POP JUMP JUMPDEST PUSH1 0x60 PUSH1 0x0 DUP3 SWAP1 POP DUP1 SWAP2 POP POP SWAP2 SWAP1 POP JUMP JUMPDEST PUSH1 0x0 PUSH2 0x111 PUSH2 0x10C DUP5 PUSH2 0x2D9 JUMP JUMPDEST PUSH2 0x2A8 JUMP JUMPDEST SWAP1 POP DUP3 DUP2 MSTORE PUSH1 0x20 DUP2 ADD DUP5 DUP5 DUP5 ADD GT ISZERO PUSH2 0x129 JUMPI PUSH1 0x0 DUP1 REVERT JUMPDEST PUSH2 0x134 DUP5 DUP3 DUP6 PUSH2 0x36D JUMP JUMPDEST POP SWAP4 SWAP3 POP POP POP JUMP JUMPDEST PUSH1 0x0 DUP2 CALLDATALOAD SWAP1 POP PUSH2 0x14B DUP2 PUSH2 0x3EF JUMP JUMPDEST SWAP3 SWAP2 POP POP JUMP JUMPDEST PUSH1 0x0 DUP3 PUSH1 0x1F DUP4 ADD SLT PUSH2 0x162 JUMPI PUSH1 0x0 DUP1 REVERT JUMPDEST DUP2 CALLDATALOAD PUSH2 0x172 DUP5 DUP3 PUSH1 0x20 DUP7 ADD PUSH2 0xFE JUMP JUMPDEST SWAP2 POP POP SWAP3 SWAP2 POP POP JUMP JUMPDEST PUSH1 0x0 DUP2 CALLDATALOAD SWAP1 POP PUSH2 0x18A DUP2 PUSH2 0x406 JUMP JUMPDEST SWAP3 SWAP2 POP POP JUMP JUMPDEST PUSH1 0x0 PUSH1 0x20 DUP3 DUP5 SUB SLT ISZERO PUSH2 0x1A2 JUMPI PUSH1 0x0 DUP1 REVERT JUMPDEST PUSH1 0x0 PUSH2 0x1B0 DUP5 DUP3 DUP6 ADD PUSH2 0x13C JUMP JUMPDEST SWAP2 POP POP SWAP3 SWAP2 POP POP JUMP JUMPDEST PUSH1 0x0 PUSH1 0x20 DUP3 DUP5 SUB SLT ISZERO PUSH2 0x1CB JUMPI PUSH1 0x0 DUP1 REVERT JUMPDEST PUSH1 0x0 DUP3 ADD CALLDATALOAD PUSH8 0xFFFFFFFFFFFFFFFF DUP2 GT ISZERO PUSH2 0x1E5 JUMPI PUSH1 0x0 DUP1 REVERT JUMPDEST PUSH2 0x1F1 DUP5 DUP3 DUP6 ADD PUSH2 0x151 JUMP JUMPDEST SWAP2 POP POP SWAP3 SWAP2 POP POP JUMP JUMPDEST PUSH1 0x0 PUSH1 0x20 DUP3 DUP5 SUB SLT ISZERO PUSH2 0x20C JUMPI PUSH1 0x0 DUP1 REVERT JUMPDEST PUSH1 0x0 PUSH2 0x21A DUP5 DUP3 DUP6 ADD PUSH2 0x17B JUMP JUMPDEST SWAP2 POP POP SWAP3 SWAP2 POP POP JUMP JUMPDEST PUSH2 0x22C DUP2 PUSH2 0x337 JUMP JUMPDEST DUP3 MSTORE POP POP JUMP JUMPDEST PUSH1 0x0 PUSH2 0x23D DUP3 PUSH2 0x309 JUMP JUMPDEST PUSH2 0x247 DUP2 DUP6 PUSH2 0x314 JUMP JUMPDEST SWAP4 POP PUSH2 0x257 DUP2 DUP6 PUSH1 0x20 DUP7 ADD PUSH2 0x37C JUMP JUMPDEST PUSH2 0x260 DUP2 PUSH2 0x3DE JUMP JUMPDEST DUP5 ADD SWAP2 POP POP SWAP3 SWAP2 POP POP JUMP JUMPDEST PUSH1 0x0 PUSH1 0x20 DUP3 ADD SWAP1 POP PUSH2 0x280 PUSH1 0x0 DUP4 ADD DUP5 PUSH2 0x223 JUMP JUMPDEST SWAP3 SWAP2 POP POP JUMP JUMPDEST PUSH1 0x0 PUSH1 0x20 DUP3 ADD SWAP1 POP DUP2 DUP2 SUB PUSH1 0x0 DUP4 ADD MSTORE PUSH2 0x2A0 DUP2 DUP5 PUSH2 0x232 JUMP JUMPDEST SWAP1 POP SWAP3 SWAP2 POP POP JUMP JUMPDEST PUSH1 0x0 PUSH1 0x40 MLOAD SWAP1 POP DUP2 DUP2 ADD DUP2 DUP2 LT PUSH8 0xFFFFFFFFFFFFFFFF DUP3 GT OR ISZERO PUSH2 0x2CF JUMPI PUSH2 0x2CE PUSH2 0x3AF JUMP JUMPDEST JUMPDEST DUP1 PUSH1 0x40 MSTORE POP SWAP2 SWAP1 POP JUMP JUMPDEST PUSH1 0x0 PUSH8 0xFFFFFFFFFFFFFFFF DUP3 GT ISZERO PUSH2 0x2F4 JUMPI PUSH2 0x2F3 PUSH2 0x3AF JUMP JUMPDEST JUMPDEST PUSH1 0x1F NOT PUSH1 0x1F DUP4 ADD AND SWAP1 POP PUSH1 0x20 DUP2 ADD SWAP1 POP SWAP2 SWAP1 POP JUMP JUMPDEST PUSH1 0x0 DUP2 MLOAD SWAP1 POP SWAP2 SWAP1 POP JUMP JUMPDEST PUSH1 0x0 DUP3 DUP3 MSTORE PUSH1 0x20 DUP3 ADD SWAP1 POP SWAP3 SWAP2 POP POP JUMP JUMPDEST PUSH1 0x0 PUSH2 0x330 DUP3 PUSH2 0x343 JUMP JUMPDEST SWAP1 POP SWAP2 SWAP1 POP JUMP JUMPDEST PUSH1 0x0 DUP2 ISZERO ISZERO SWAP1 POP SWAP2 SWAP1 POP JUMP JUMPDEST PUSH1 0x0 PUSH20 0xFFFFFFFFFFFFFFFFFFFFFFFFFFFFFFFFFFFFFFFF DUP3 AND SWAP1 POP SWAP2 SWAP1 POP JUMP JUMPDEST PUSH1 0x0 DUP2 SWAP1 POP SWAP2 SWAP1 POP JUMP JUMPDEST DUP3 DUP2 DUP4 CALLDATACOPY PUSH1 0x0 DUP4 DUP4 ADD MSTORE POP POP POP JUMP JUMPDEST PUSH1 0x0 JUMPDEST DUP4 DUP2 LT ISZERO PUSH2 0x39A JUMPI DUP1 DUP3 ADD MLOAD DUP2 DUP5 ADD MSTORE PUSH1 0x20 DUP2 ADD SWAP1 POP PUSH2 0x37F JUMP JUMPDEST DUP4 DUP2 GT ISZERO PUSH2 0x3A9 JUMPI PUSH1 0x0 DUP5 DUP5 ADD MSTORE JUMPDEST POP POP POP POP JUMP JUMPDEST PUSH32 0x4E487B7100000000000000000000000000000000000000000000000000000000 PUSH1 0x0 MSTORE PUSH1 0x41 PUSH1 0x4 MSTORE PUSH1 0x24 PUSH1 0x0 REVERT JUMPDEST PUSH1 0x0 PUSH1 0x1F NOT PUSH1 0x1F DUP4 ADD AND SWAP1 POP SWAP2 SWAP1 POP JUMP JUMPDEST PUSH2 0x3F8 DUP2 PUSH2 0x325 JUMP JUMPDEST DUP2 EQ PUSH2 0x403 JUMPI PUSH1 0x0 DUP1 REVERT JUMPDEST POP JUMP JUMPDEST PUSH2 0x40F DUP2 PUSH2 0x363 JUMP JUMPDEST DUP2 EQ PUSH2 0x41A JUMPI PUSH1 0x0 DUP1 REVERT JUMPDEST POP JUMP INVALID LOG2 PUSH5 0x6970667358 0x22 SLT KECCAK256 0xD4 0xC1 CALLER 0xCB 0xFC PUSH12 0x85473B4470C0835188C49493 SIGNEXTEND CODECOPY PUSH10 0xADACDCC3F9A116C64F5C 0x2A PUSH5 0x736F6C6343 STOP ADDMOD STOP STOP CALLER "
				},
				"gasEstimates": {
					"creation": {
						"codeDepositCost": "221400",
						"executionCost": "5269",
						"totalCost": "226669"
					},
					"external": {
						"": "129",
						"AppealforFund(uint256)": "600",
						"getstatus(address)": "433",
						"string_tobytes(string)": "infinite"
					}
				},
				"methodIdentifiers": {
					"AppealforFund(uint256)": "7069b3e5",
					"getstatus(address)": "3a3d0788",
					"string_tobytes(string)": "bc6d0577"
				}
			},
			"userdoc": {
				"kind": "user",
				"methods": {},
				"version": 1
			}
		}
	}
}