{
	"treasury.sol": {
		"Treasury": {
			"abi": [
				{
					"stateMutability": "payable",
					"type": "fallback"
				},
				{
					"inputs": [
						{
							"internalType": "address",
							"name": "applier",
							"type": "address"
						}
					],
					"name": "getstatus",
					"outputs": [],
					"stateMutability": "view",
					"type": "function"
				},
				{
					"stateMutability": "payable",
					"type": "receive"
				}
			],
			"devdoc": {
				"kind": "dev",
				"methods": {},
				"version": 1
			},
			"evm": {
				"assembly": "    /* \"treasury.sol\":93:1162  contract Treasury is Itreasury {... */\n  mstore(0x40, 0x80)\n    /* \"treasury.sol\":800:801  0 */\n  0x00\n    /* \"treasury.sol\":777:801  uint number_of_Appeals=0 */\n  dup1\n  sstore\n    /* \"treasury.sol\":93:1162  contract Treasury is Itreasury {... */\n  callvalue\n  dup1\n  iszero\n  tag_1\n  jumpi\n  0x00\n  dup1\n  revert\ntag_1:\n  pop\n  dataSize(sub_0)\n  dup1\n  dataOffset(sub_0)\n  0x00\n  codecopy\n  0x00\n  return\nstop\n\nsub_0: assembly {\n        /* \"treasury.sol\":93:1162  contract Treasury is Itreasury {... */\n      mstore(0x40, 0x80)\n      jumpi(tag_1, lt(calldatasize, 0x04))\n      shr(0xe0, calldataload(0x00))\n      dup1\n      0x3a3d0788\n      eq\n      tag_3\n      jumpi\n      jump(tag_2)\n    tag_1:\n      jumpi(tag_2, calldatasize)\n      stop\n    tag_2:\n      stop\n        /* \"treasury.sol\":1089:1159  function getstatus(address applier) external view override{... */\n    tag_3:\n      callvalue\n      dup1\n      iszero\n      tag_8\n      jumpi\n      0x00\n      dup1\n      revert\n    tag_8:\n      pop\n      tag_9\n      0x04\n      dup1\n      calldatasize\n      sub\n      dup2\n      add\n      swap1\n      tag_10\n      swap2\n      swap1\n      tag_11\n      jump\t// in\n    tag_10:\n      tag_12\n      jump\t// in\n    tag_9:\n      stop\n    tag_12:\n      pop\n      jump\t// out\n        /* \"#utility.yul\":7:146   */\n    tag_15:\n      0x00\n        /* \"#utility.yul\":91:97   */\n      dup2\n        /* \"#utility.yul\":78:98   */\n      calldataload\n        /* \"#utility.yul\":69:98   */\n      swap1\n      pop\n        /* \"#utility.yul\":107:140   */\n      tag_17\n        /* \"#utility.yul\":134:139   */\n      dup2\n        /* \"#utility.yul\":107:140   */\n      tag_18\n      jump\t// in\n    tag_17:\n        /* \"#utility.yul\":59:146   */\n      swap3\n      swap2\n      pop\n      pop\n      jump\t// out\n        /* \"#utility.yul\":152:414   */\n    tag_11:\n      0x00\n        /* \"#utility.yul\":260:262   */\n      0x20\n        /* \"#utility.yul\":248:257   */\n      dup3\n        /* \"#utility.yul\":239:246   */\n      dup5\n        /* \"#utility.yul\":235:258   */\n      sub\n        /* \"#utility.yul\":231:263   */\n      slt\n        /* \"#utility.yul\":228:230   */\n      iszero\n      tag_20\n      jumpi\n        /* \"#utility.yul\":276:277   */\n      0x00\n        /* \"#utility.yul\":273:274   */\n      dup1\n        /* \"#utility.yul\":266:278   */\n      revert\n        /* \"#utility.yul\":228:230   */\n    tag_20:\n        /* \"#utility.yul\":319:320   */\n      0x00\n        /* \"#utility.yul\":344:397   */\n      tag_21\n        /* \"#utility.yul\":389:396   */\n      dup5\n        /* \"#utility.yul\":380:386   */\n      dup3\n        /* \"#utility.yul\":369:378   */\n      dup6\n        /* \"#utility.yul\":365:387   */\n      add\n        /* \"#utility.yul\":344:397   */\n      tag_15\n      jump\t// in\n    tag_21:\n        /* \"#utility.yul\":334:397   */\n      swap2\n      pop\n        /* \"#utility.yul\":290:407   */\n      pop\n        /* \"#utility.yul\":218:414   */\n      swap3\n      swap2\n      pop\n      pop\n      jump\t// out\n        /* \"#utility.yul\":420:516   */\n    tag_22:\n      0x00\n        /* \"#utility.yul\":486:510   */\n      tag_24\n        /* \"#utility.yul\":504:509   */\n      dup3\n        /* \"#utility.yul\":486:510   */\n      tag_25\n      jump\t// in\n    tag_24:\n        /* \"#utility.yul\":475:510   */\n      swap1\n      pop\n        /* \"#utility.yul\":465:516   */\n      swap2\n      swap1\n      pop\n      jump\t// out\n        /* \"#utility.yul\":522:648   */\n    tag_25:\n      0x00\n        /* \"#utility.yul\":599:641   */\n      0xffffffffffffffffffffffffffffffffffffffff\n        /* \"#utility.yul\":592:597   */\n      dup3\n        /* \"#utility.yul\":588:642   */\n      and\n        /* \"#utility.yul\":577:642   */\n      swap1\n      pop\n        /* \"#utility.yul\":567:648   */\n      swap2\n      swap1\n      pop\n      jump\t// out\n        /* \"#utility.yul\":654:776   */\n    tag_18:\n        /* \"#utility.yul\":727:751   */\n      tag_28\n        /* \"#utility.yul\":745:750   */\n      dup2\n        /* \"#utility.yul\":727:751   */\n      tag_22\n      jump\t// in\n    tag_28:\n        /* \"#utility.yul\":720:725   */\n      dup2\n        /* \"#utility.yul\":717:752   */\n      eq\n        /* \"#utility.yul\":707:709   */\n      tag_29\n      jumpi\n        /* \"#utility.yul\":766:767   */\n      0x00\n        /* \"#utility.yul\":763:764   */\n      dup1\n        /* \"#utility.yul\":756:768   */\n      revert\n        /* \"#utility.yul\":707:709   */\n    tag_29:\n        /* \"#utility.yul\":697:776   */\n      pop\n      jump\t// out\n\n    auxdata: 0xa26469706673582212205eb5efa86efedf259b83b98d717bb96dc36a4e1d70480d02d914bd2c372747b064736f6c63430008000033\n}\n",
				"bytecode": {
					"linkReferences": {},
					"object": "60806040526000805534801561001457600080fd5b50610101806100246000396000f3fe608060405260043610601f5760003560e01c80633a3d0788146027576025565b36602557005b005b348015603257600080fd5b5060496004803603810190604591906061565b604b565b005b50565b600081359050605b8160b7565b92915050565b600060208284031215607257600080fd5b6000607e84828501604e565b91505092915050565b60006090826097565b9050919050565b600073ffffffffffffffffffffffffffffffffffffffff82169050919050565b60be816087565b811460c857600080fd5b5056fea26469706673582212205eb5efa86efedf259b83b98d717bb96dc36a4e1d70480d02d914bd2c372747b064736f6c63430008000033",
					"opcodes": "PUSH1 0x80 PUSH1 0x40 MSTORE PUSH1 0x0 DUP1 SSTORE CALLVALUE DUP1 ISZERO PUSH2 0x14 JUMPI PUSH1 0x0 DUP1 REVERT JUMPDEST POP PUSH2 0x101 DUP1 PUSH2 0x24 PUSH1 0x0 CODECOPY PUSH1 0x0 RETURN INVALID PUSH1 0x80 PUSH1 0x40 MSTORE PUSH1 0x4 CALLDATASIZE LT PUSH1 0x1F JUMPI PUSH1 0x0 CALLDATALOAD PUSH1 0xE0 SHR DUP1 PUSH4 0x3A3D0788 EQ PUSH1 0x27 JUMPI PUSH1 0x25 JUMP JUMPDEST CALLDATASIZE PUSH1 0x25 JUMPI STOP JUMPDEST STOP JUMPDEST CALLVALUE DUP1 ISZERO PUSH1 0x32 JUMPI PUSH1 0x0 DUP1 REVERT JUMPDEST POP PUSH1 0x49 PUSH1 0x4 DUP1 CALLDATASIZE SUB DUP2 ADD SWAP1 PUSH1 0x45 SWAP2 SWAP1 PUSH1 0x61 JUMP JUMPDEST PUSH1 0x4B JUMP JUMPDEST STOP JUMPDEST POP JUMP JUMPDEST PUSH1 0x0 DUP2 CALLDATALOAD SWAP1 POP PUSH1 0x5B DUP2 PUSH1 0xB7 JUMP JUMPDEST SWAP3 SWAP2 POP POP JUMP JUMPDEST PUSH1 0x0 PUSH1 0x20 DUP3 DUP5 SUB SLT ISZERO PUSH1 0x72 JUMPI PUSH1 0x0 DUP1 REVERT JUMPDEST PUSH1 0x0 PUSH1 0x7E DUP5 DUP3 DUP6 ADD PUSH1 0x4E JUMP JUMPDEST SWAP2 POP POP SWAP3 SWAP2 POP POP JUMP JUMPDEST PUSH1 0x0 PUSH1 0x90 DUP3 PUSH1 0x97 JUMP JUMPDEST SWAP1 POP SWAP2 SWAP1 POP JUMP JUMPDEST PUSH1 0x0 PUSH20 0xFFFFFFFFFFFFFFFFFFFFFFFFFFFFFFFFFFFFFFFF DUP3 AND SWAP1 POP SWAP2 SWAP1 POP JUMP JUMPDEST PUSH1 0xBE DUP2 PUSH1 0x87 JUMP JUMPDEST DUP2 EQ PUSH1 0xC8 JUMPI PUSH1 0x0 DUP1 REVERT JUMPDEST POP JUMP INVALID LOG2 PUSH5 0x6970667358 0x22 SLT KECCAK256 0x5E 0xB5 0xEF 0xA8 PUSH15 0xFEDF259B83B98D717BB96DC36A4E1D PUSH17 0x480D02D914BD2C372747B064736F6C6343 STOP ADDMOD STOP STOP CALLER "
				},
				"gasEstimates": {
					"creation": {
						"codeDepositCost": "51400",
						"executionCost": "5111",
						"totalCost": "56511"
					},
					"external": {
						"": "85",
						"getstatus(address)": "433"
					}
				},
				"methodIdentifiers": {
					"getstatus(address)": "3a3d0788"
				}
			},
			"userdoc": {
				"kind": "user",
				"methods": {},
				"version": 1
			}
		}
	}
}