{
	"treasury.sol": {
		"Treasury": {
			"abi": [
				{
					"stateMutability": "payable",
					"type": "fallback"
				},
				{
					"inputs": [
						{
							"internalType": "address",
							"name": "applier",
							"type": "address"
						}
					],
					"name": "getstatus",
					"outputs": [],
					"stateMutability": "view",
					"type": "function"
				},
				{
					"inputs": [
						{
							"internalType": "string",
							"name": "_purpose",
							"type": "string"
						}
					],
					"name": "string_tobytes",
					"outputs": [
						{
							"internalType": "bytes",
							"name": "",
							"type": "bytes"
						}
					],
					"stateMutability": "pure",
					"type": "function"
				},
				{
					"stateMutability": "payable",
					"type": "receive"
				}
			],
			"devdoc": {
				"kind": "dev",
				"methods": {},
				"version": 1
			},
			"evm": {
				"assembly": "    /* \"treasury.sol\":93:1537  contract Treasury is Itreasury {... */\n  mstore(0x40, 0x80)\n    /* \"treasury.sol\":898:899  0 */\n  0x00\n    /* \"treasury.sol\":875:899  uint number_of_Appeals=0 */\n  dup1\n  sstore\n    /* \"treasury.sol\":93:1537  contract Treasury is Itreasury {... */\n  callvalue\n  dup1\n  iszero\n  tag_1\n  jumpi\n  0x00\n  dup1\n  revert\ntag_1:\n  pop\n  dataSize(sub_0)\n  dup1\n  dataOffset(sub_0)\n  0x00\n  codecopy\n  0x00\n  return\nstop\n\nsub_0: assembly {\n        /* \"treasury.sol\":93:1537  contract Treasury is Itreasury {... */\n      mstore(0x40, 0x80)\n      jumpi(tag_1, lt(calldatasize, 0x04))\n      shr(0xe0, calldataload(0x00))\n      dup1\n      0x3a3d0788\n      eq\n      tag_3\n      jumpi\n      dup1\n      0xbc6d0577\n      eq\n      tag_4\n      jumpi\n      jump(tag_2)\n    tag_1:\n      jumpi(tag_2, calldatasize)\n      stop\n    tag_2:\n      stop\n        /* \"treasury.sol\":1464:1534  function getstatus(address applier) external view override{... */\n    tag_3:\n      callvalue\n      dup1\n      iszero\n      tag_9\n      jumpi\n      0x00\n      dup1\n      revert\n    tag_9:\n      pop\n      tag_10\n      0x04\n      dup1\n      calldatasize\n      sub\n      dup2\n      add\n      swap1\n      tag_11\n      swap2\n      swap1\n      tag_12\n      jump\t// in\n    tag_11:\n      tag_13\n      jump\t// in\n    tag_10:\n      stop\n        /* \"treasury.sol\":1055:1215  function string_tobytes( string memory _purpose) public pure returns (bytes memory){... */\n    tag_4:\n      callvalue\n      dup1\n      iszero\n      tag_14\n      jumpi\n      0x00\n      dup1\n      revert\n    tag_14:\n      pop\n      tag_15\n      0x04\n      dup1\n      calldatasize\n      sub\n      dup2\n      add\n      swap1\n      tag_16\n      swap2\n      swap1\n      tag_17\n      jump\t// in\n    tag_16:\n      tag_18\n      jump\t// in\n    tag_15:\n      mload(0x40)\n      tag_19\n      swap2\n      swap1\n      tag_20\n      jump\t// in\n    tag_19:\n      mload(0x40)\n      dup1\n      swap2\n      sub\n      swap1\n      return\n        /* \"treasury.sol\":1464:1534  function getstatus(address applier) external view override{... */\n    tag_13:\n      pop\n      jump\t// out\n        /* \"treasury.sol\":1055:1215  function string_tobytes( string memory _purpose) public pure returns (bytes memory){... */\n    tag_18:\n        /* \"treasury.sol\":1125:1137  bytes memory */\n      0x60\n        /* \"treasury.sol\":1148:1167  bytes memory result */\n      0x00\n        /* \"treasury.sol\":1176:1184  _purpose */\n      dup3\n        /* \"treasury.sol\":1148:1185  bytes memory result = bytes(_purpose) */\n      swap1\n      pop\n        /* \"treasury.sol\":1202:1208  result */\n      dup1\n        /* \"treasury.sol\":1195:1208  return result */\n      swap2\n      pop\n      pop\n        /* \"treasury.sol\":1055:1215  function string_tobytes( string memory _purpose) public pure returns (bytes memory){... */\n      swap2\n      swap1\n      pop\n      jump\t// out\n        /* \"#utility.yul\":7:351   */\n    tag_24:\n      0x00\n        /* \"#utility.yul\":110:175   */\n      tag_26\n        /* \"#utility.yul\":125:174   */\n      tag_27\n        /* \"#utility.yul\":167:173   */\n      dup5\n        /* \"#utility.yul\":125:174   */\n      tag_28\n      jump\t// in\n    tag_27:\n        /* \"#utility.yul\":110:175   */\n      tag_29\n      jump\t// in\n    tag_26:\n        /* \"#utility.yul\":101:175   */\n      swap1\n      pop\n        /* \"#utility.yul\":198:204   */\n      dup3\n        /* \"#utility.yul\":191:196   */\n      dup2\n        /* \"#utility.yul\":184:205   */\n      mstore\n        /* \"#utility.yul\":236:240   */\n      0x20\n        /* \"#utility.yul\":229:234   */\n      dup2\n        /* \"#utility.yul\":225:241   */\n      add\n        /* \"#utility.yul\":274:277   */\n      dup5\n        /* \"#utility.yul\":265:271   */\n      dup5\n        /* \"#utility.yul\":260:263   */\n      dup5\n        /* \"#utility.yul\":256:272   */\n      add\n        /* \"#utility.yul\":253:278   */\n      gt\n        /* \"#utility.yul\":250:252   */\n      iszero\n      tag_30\n      jumpi\n        /* \"#utility.yul\":291:292   */\n      0x00\n        /* \"#utility.yul\":288:289   */\n      dup1\n        /* \"#utility.yul\":281:293   */\n      revert\n        /* \"#utility.yul\":250:252   */\n    tag_30:\n        /* \"#utility.yul\":304:345   */\n      tag_31\n        /* \"#utility.yul\":338:344   */\n      dup5\n        /* \"#utility.yul\":333:336   */\n      dup3\n        /* \"#utility.yul\":328:331   */\n      dup6\n        /* \"#utility.yul\":304:345   */\n      tag_32\n      jump\t// in\n    tag_31:\n        /* \"#utility.yul\":91:351   */\n      pop\n      swap4\n      swap3\n      pop\n      pop\n      pop\n      jump\t// out\n        /* \"#utility.yul\":357:496   */\n    tag_33:\n      0x00\n        /* \"#utility.yul\":441:447   */\n      dup2\n        /* \"#utility.yul\":428:448   */\n      calldataload\n        /* \"#utility.yul\":419:448   */\n      swap1\n      pop\n        /* \"#utility.yul\":457:490   */\n      tag_35\n        /* \"#utility.yul\":484:489   */\n      dup2\n        /* \"#utility.yul\":457:490   */\n      tag_36\n      jump\t// in\n    tag_35:\n        /* \"#utility.yul\":409:496   */\n      swap3\n      swap2\n      pop\n      pop\n      jump\t// out\n        /* \"#utility.yul\":516:789   */\n    tag_37:\n      0x00\n        /* \"#utility.yul\":621:624   */\n      dup3\n        /* \"#utility.yul\":614:618   */\n      0x1f\n        /* \"#utility.yul\":606:612   */\n      dup4\n        /* \"#utility.yul\":602:619   */\n      add\n        /* \"#utility.yul\":598:625   */\n      slt\n        /* \"#utility.yul\":588:590   */\n      tag_39\n      jumpi\n        /* \"#utility.yul\":639:640   */\n      0x00\n        /* \"#utility.yul\":636:637   */\n      dup1\n        /* \"#utility.yul\":629:641   */\n      revert\n        /* \"#utility.yul\":588:590   */\n    tag_39:\n        /* \"#utility.yul\":679:685   */\n      dup2\n        /* \"#utility.yul\":666:686   */\n      calldataload\n        /* \"#utility.yul\":704:783   */\n      tag_40\n        /* \"#utility.yul\":779:782   */\n      dup5\n        /* \"#utility.yul\":771:777   */\n      dup3\n        /* \"#utility.yul\":764:768   */\n      0x20\n        /* \"#utility.yul\":756:762   */\n      dup7\n        /* \"#utility.yul\":752:769   */\n      add\n        /* \"#utility.yul\":704:783   */\n      tag_24\n      jump\t// in\n    tag_40:\n        /* \"#utility.yul\":695:783   */\n      swap2\n      pop\n        /* \"#utility.yul\":578:789   */\n      pop\n      swap3\n      swap2\n      pop\n      pop\n      jump\t// out\n        /* \"#utility.yul\":795:1057   */\n    tag_12:\n      0x00\n        /* \"#utility.yul\":903:905   */\n      0x20\n        /* \"#utility.yul\":891:900   */\n      dup3\n        /* \"#utility.yul\":882:889   */\n      dup5\n        /* \"#utility.yul\":878:901   */\n      sub\n        /* \"#utility.yul\":874:906   */\n      slt\n        /* \"#utility.yul\":871:873   */\n      iszero\n      tag_42\n      jumpi\n        /* \"#utility.yul\":919:920   */\n      0x00\n        /* \"#utility.yul\":916:917   */\n      dup1\n        /* \"#utility.yul\":909:921   */\n      revert\n        /* \"#utility.yul\":871:873   */\n    tag_42:\n        /* \"#utility.yul\":962:963   */\n      0x00\n        /* \"#utility.yul\":987:1040   */\n      tag_43\n        /* \"#utility.yul\":1032:1039   */\n      dup5\n        /* \"#utility.yul\":1023:1029   */\n      dup3\n        /* \"#utility.yul\":1012:1021   */\n      dup6\n        /* \"#utility.yul\":1008:1030   */\n      add\n        /* \"#utility.yul\":987:1040   */\n      tag_33\n      jump\t// in\n    tag_43:\n        /* \"#utility.yul\":977:1040   */\n      swap2\n      pop\n        /* \"#utility.yul\":933:1050   */\n      pop\n        /* \"#utility.yul\":861:1057   */\n      swap3\n      swap2\n      pop\n      pop\n      jump\t// out\n        /* \"#utility.yul\":1063:1438   */\n    tag_17:\n      0x00\n        /* \"#utility.yul\":1181:1183   */\n      0x20\n        /* \"#utility.yul\":1169:1178   */\n      dup3\n        /* \"#utility.yul\":1160:1167   */\n      dup5\n        /* \"#utility.yul\":1156:1179   */\n      sub\n        /* \"#utility.yul\":1152:1184   */\n      slt\n        /* \"#utility.yul\":1149:1151   */\n      iszero\n      tag_45\n      jumpi\n        /* \"#utility.yul\":1197:1198   */\n      0x00\n        /* \"#utility.yul\":1194:1195   */\n      dup1\n        /* \"#utility.yul\":1187:1199   */\n      revert\n        /* \"#utility.yul\":1149:1151   */\n    tag_45:\n        /* \"#utility.yul\":1268:1269   */\n      0x00\n        /* \"#utility.yul\":1257:1266   */\n      dup3\n        /* \"#utility.yul\":1253:1270   */\n      add\n        /* \"#utility.yul\":1240:1271   */\n      calldataload\n        /* \"#utility.yul\":1298:1316   */\n      0xffffffffffffffff\n        /* \"#utility.yul\":1290:1296   */\n      dup2\n        /* \"#utility.yul\":1287:1317   */\n      gt\n        /* \"#utility.yul\":1284:1286   */\n      iszero\n      tag_46\n      jumpi\n        /* \"#utility.yul\":1330:1331   */\n      0x00\n        /* \"#utility.yul\":1327:1328   */\n      dup1\n        /* \"#utility.yul\":1320:1332   */\n      revert\n        /* \"#utility.yul\":1284:1286   */\n    tag_46:\n        /* \"#utility.yul\":1358:1421   */\n      tag_47\n        /* \"#utility.yul\":1413:1420   */\n      dup5\n        /* \"#utility.yul\":1404:1410   */\n      dup3\n        /* \"#utility.yul\":1393:1402   */\n      dup6\n        /* \"#utility.yul\":1389:1411   */\n      add\n        /* \"#utility.yul\":1358:1421   */\n      tag_37\n      jump\t// in\n    tag_47:\n        /* \"#utility.yul\":1348:1421   */\n      swap2\n      pop\n        /* \"#utility.yul\":1211:1431   */\n      pop\n        /* \"#utility.yul\":1139:1438   */\n      swap3\n      swap2\n      pop\n      pop\n      jump\t// out\n        /* \"#utility.yul\":1444:1804   */\n    tag_48:\n      0x00\n        /* \"#utility.yul\":1558:1596   */\n      tag_50\n        /* \"#utility.yul\":1590:1595   */\n      dup3\n        /* \"#utility.yul\":1558:1596   */\n      tag_51\n      jump\t// in\n    tag_50:\n        /* \"#utility.yul\":1612:1682   */\n      tag_52\n        /* \"#utility.yul\":1675:1681   */\n      dup2\n        /* \"#utility.yul\":1670:1673   */\n      dup6\n        /* \"#utility.yul\":1612:1682   */\n      tag_53\n      jump\t// in\n    tag_52:\n        /* \"#utility.yul\":1605:1682   */\n      swap4\n      pop\n        /* \"#utility.yul\":1691:1743   */\n      tag_54\n        /* \"#utility.yul\":1736:1742   */\n      dup2\n        /* \"#utility.yul\":1731:1734   */\n      dup6\n        /* \"#utility.yul\":1724:1728   */\n      0x20\n        /* \"#utility.yul\":1717:1722   */\n      dup7\n        /* \"#utility.yul\":1713:1729   */\n      add\n        /* \"#utility.yul\":1691:1743   */\n      tag_55\n      jump\t// in\n    tag_54:\n        /* \"#utility.yul\":1768:1797   */\n      tag_56\n        /* \"#utility.yul\":1790:1796   */\n      dup2\n        /* \"#utility.yul\":1768:1797   */\n      tag_57\n      jump\t// in\n    tag_56:\n        /* \"#utility.yul\":1763:1766   */\n      dup5\n        /* \"#utility.yul\":1759:1798   */\n      add\n        /* \"#utility.yul\":1752:1798   */\n      swap2\n      pop\n        /* \"#utility.yul\":1534:1804   */\n      pop\n      swap3\n      swap2\n      pop\n      pop\n      jump\t// out\n        /* \"#utility.yul\":1810:2119   */\n    tag_20:\n      0x00\n        /* \"#utility.yul\":1959:1961   */\n      0x20\n        /* \"#utility.yul\":1948:1957   */\n      dup3\n        /* \"#utility.yul\":1944:1962   */\n      add\n        /* \"#utility.yul\":1936:1962   */\n      swap1\n      pop\n        /* \"#utility.yul\":2008:2017   */\n      dup2\n        /* \"#utility.yul\":2002:2006   */\n      dup2\n        /* \"#utility.yul\":1998:2018   */\n      sub\n        /* \"#utility.yul\":1994:1995   */\n      0x00\n        /* \"#utility.yul\":1983:1992   */\n      dup4\n        /* \"#utility.yul\":1979:1996   */\n      add\n        /* \"#utility.yul\":1972:2019   */\n      mstore\n        /* \"#utility.yul\":2036:2112   */\n      tag_59\n        /* \"#utility.yul\":2107:2111   */\n      dup2\n        /* \"#utility.yul\":2098:2104   */\n      dup5\n        /* \"#utility.yul\":2036:2112   */\n      tag_48\n      jump\t// in\n    tag_59:\n        /* \"#utility.yul\":2028:2112   */\n      swap1\n      pop\n        /* \"#utility.yul\":1926:2119   */\n      swap3\n      swap2\n      pop\n      pop\n      jump\t// out\n        /* \"#utility.yul\":2125:2408   */\n    tag_29:\n      0x00\n        /* \"#utility.yul\":2191:2193   */\n      0x40\n        /* \"#utility.yul\":2185:2194   */\n      mload\n        /* \"#utility.yul\":2175:2194   */\n      swap1\n      pop\n        /* \"#utility.yul\":2233:2237   */\n      dup2\n        /* \"#utility.yul\":2225:2231   */\n      dup2\n        /* \"#utility.yul\":2221:2238   */\n      add\n        /* \"#utility.yul\":2340:2346   */\n      dup2\n        /* \"#utility.yul\":2328:2338   */\n      dup2\n        /* \"#utility.yul\":2325:2347   */\n      lt\n        /* \"#utility.yul\":2304:2322   */\n      0xffffffffffffffff\n        /* \"#utility.yul\":2292:2302   */\n      dup3\n        /* \"#utility.yul\":2289:2323   */\n      gt\n        /* \"#utility.yul\":2286:2348   */\n      or\n        /* \"#utility.yul\":2283:2285   */\n      iszero\n      tag_61\n      jumpi\n        /* \"#utility.yul\":2351:2369   */\n      tag_62\n      tag_63\n      jump\t// in\n    tag_62:\n        /* \"#utility.yul\":2283:2285   */\n    tag_61:\n        /* \"#utility.yul\":2391:2401   */\n      dup1\n        /* \"#utility.yul\":2387:2389   */\n      0x40\n        /* \"#utility.yul\":2380:2402   */\n      mstore\n        /* \"#utility.yul\":2165:2408   */\n      pop\n      swap2\n      swap1\n      pop\n      jump\t// out\n        /* \"#utility.yul\":2414:2746   */\n    tag_28:\n      0x00\n        /* \"#utility.yul\":2566:2584   */\n      0xffffffffffffffff\n        /* \"#utility.yul\":2558:2564   */\n      dup3\n        /* \"#utility.yul\":2555:2585   */\n      gt\n        /* \"#utility.yul\":2552:2554   */\n      iszero\n      tag_65\n      jumpi\n        /* \"#utility.yul\":2588:2606   */\n      tag_66\n      tag_63\n      jump\t// in\n    tag_66:\n        /* \"#utility.yul\":2552:2554   */\n    tag_65:\n        /* \"#utility.yul\":2673:2677   */\n      0x1f\n        /* \"#utility.yul\":2669:2678   */\n      not\n        /* \"#utility.yul\":2662:2666   */\n      0x1f\n        /* \"#utility.yul\":2654:2660   */\n      dup4\n        /* \"#utility.yul\":2650:2667   */\n      add\n        /* \"#utility.yul\":2646:2679   */\n      and\n        /* \"#utility.yul\":2638:2679   */\n      swap1\n      pop\n        /* \"#utility.yul\":2734:2738   */\n      0x20\n        /* \"#utility.yul\":2728:2732   */\n      dup2\n        /* \"#utility.yul\":2724:2739   */\n      add\n        /* \"#utility.yul\":2716:2739   */\n      swap1\n      pop\n        /* \"#utility.yul\":2481:2746   */\n      swap2\n      swap1\n      pop\n      jump\t// out\n        /* \"#utility.yul\":2752:2850   */\n    tag_51:\n      0x00\n        /* \"#utility.yul\":2837:2842   */\n      dup2\n        /* \"#utility.yul\":2831:2843   */\n      mload\n        /* \"#utility.yul\":2821:2843   */\n      swap1\n      pop\n        /* \"#utility.yul\":2810:2850   */\n      swap2\n      swap1\n      pop\n      jump\t// out\n        /* \"#utility.yul\":2856:3024   */\n    tag_53:\n      0x00\n        /* \"#utility.yul\":2973:2979   */\n      dup3\n        /* \"#utility.yul\":2968:2971   */\n      dup3\n        /* \"#utility.yul\":2961:2980   */\n      mstore\n        /* \"#utility.yul\":3013:3017   */\n      0x20\n        /* \"#utility.yul\":3008:3011   */\n      dup3\n        /* \"#utility.yul\":3004:3018   */\n      add\n        /* \"#utility.yul\":2989:3018   */\n      swap1\n      pop\n        /* \"#utility.yul\":2951:3024   */\n      swap3\n      swap2\n      pop\n      pop\n      jump\t// out\n        /* \"#utility.yul\":3030:3126   */\n    tag_69:\n      0x00\n        /* \"#utility.yul\":3096:3120   */\n      tag_71\n        /* \"#utility.yul\":3114:3119   */\n      dup3\n        /* \"#utility.yul\":3096:3120   */\n      tag_72\n      jump\t// in\n    tag_71:\n        /* \"#utility.yul\":3085:3120   */\n      swap1\n      pop\n        /* \"#utility.yul\":3075:3126   */\n      swap2\n      swap1\n      pop\n      jump\t// out\n        /* \"#utility.yul\":3132:3258   */\n    tag_72:\n      0x00\n        /* \"#utility.yul\":3209:3251   */\n      0xffffffffffffffffffffffffffffffffffffffff\n        /* \"#utility.yul\":3202:3207   */\n      dup3\n        /* \"#utility.yul\":3198:3252   */\n      and\n        /* \"#utility.yul\":3187:3252   */\n      swap1\n      pop\n        /* \"#utility.yul\":3177:3258   */\n      swap2\n      swap1\n      pop\n      jump\t// out\n        /* \"#utility.yul\":3264:3418   */\n    tag_32:\n        /* \"#utility.yul\":3348:3354   */\n      dup3\n        /* \"#utility.yul\":3343:3346   */\n      dup2\n        /* \"#utility.yul\":3338:3341   */\n      dup4\n        /* \"#utility.yul\":3325:3355   */\n      calldatacopy\n        /* \"#utility.yul\":3410:3411   */\n      0x00\n        /* \"#utility.yul\":3401:3407   */\n      dup4\n        /* \"#utility.yul\":3396:3399   */\n      dup4\n        /* \"#utility.yul\":3392:3408   */\n      add\n        /* \"#utility.yul\":3385:3412   */\n      mstore\n        /* \"#utility.yul\":3315:3418   */\n      pop\n      pop\n      pop\n      jump\t// out\n        /* \"#utility.yul\":3424:3731   */\n    tag_55:\n        /* \"#utility.yul\":3492:3493   */\n      0x00\n        /* \"#utility.yul\":3502:3615   */\n    tag_76:\n        /* \"#utility.yul\":3516:3522   */\n      dup4\n        /* \"#utility.yul\":3513:3514   */\n      dup2\n        /* \"#utility.yul\":3510:3523   */\n      lt\n        /* \"#utility.yul\":3502:3615   */\n      iszero\n      tag_78\n      jumpi\n        /* \"#utility.yul\":3601:3602   */\n      dup1\n        /* \"#utility.yul\":3596:3599   */\n      dup3\n        /* \"#utility.yul\":3592:3603   */\n      add\n        /* \"#utility.yul\":3586:3604   */\n      mload\n        /* \"#utility.yul\":3582:3583   */\n      dup2\n        /* \"#utility.yul\":3577:3580   */\n      dup5\n        /* \"#utility.yul\":3573:3584   */\n      add\n        /* \"#utility.yul\":3566:3605   */\n      mstore\n        /* \"#utility.yul\":3538:3540   */\n      0x20\n        /* \"#utility.yul\":3535:3536   */\n      dup2\n        /* \"#utility.yul\":3531:3541   */\n      add\n        /* \"#utility.yul\":3526:3541   */\n      swap1\n      pop\n        /* \"#utility.yul\":3502:3615   */\n      jump(tag_76)\n    tag_78:\n        /* \"#utility.yul\":3633:3639   */\n      dup4\n        /* \"#utility.yul\":3630:3631   */\n      dup2\n        /* \"#utility.yul\":3627:3640   */\n      gt\n        /* \"#utility.yul\":3624:3626   */\n      iszero\n      tag_79\n      jumpi\n        /* \"#utility.yul\":3713:3714   */\n      0x00\n        /* \"#utility.yul\":3704:3710   */\n      dup5\n        /* \"#utility.yul\":3699:3702   */\n      dup5\n        /* \"#utility.yul\":3695:3711   */\n      add\n        /* \"#utility.yul\":3688:3715   */\n      mstore\n        /* \"#utility.yul\":3624:3626   */\n    tag_79:\n        /* \"#utility.yul\":3473:3731   */\n      pop\n      pop\n      pop\n      pop\n      jump\t// out\n        /* \"#utility.yul\":3737:3917   */\n    tag_63:\n        /* \"#utility.yul\":3785:3862   */\n      0x4e487b7100000000000000000000000000000000000000000000000000000000\n        /* \"#utility.yul\":3782:3783   */\n      0x00\n        /* \"#utility.yul\":3775:3863   */\n      mstore\n        /* \"#utility.yul\":3882:3886   */\n      0x41\n        /* \"#utility.yul\":3879:3880   */\n      0x04\n        /* \"#utility.yul\":3872:3887   */\n      mstore\n        /* \"#utility.yul\":3906:3910   */\n      0x24\n        /* \"#utility.yul\":3903:3904   */\n      0x00\n        /* \"#utility.yul\":3896:3911   */\n      revert\n        /* \"#utility.yul\":3923:4025   */\n    tag_57:\n      0x00\n        /* \"#utility.yul\":4015:4017   */\n      0x1f\n        /* \"#utility.yul\":4011:4018   */\n      not\n        /* \"#utility.yul\":4006:4008   */\n      0x1f\n        /* \"#utility.yul\":3999:4004   */\n      dup4\n        /* \"#utility.yul\":3995:4009   */\n      add\n        /* \"#utility.yul\":3991:4019   */\n      and\n        /* \"#utility.yul\":3981:4019   */\n      swap1\n      pop\n        /* \"#utility.yul\":3971:4025   */\n      swap2\n      swap1\n      pop\n      jump\t// out\n        /* \"#utility.yul\":4031:4153   */\n    tag_36:\n        /* \"#utility.yul\":4104:4128   */\n      tag_83\n        /* \"#utility.yul\":4122:4127   */\n      dup2\n        /* \"#utility.yul\":4104:4128   */\n      tag_69\n      jump\t// in\n    tag_83:\n        /* \"#utility.yul\":4097:4102   */\n      dup2\n        /* \"#utility.yul\":4094:4129   */\n      eq\n        /* \"#utility.yul\":4084:4086   */\n      tag_84\n      jumpi\n        /* \"#utility.yul\":4143:4144   */\n      0x00\n        /* \"#utility.yul\":4140:4141   */\n      dup1\n        /* \"#utility.yul\":4133:4145   */\n      revert\n        /* \"#utility.yul\":4084:4086   */\n    tag_84:\n        /* \"#utility.yul\":4074:4153   */\n      pop\n      jump\t// out\n\n    auxdata: 0xa2646970667358221220887a6a2b52825c23a8f17cc29ff8a3bfbbcbe822dabb255ae45b234095a6f42264736f6c63430008000033\n}\n",
				"bytecode": {
					"linkReferences": {},
					"object": "60806040526000805534801561001457600080fd5b5061036f806100246000396000f3fe60806040526004361061002d5760003560e01c80633a3d078814610036578063bc6d05771461005f57610034565b3661003457005b005b34801561004257600080fd5b5061005d6004803603810190610058919061012c565b61009c565b005b34801561006b57600080fd5b5061008660048036038101906100819190610155565b61009f565b60405161009391906101cf565b60405180910390f35b50565b6060600082905080915050919050565b60006100c26100bd84610222565b6101f1565b9050828152602081018484840111156100da57600080fd5b6100e58482856102a0565b509392505050565b6000813590506100fc81610322565b92915050565b600082601f83011261011357600080fd5b81356101238482602086016100af565b91505092915050565b60006020828403121561013e57600080fd5b600061014c848285016100ed565b91505092915050565b60006020828403121561016757600080fd5b600082013567ffffffffffffffff81111561018157600080fd5b61018d84828501610102565b91505092915050565b60006101a182610252565b6101ab818561025d565b93506101bb8185602086016102af565b6101c481610311565b840191505092915050565b600060208201905081810360008301526101e98184610196565b905092915050565b6000604051905081810181811067ffffffffffffffff82111715610218576102176102e2565b5b8060405250919050565b600067ffffffffffffffff82111561023d5761023c6102e2565b5b601f19601f8301169050602081019050919050565b600081519050919050565b600082825260208201905092915050565b600061027982610280565b9050919050565b600073ffffffffffffffffffffffffffffffffffffffff82169050919050565b82818337600083830152505050565b60005b838110156102cd5780820151818401526020810190506102b2565b838111156102dc576000848401525b50505050565b7f4e487b7100000000000000000000000000000000000000000000000000000000600052604160045260246000fd5b6000601f19601f8301169050919050565b61032b8161026e565b811461033657600080fd5b5056fea2646970667358221220887a6a2b52825c23a8f17cc29ff8a3bfbbcbe822dabb255ae45b234095a6f42264736f6c63430008000033",
					"opcodes": "PUSH1 0x80 PUSH1 0x40 MSTORE PUSH1 0x0 DUP1 SSTORE CALLVALUE DUP1 ISZERO PUSH2 0x14 JUMPI PUSH1 0x0 DUP1 REVERT JUMPDEST POP PUSH2 0x36F DUP1 PUSH2 0x24 PUSH1 0x0 CODECOPY PUSH1 0x0 RETURN INVALID PUSH1 0x80 PUSH1 0x40 MSTORE PUSH1 0x4 CALLDATASIZE LT PUSH2 0x2D JUMPI PUSH1 0x0 CALLDATALOAD PUSH1 0xE0 SHR DUP1 PUSH4 0x3A3D0788 EQ PUSH2 0x36 JUMPI DUP1 PUSH4 0xBC6D0577 EQ PUSH2 0x5F JUMPI PUSH2 0x34 JUMP JUMPDEST CALLDATASIZE PUSH2 0x34 JUMPI STOP JUMPDEST STOP JUMPDEST CALLVALUE DUP1 ISZERO PUSH2 0x42 JUMPI PUSH1 0x0 DUP1 REVERT JUMPDEST POP PUSH2 0x5D PUSH1 0x4 DUP1 CALLDATASIZE SUB DUP2 ADD SWAP1 PUSH2 0x58 SWAP2 SWAP1 PUSH2 0x12C JUMP JUMPDEST PUSH2 0x9C JUMP JUMPDEST STOP JUMPDEST CALLVALUE DUP1 ISZERO PUSH2 0x6B JUMPI PUSH1 0x0 DUP1 REVERT JUMPDEST POP PUSH2 0x86 PUSH1 0x4 DUP1 CALLDATASIZE SUB DUP2 ADD SWAP1 PUSH2 0x81 SWAP2 SWAP1 PUSH2 0x155 JUMP JUMPDEST PUSH2 0x9F JUMP JUMPDEST PUSH1 0x40 MLOAD PUSH2 0x93 SWAP2 SWAP1 PUSH2 0x1CF JUMP JUMPDEST PUSH1 0x40 MLOAD DUP1 SWAP2 SUB SWAP1 RETURN JUMPDEST POP JUMP JUMPDEST PUSH1 0x60 PUSH1 0x0 DUP3 SWAP1 POP DUP1 SWAP2 POP POP SWAP2 SWAP1 POP JUMP JUMPDEST PUSH1 0x0 PUSH2 0xC2 PUSH2 0xBD DUP5 PUSH2 0x222 JUMP JUMPDEST PUSH2 0x1F1 JUMP JUMPDEST SWAP1 POP DUP3 DUP2 MSTORE PUSH1 0x20 DUP2 ADD DUP5 DUP5 DUP5 ADD GT ISZERO PUSH2 0xDA JUMPI PUSH1 0x0 DUP1 REVERT JUMPDEST PUSH2 0xE5 DUP5 DUP3 DUP6 PUSH2 0x2A0 JUMP JUMPDEST POP SWAP4 SWAP3 POP POP POP JUMP JUMPDEST PUSH1 0x0 DUP2 CALLDATALOAD SWAP1 POP PUSH2 0xFC DUP2 PUSH2 0x322 JUMP JUMPDEST SWAP3 SWAP2 POP POP JUMP JUMPDEST PUSH1 0x0 DUP3 PUSH1 0x1F DUP4 ADD SLT PUSH2 0x113 JUMPI PUSH1 0x0 DUP1 REVERT JUMPDEST DUP2 CALLDATALOAD PUSH2 0x123 DUP5 DUP3 PUSH1 0x20 DUP7 ADD PUSH2 0xAF JUMP JUMPDEST SWAP2 POP POP SWAP3 SWAP2 POP POP JUMP JUMPDEST PUSH1 0x0 PUSH1 0x20 DUP3 DUP5 SUB SLT ISZERO PUSH2 0x13E JUMPI PUSH1 0x0 DUP1 REVERT JUMPDEST PUSH1 0x0 PUSH2 0x14C DUP5 DUP3 DUP6 ADD PUSH2 0xED JUMP JUMPDEST SWAP2 POP POP SWAP3 SWAP2 POP POP JUMP JUMPDEST PUSH1 0x0 PUSH1 0x20 DUP3 DUP5 SUB SLT ISZERO PUSH2 0x167 JUMPI PUSH1 0x0 DUP1 REVERT JUMPDEST PUSH1 0x0 DUP3 ADD CALLDATALOAD PUSH8 0xFFFFFFFFFFFFFFFF DUP2 GT ISZERO PUSH2 0x181 JUMPI PUSH1 0x0 DUP1 REVERT JUMPDEST PUSH2 0x18D DUP5 DUP3 DUP6 ADD PUSH2 0x102 JUMP JUMPDEST SWAP2 POP POP SWAP3 SWAP2 POP POP JUMP JUMPDEST PUSH1 0x0 PUSH2 0x1A1 DUP3 PUSH2 0x252 JUMP JUMPDEST PUSH2 0x1AB DUP2 DUP6 PUSH2 0x25D JUMP JUMPDEST SWAP4 POP PUSH2 0x1BB DUP2 DUP6 PUSH1 0x20 DUP7 ADD PUSH2 0x2AF JUMP JUMPDEST PUSH2 0x1C4 DUP2 PUSH2 0x311 JUMP JUMPDEST DUP5 ADD SWAP2 POP POP SWAP3 SWAP2 POP POP JUMP JUMPDEST PUSH1 0x0 PUSH1 0x20 DUP3 ADD SWAP1 POP DUP2 DUP2 SUB PUSH1 0x0 DUP4 ADD MSTORE PUSH2 0x1E9 DUP2 DUP5 PUSH2 0x196 JUMP JUMPDEST SWAP1 POP SWAP3 SWAP2 POP POP JUMP JUMPDEST PUSH1 0x0 PUSH1 0x40 MLOAD SWAP1 POP DUP2 DUP2 ADD DUP2 DUP2 LT PUSH8 0xFFFFFFFFFFFFFFFF DUP3 GT OR ISZERO PUSH2 0x218 JUMPI PUSH2 0x217 PUSH2 0x2E2 JUMP JUMPDEST JUMPDEST DUP1 PUSH1 0x40 MSTORE POP SWAP2 SWAP1 POP JUMP JUMPDEST PUSH1 0x0 PUSH8 0xFFFFFFFFFFFFFFFF DUP3 GT ISZERO PUSH2 0x23D JUMPI PUSH2 0x23C PUSH2 0x2E2 JUMP JUMPDEST JUMPDEST PUSH1 0x1F NOT PUSH1 0x1F DUP4 ADD AND SWAP1 POP PUSH1 0x20 DUP2 ADD SWAP1 POP SWAP2 SWAP1 POP JUMP JUMPDEST PUSH1 0x0 DUP2 MLOAD SWAP1 POP SWAP2 SWAP1 POP JUMP JUMPDEST PUSH1 0x0 DUP3 DUP3 MSTORE PUSH1 0x20 DUP3 ADD SWAP1 POP SWAP3 SWAP2 POP POP JUMP JUMPDEST PUSH1 0x0 PUSH2 0x279 DUP3 PUSH2 0x280 JUMP JUMPDEST SWAP1 POP SWAP2 SWAP1 POP JUMP JUMPDEST PUSH1 0x0 PUSH20 0xFFFFFFFFFFFFFFFFFFFFFFFFFFFFFFFFFFFFFFFF DUP3 AND SWAP1 POP SWAP2 SWAP1 POP JUMP JUMPDEST DUP3 DUP2 DUP4 CALLDATACOPY PUSH1 0x0 DUP4 DUP4 ADD MSTORE POP POP POP JUMP JUMPDEST PUSH1 0x0 JUMPDEST DUP4 DUP2 LT ISZERO PUSH2 0x2CD JUMPI DUP1 DUP3 ADD MLOAD DUP2 DUP5 ADD MSTORE PUSH1 0x20 DUP2 ADD SWAP1 POP PUSH2 0x2B2 JUMP JUMPDEST DUP4 DUP2 GT ISZERO PUSH2 0x2DC JUMPI PUSH1 0x0 DUP5 DUP5 ADD MSTORE JUMPDEST POP POP POP POP JUMP JUMPDEST PUSH32 0x4E487B7100000000000000000000000000000000000000000000000000000000 PUSH1 0x0 MSTORE PUSH1 0x41 PUSH1 0x4 MSTORE PUSH1 0x24 PUSH1 0x0 REVERT JUMPDEST PUSH1 0x0 PUSH1 0x1F NOT PUSH1 0x1F DUP4 ADD AND SWAP1 POP SWAP2 SWAP1 POP JUMP JUMPDEST PUSH2 0x32B DUP2 PUSH2 0x26E JUMP JUMPDEST DUP2 EQ PUSH2 0x336 JUMPI PUSH1 0x0 DUP1 REVERT JUMPDEST POP JUMP INVALID LOG2 PUSH5 0x6970667358 0x22 SLT KECCAK256 DUP9 PUSH27 0x6A2B52825C23A8F17CC29FF8A3BFBBCBE822DABB255AE45B234095 0xA6 DELEGATECALL 0x22 PUSH5 0x736F6C6343 STOP ADDMOD STOP STOP CALLER "
				},
				"gasEstimates": {
					"creation": {
						"codeDepositCost": "175800",
						"executionCost": "5226",
						"totalCost": "181026"
					},
					"external": {
						"": "107",
						"getstatus(address)": "433",
						"string_tobytes(string)": "infinite"
					}
				},
				"methodIdentifiers": {
					"getstatus(address)": "3a3d0788",
					"string_tobytes(string)": "bc6d0577"
				}
			},
			"userdoc": {
				"kind": "user",
				"methods": {},
				"version": 1
			}
		}
	}
}