{
	"data": {
		"bytecode": {
			"linkReferences": {},
			"object": "60806040523480156200001157600080fd5b506040516200146838038062001468833981810160405281019062000037919062000129565b806000806101000a81548173ffffffffffffffffffffffffffffffffffffffff021916908373ffffffffffffffffffffffffffffffffffffffff16021790555080600160006101000a81548173ffffffffffffffffffffffffffffffffffffffff021916908373ffffffffffffffffffffffffffffffffffffffff160217905550506200015b565b600080fd5b600073ffffffffffffffffffffffffffffffffffffffff82169050919050565b6000620000f182620000c4565b9050919050565b6200010381620000e4565b81146200010f57600080fd5b50565b6000815190506200012381620000f8565b92915050565b600060208284031215620001425762000141620000bf565b5b6000620001528482850162000112565b91505092915050565b6112fd806200016b6000396000f3fe60806040526004361061004e5760003560e01c806309085732146100615780631f00ca741461009e57806326c478c6146100db578063483a93101461010b578063d06ca61f146101485761004f565b5b34801561005b57600080fd5b50600080fd5b34801561006d57600080fd5b5061008860048036038101906100839190610898565b610185565b60405161009591906109ca565b60405180910390f35b3480156100aa57600080fd5b506100c560048036038101906100c091906109ec565b6104c7565b6040516100d291906109ca565b60405180910390f35b6100f560048036038101906100f09190610a4c565b610575565b60405161010291906109ca565b60405180910390f35b34801561011757600080fd5b50610132600480360381019061012d9190610aac565b6106f0565b60405161013f9190610ae8565b60405180910390f35b34801561015457600080fd5b5061016f600480360381019061016a91906109ec565b61070f565b60405161017c91906109ca565b60405180910390f35b606060008484600081811061019d5761019c610b03565b5b90506020020160208101906101b29190610b90565b9050858173ffffffffffffffffffffffffffffffffffffffff1663dd62ed3e33306040518363ffffffff1660e01b81526004016101f0929190610bcc565b602060405180830381865afa15801561020d573d6000803e3d6000fd5b505050506040513d601f19601f820116820180604052508101906102319190610c0a565b1015610272576040517f08c379a000000000000000000000000000000000000000000000000000000000815260040161026990610c94565b60405180910390fd5b600385859050146102b8576040517f08c379a00000000000000000000000000000000000000000000000000000000081526004016102af90610d00565b60405180910390fd5b8073ffffffffffffffffffffffffffffffffffffffff166323b872dd3330896040518463ffffffff1660e01b81526004016102f593929190610d20565b6020604051808303816000875af1158015610314573d6000803e3d6000fd5b505050506040513d601f19601f820116820180604052508101906103389190610d8f565b508073ffffffffffffffffffffffffffffffffffffffff1663095ea7b3600160009054906101000a900473ffffffffffffffffffffffffffffffffffffffff16886040518363ffffffff1660e01b8152600401610396929190610dbc565b6020604051808303816000875af11580156103b5573d6000803e3d6000fd5b505050506040513d601f19601f820116820180604052508101906103d99190610d8f565b5060006103e787878761070f565b905060008054906101000a900473ffffffffffffffffffffffffffffffffffffffff1673ffffffffffffffffffffffffffffffffffffffff16638803dbee888360028151811061043a57610439610b03565b5b6020026020010151898933603c426104529190610e14565b6040518763ffffffff1660e01b815260040161047396959493929190610f2d565b6000604051808303816000875af1158015610492573d6000803e3d6000fd5b505050506040513d6000823e3d601f19601f820116820180604052508101906104bb91906110d8565b92505050949350505050565b606060008054906101000a900473ffffffffffffffffffffffffffffffffffffffff1673ffffffffffffffffffffffffffffffffffffffff16631f00ca748585856040518463ffffffff1660e01b815260040161052693929190611121565b600060405180830381865afa158015610543573d6000803e3d6000fd5b505050506040513d6000823e3d601f19601f8201168201806040525081019061056c91906110d8565b90509392505050565b60606000349050600034116105bf576040517f08c379a00000000000000000000000000000000000000000000000000000000081526004016105b69061119f565b60405180910390fd5b60028585905014610605576040517f08c379a00000000000000000000000000000000000000000000000000000000081526004016105fc90610d00565b60405180910390fd5b600061061282878761070f565b905060008054906101000a900473ffffffffffffffffffffffffffffffffffffffff1673ffffffffffffffffffffffffffffffffffffffff16638a657e67348360018151811061066557610664610b03565b5b6020026020010151898933603c4261067d9190610e14565b6040518763ffffffff1660e01b815260040161069d9594939291906111bf565b60006040518083038185885af11580156106bb573d6000803e3d6000fd5b50505050506040513d6000823e3d601f19601f820116820180604052508101906106e591906110d8565b925050509392505050565b600061070861070083603c6107bd565b6127106107d3565b9050919050565b606060008054906101000a900473ffffffffffffffffffffffffffffffffffffffff1673ffffffffffffffffffffffffffffffffffffffff1663d06ca61f8585856040518463ffffffff1660e01b815260040161076e93929190611121565b600060405180830381865afa15801561078b573d6000803e3d6000fd5b505050506040513d6000823e3d601f19601f820116820180604052508101906107b491906110d8565b90509392505050565b600081836107cb919061120d565b905092915050565b600081836107e19190611296565b905092915050565b6000604051905090565b600080fd5b600080fd5b6000819050919050565b610810816107fd565b811461081b57600080fd5b50565b60008135905061082d81610807565b92915050565b600080fd5b600080fd5b600080fd5b60008083601f84011261085857610857610833565b5b8235905067ffffffffffffffff81111561087557610874610838565b5b6020830191508360208202830111156108915761089061083d565b5b9250929050565b600080600080606085870312156108b2576108b16107f3565b5b60006108c08782880161081e565b945050602085013567ffffffffffffffff8111156108e1576108e06107f8565b5b6108ed87828801610842565b935093505060406109008782880161081e565b91505092959194509250565b600081519050919050565b600082825260208201905092915050565b6000819050602082019050919050565b610941816107fd565b82525050565b60006109538383610938565b60208301905092915050565b6000602082019050919050565b60006109778261090c565b6109818185610917565b935061098c83610928565b8060005b838110156109bd5781516109a48882610947565b97506109af8361095f565b925050600181019050610990565b5085935050505092915050565b600060208201905081810360008301526109e4818461096c565b905092915050565b600080600060408486031215610a0557610a046107f3565b5b6000610a138682870161081e565b935050602084013567ffffffffffffffff811115610a3457610a336107f8565b5b610a4086828701610842565b92509250509250925092565b600080600060408486031215610a6557610a646107f3565b5b600084013567ffffffffffffffff811115610a8357610a826107f8565b5b610a8f86828701610842565b93509350506020610aa28682870161081e565b9150509250925092565b600060208284031215610ac257610ac16107f3565b5b6000610ad08482850161081e565b91505092915050565b610ae2816107fd565b82525050565b6000602082019050610afd6000830184610ad9565b92915050565b7f4e487b7100000000000000000000000000000000000000000000000000000000600052603260045260246000fd5b600073ffffffffffffffffffffffffffffffffffffffff82169050919050565b6000610b5d82610b32565b9050919050565b610b6d81610b52565b8114610b7857600080fd5b50565b600081359050610b8a81610b64565b92915050565b600060208284031215610ba657610ba56107f3565b5b6000610bb484828501610b7b565b91505092915050565b610bc681610b52565b82525050565b6000604082019050610be16000830185610bbd565b610bee6020830184610bbd565b9392505050565b600081519050610c0481610807565b92915050565b600060208284031215610c2057610c1f6107f3565b5b6000610c2e84828501610bf5565b91505092915050565b600082825260208201905092915050565b7f6e656564206d6f726520416c6c6f77616e636500000000000000000000000000600082015250565b6000610c7e601383610c37565b9150610c8982610c48565b602082019050919050565b60006020820190508181036000830152610cad81610c71565b9050919050565b7f496e76616c696420706174680000000000000000000000000000000000000000600082015250565b6000610cea600c83610c37565b9150610cf582610cb4565b602082019050919050565b60006020820190508181036000830152610d1981610cdd565b9050919050565b6000606082019050610d356000830186610bbd565b610d426020830185610bbd565b610d4f6040830184610ad9565b949350505050565b60008115159050919050565b610d6c81610d57565b8114610d7757600080fd5b50565b600081519050610d8981610d63565b92915050565b600060208284031215610da557610da46107f3565b5b6000610db384828501610d7a565b91505092915050565b6000604082019050610dd16000830185610bbd565b610dde6020830184610ad9565b9392505050565b7f4e487b7100000000000000000000000000000000000000000000000000000000600052601160045260246000fd5b6000610e1f826107fd565b9150610e2a836107fd565b9250827fffffffffffffffffffffffffffffffffffffffffffffffffffffffffffffffff03821115610e5f57610e5e610de5565b5b828201905092915050565b600082825260208201905092915050565b6000819050919050565b610e8e81610b52565b82525050565b6000610ea08383610e85565b60208301905092915050565b6000610ebb6020840184610b7b565b905092915050565b6000602082019050919050565b6000610edc8385610e6a565b9350610ee782610e7b565b8060005b85811015610f2057610efd8284610eac565b610f078882610e94565b9750610f1283610ec3565b925050600181019050610eeb565b5085925050509392505050565b600060a082019050610f426000830189610ad9565b610f4f6020830188610ad9565b8181036040830152610f62818688610ed0565b9050610f716060830185610bbd565b610f7e6080830184610ad9565b979650505050505050565b6000601f19601f8301169050919050565b7f4e487b7100000000000000000000000000000000000000000000000000000000600052604160045260246000fd5b610fd282610f89565b810181811067ffffffffffffffff82111715610ff157610ff0610f9a565b5b80604052505050565b60006110046107e9565b90506110108282610fc9565b919050565b600067ffffffffffffffff8211156110305761102f610f9a565b5b602082029050602081019050919050565b600061105461104f84611015565b610ffa565b905080838252602082019050602084028301858111156110775761107661083d565b5b835b818110156110a0578061108c8882610bf5565b845260208401935050602081019050611079565b5050509392505050565b600082601f8301126110bf576110be610833565b5b81516110cf848260208601611041565b91505092915050565b6000602082840312156110ee576110ed6107f3565b5b600082015167ffffffffffffffff81111561110c5761110b6107f8565b5b611118848285016110aa565b91505092915050565b60006040820190506111366000830186610ad9565b8181036020830152611149818486610ed0565b9050949350505050565b7f4177617820616d6f756e742063616e6e6f74206265207a65726f000000000000600082015250565b6000611189601a83610c37565b915061119482611153565b602082019050919050565b600060208201905081810360008301526111b88161117c565b9050919050565b60006080820190506111d46000830188610ad9565b81810360208301526111e7818688610ed0565b90506111f66040830185610bbd565b6112036060830184610ad9565b9695505050505050565b6000611218826107fd565b9150611223836107fd565b9250817fffffffffffffffffffffffffffffffffffffffffffffffffffffffffffffffff048311821515161561125c5761125b610de5565b5b828202905092915050565b7f4e487b7100000000000000000000000000000000000000000000000000000000600052601260045260246000fd5b60006112a1826107fd565b91506112ac836107fd565b9250826112bc576112bb611267565b5b82820490509291505056fea264697066735822122031809c984a0e599063fe3e819f3bf29c2c3dff444fa3fb25ae385403f93a77ef64736f6c634300080c0033",
			"opcodes": "PUSH1 0x80 PUSH1 0x40 MSTORE CALLVALUE DUP1 ISZERO PUSH3 0x11 JUMPI PUSH1 0x0 DUP1 REVERT JUMPDEST POP PUSH1 0x40 MLOAD PUSH3 0x1468 CODESIZE SUB DUP1 PUSH3 0x1468 DUP4 CODECOPY DUP2 DUP2 ADD PUSH1 0x40 MSTORE DUP2 ADD SWAP1 PUSH3 0x37 SWAP2 SWAP1 PUSH3 0x129 JUMP JUMPDEST DUP1 PUSH1 0x0 DUP1 PUSH2 0x100 EXP DUP2 SLOAD DUP2 PUSH20 0xFFFFFFFFFFFFFFFFFFFFFFFFFFFFFFFFFFFFFFFF MUL NOT AND SWAP1 DUP4 PUSH20 0xFFFFFFFFFFFFFFFFFFFFFFFFFFFFFFFFFFFFFFFF AND MUL OR SWAP1 SSTORE POP DUP1 PUSH1 0x1 PUSH1 0x0 PUSH2 0x100 EXP DUP2 SLOAD DUP2 PUSH20 0xFFFFFFFFFFFFFFFFFFFFFFFFFFFFFFFFFFFFFFFF MUL NOT AND SWAP1 DUP4 PUSH20 0xFFFFFFFFFFFFFFFFFFFFFFFFFFFFFFFFFFFFFFFF AND MUL OR SWAP1 SSTORE POP POP PUSH3 0x15B JUMP JUMPDEST PUSH1 0x0 DUP1 REVERT JUMPDEST PUSH1 0x0 PUSH20 0xFFFFFFFFFFFFFFFFFFFFFFFFFFFFFFFFFFFFFFFF DUP3 AND SWAP1 POP SWAP2 SWAP1 POP JUMP JUMPDEST PUSH1 0x0 PUSH3 0xF1 DUP3 PUSH3 0xC4 JUMP JUMPDEST SWAP1 POP SWAP2 SWAP1 POP JUMP JUMPDEST PUSH3 0x103 DUP2 PUSH3 0xE4 JUMP JUMPDEST DUP2 EQ PUSH3 0x10F JUMPI PUSH1 0x0 DUP1 REVERT JUMPDEST POP JUMP JUMPDEST PUSH1 0x0 DUP2 MLOAD SWAP1 POP PUSH3 0x123 DUP2 PUSH3 0xF8 JUMP JUMPDEST SWAP3 SWAP2 POP POP JUMP JUMPDEST PUSH1 0x0 PUSH1 0x20 DUP3 DUP5 SUB SLT ISZERO PUSH3 0x142 JUMPI PUSH3 0x141 PUSH3 0xBF JUMP JUMPDEST JUMPDEST PUSH1 0x0 PUSH3 0x152 DUP5 DUP3 DUP6 ADD PUSH3 0x112 JUMP JUMPDEST SWAP2 POP POP SWAP3 SWAP2 POP POP JUMP JUMPDEST PUSH2 0x12FD DUP1 PUSH3 0x16B PUSH1 0x0 CODECOPY PUSH1 0x0 RETURN INVALID PUSH1 0x80 PUSH1 0x40 MSTORE PUSH1 0x4 CALLDATASIZE LT PUSH2 0x4E JUMPI PUSH1 0x0 CALLDATALOAD PUSH1 0xE0 SHR DUP1 PUSH4 0x9085732 EQ PUSH2 0x61 JUMPI DUP1 PUSH4 0x1F00CA74 EQ PUSH2 0x9E JUMPI DUP1 PUSH4 0x26C478C6 EQ PUSH2 0xDB JUMPI DUP1 PUSH4 0x483A9310 EQ PUSH2 0x10B JUMPI DUP1 PUSH4 0xD06CA61F EQ PUSH2 0x148 JUMPI PUSH2 0x4F JUMP JUMPDEST JUMPDEST CALLVALUE DUP1 ISZERO PUSH2 0x5B JUMPI PUSH1 0x0 DUP1 REVERT JUMPDEST POP PUSH1 0x0 DUP1 REVERT JUMPDEST CALLVALUE DUP1 ISZERO PUSH2 0x6D JUMPI PUSH1 0x0 DUP1 REVERT JUMPDEST POP PUSH2 0x88 PUSH1 0x4 DUP1 CALLDATASIZE SUB DUP2 ADD SWAP1 PUSH2 0x83 SWAP2 SWAP1 PUSH2 0x898 JUMP JUMPDEST PUSH2 0x185 JUMP JUMPDEST PUSH1 0x40 MLOAD PUSH2 0x95 SWAP2 SWAP1 PUSH2 0x9CA JUMP JUMPDEST PUSH1 0x40 MLOAD DUP1 SWAP2 SUB SWAP1 RETURN JUMPDEST CALLVALUE DUP1 ISZERO PUSH2 0xAA JUMPI PUSH1 0x0 DUP1 REVERT JUMPDEST POP PUSH2 0xC5 PUSH1 0x4 DUP1 CALLDATASIZE SUB DUP2 ADD SWAP1 PUSH2 0xC0 SWAP2 SWAP1 PUSH2 0x9EC JUMP JUMPDEST PUSH2 0x4C7 JUMP JUMPDEST PUSH1 0x40 MLOAD PUSH2 0xD2 SWAP2 SWAP1 PUSH2 0x9CA JUMP JUMPDEST PUSH1 0x40 MLOAD DUP1 SWAP2 SUB SWAP1 RETURN JUMPDEST PUSH2 0xF5 PUSH1 0x4 DUP1 CALLDATASIZE SUB DUP2 ADD SWAP1 PUSH2 0xF0 SWAP2 SWAP1 PUSH2 0xA4C JUMP JUMPDEST PUSH2 0x575 JUMP JUMPDEST PUSH1 0x40 MLOAD PUSH2 0x102 SWAP2 SWAP1 PUSH2 0x9CA JUMP JUMPDEST PUSH1 0x40 MLOAD DUP1 SWAP2 SUB SWAP1 RETURN JUMPDEST CALLVALUE DUP1 ISZERO PUSH2 0x117 JUMPI PUSH1 0x0 DUP1 REVERT JUMPDEST POP PUSH2 0x132 PUSH1 0x4 DUP1 CALLDATASIZE SUB DUP2 ADD SWAP1 PUSH2 0x12D SWAP2 SWAP1 PUSH2 0xAAC JUMP JUMPDEST PUSH2 0x6F0 JUMP JUMPDEST PUSH1 0x40 MLOAD PUSH2 0x13F SWAP2 SWAP1 PUSH2 0xAE8 JUMP JUMPDEST PUSH1 0x40 MLOAD DUP1 SWAP2 SUB SWAP1 RETURN JUMPDEST CALLVALUE DUP1 ISZERO PUSH2 0x154 JUMPI PUSH1 0x0 DUP1 REVERT JUMPDEST POP PUSH2 0x16F PUSH1 0x4 DUP1 CALLDATASIZE SUB DUP2 ADD SWAP1 PUSH2 0x16A SWAP2 SWAP1 PUSH2 0x9EC JUMP JUMPDEST PUSH2 0x70F JUMP JUMPDEST PUSH1 0x40 MLOAD PUSH2 0x17C SWAP2 SWAP1 PUSH2 0x9CA JUMP JUMPDEST PUSH1 0x40 MLOAD DUP1 SWAP2 SUB SWAP1 RETURN JUMPDEST PUSH1 0x60 PUSH1 0x0 DUP5 DUP5 PUSH1 0x0 DUP2 DUP2 LT PUSH2 0x19D JUMPI PUSH2 0x19C PUSH2 0xB03 JUMP JUMPDEST JUMPDEST SWAP1 POP PUSH1 0x20 MUL ADD PUSH1 0x20 DUP2 ADD SWAP1 PUSH2 0x1B2 SWAP2 SWAP1 PUSH2 0xB90 JUMP JUMPDEST SWAP1 POP DUP6 DUP2 PUSH20 0xFFFFFFFFFFFFFFFFFFFFFFFFFFFFFFFFFFFFFFFF AND PUSH4 0xDD62ED3E CALLER ADDRESS PUSH1 0x40 MLOAD DUP4 PUSH4 0xFFFFFFFF AND PUSH1 0xE0 SHL DUP2 MSTORE PUSH1 0x4 ADD PUSH2 0x1F0 SWAP3 SWAP2 SWAP1 PUSH2 0xBCC JUMP JUMPDEST PUSH1 0x20 PUSH1 0x40 MLOAD DUP1 DUP4 SUB DUP2 DUP7 GAS STATICCALL ISZERO DUP1 ISZERO PUSH2 0x20D JUMPI RETURNDATASIZE PUSH1 0x0 DUP1 RETURNDATACOPY RETURNDATASIZE PUSH1 0x0 REVERT JUMPDEST POP POP POP POP PUSH1 0x40 MLOAD RETURNDATASIZE PUSH1 0x1F NOT PUSH1 0x1F DUP3 ADD AND DUP3 ADD DUP1 PUSH1 0x40 MSTORE POP DUP2 ADD SWAP1 PUSH2 0x231 SWAP2 SWAP1 PUSH2 0xC0A JUMP JUMPDEST LT ISZERO PUSH2 0x272 JUMPI PUSH1 0x40 MLOAD PUSH32 0x8C379A000000000000000000000000000000000000000000000000000000000 DUP2 MSTORE PUSH1 0x4 ADD PUSH2 0x269 SWAP1 PUSH2 0xC94 JUMP JUMPDEST PUSH1 0x40 MLOAD DUP1 SWAP2 SUB SWAP1 REVERT JUMPDEST PUSH1 0x3 DUP6 DUP6 SWAP1 POP EQ PUSH2 0x2B8 JUMPI PUSH1 0x40 MLOAD PUSH32 0x8C379A000000000000000000000000000000000000000000000000000000000 DUP2 MSTORE PUSH1 0x4 ADD PUSH2 0x2AF SWAP1 PUSH2 0xD00 JUMP JUMPDEST PUSH1 0x40 MLOAD DUP1 SWAP2 SUB SWAP1 REVERT JUMPDEST DUP1 PUSH20 0xFFFFFFFFFFFFFFFFFFFFFFFFFFFFFFFFFFFFFFFF AND PUSH4 0x23B872DD CALLER ADDRESS DUP10 PUSH1 0x40 MLOAD DUP5 PUSH4 0xFFFFFFFF AND PUSH1 0xE0 SHL DUP2 MSTORE PUSH1 0x4 ADD PUSH2 0x2F5 SWAP4 SWAP3 SWAP2 SWAP1 PUSH2 0xD20 JUMP JUMPDEST PUSH1 0x20 PUSH1 0x40 MLOAD DUP1 DUP4 SUB DUP2 PUSH1 0x0 DUP8 GAS CALL ISZERO DUP1 ISZERO PUSH2 0x314 JUMPI RETURNDATASIZE PUSH1 0x0 DUP1 RETURNDATACOPY RETURNDATASIZE PUSH1 0x0 REVERT JUMPDEST POP POP POP POP PUSH1 0x40 MLOAD RETURNDATASIZE PUSH1 0x1F NOT PUSH1 0x1F DUP3 ADD AND DUP3 ADD DUP1 PUSH1 0x40 MSTORE POP DUP2 ADD SWAP1 PUSH2 0x338 SWAP2 SWAP1 PUSH2 0xD8F JUMP JUMPDEST POP DUP1 PUSH20 0xFFFFFFFFFFFFFFFFFFFFFFFFFFFFFFFFFFFFFFFF AND PUSH4 0x95EA7B3 PUSH1 0x1 PUSH1 0x0 SWAP1 SLOAD SWAP1 PUSH2 0x100 EXP SWAP1 DIV PUSH20 0xFFFFFFFFFFFFFFFFFFFFFFFFFFFFFFFFFFFFFFFF AND DUP9 PUSH1 0x40 MLOAD DUP4 PUSH4 0xFFFFFFFF AND PUSH1 0xE0 SHL DUP2 MSTORE PUSH1 0x4 ADD PUSH2 0x396 SWAP3 SWAP2 SWAP1 PUSH2 0xDBC JUMP JUMPDEST PUSH1 0x20 PUSH1 0x40 MLOAD DUP1 DUP4 SUB DUP2 PUSH1 0x0 DUP8 GAS CALL ISZERO DUP1 ISZERO PUSH2 0x3B5 JUMPI RETURNDATASIZE PUSH1 0x0 DUP1 RETURNDATACOPY RETURNDATASIZE PUSH1 0x0 REVERT JUMPDEST POP POP POP POP PUSH1 0x40 MLOAD RETURNDATASIZE PUSH1 0x1F NOT PUSH1 0x1F DUP3 ADD AND DUP3 ADD DUP1 PUSH1 0x40 MSTORE POP DUP2 ADD SWAP1 PUSH2 0x3D9 SWAP2 SWAP1 PUSH2 0xD8F JUMP JUMPDEST POP PUSH1 0x0 PUSH2 0x3E7 DUP8 DUP8 DUP8 PUSH2 0x70F JUMP JUMPDEST SWAP1 POP PUSH1 0x0 DUP1 SLOAD SWAP1 PUSH2 0x100 EXP SWAP1 DIV PUSH20 0xFFFFFFFFFFFFFFFFFFFFFFFFFFFFFFFFFFFFFFFF AND PUSH20 0xFFFFFFFFFFFFFFFFFFFFFFFFFFFFFFFFFFFFFFFF AND PUSH4 0x8803DBEE DUP9 DUP4 PUSH1 0x2 DUP2 MLOAD DUP2 LT PUSH2 0x43A JUMPI PUSH2 0x439 PUSH2 0xB03 JUMP JUMPDEST JUMPDEST PUSH1 0x20 MUL PUSH1 0x20 ADD ADD MLOAD DUP10 DUP10 CALLER PUSH1 0x3C TIMESTAMP PUSH2 0x452 SWAP2 SWAP1 PUSH2 0xE14 JUMP JUMPDEST PUSH1 0x40 MLOAD DUP8 PUSH4 0xFFFFFFFF AND PUSH1 0xE0 SHL DUP2 MSTORE PUSH1 0x4 ADD PUSH2 0x473 SWAP7 SWAP6 SWAP5 SWAP4 SWAP3 SWAP2 SWAP1 PUSH2 0xF2D JUMP JUMPDEST PUSH1 0x0 PUSH1 0x40 MLOAD DUP1 DUP4 SUB DUP2 PUSH1 0x0 DUP8 GAS CALL ISZERO DUP1 ISZERO PUSH2 0x492 JUMPI RETURNDATASIZE PUSH1 0x0 DUP1 RETURNDATACOPY RETURNDATASIZE PUSH1 0x0 REVERT JUMPDEST POP POP POP POP PUSH1 0x40 MLOAD RETURNDATASIZE PUSH1 0x0 DUP3 RETURNDATACOPY RETURNDATASIZE PUSH1 0x1F NOT PUSH1 0x1F DUP3 ADD AND DUP3 ADD DUP1 PUSH1 0x40 MSTORE POP DUP2 ADD SWAP1 PUSH2 0x4BB SWAP2 SWAP1 PUSH2 0x10D8 JUMP JUMPDEST SWAP3 POP POP POP SWAP5 SWAP4 POP POP POP POP JUMP JUMPDEST PUSH1 0x60 PUSH1 0x0 DUP1 SLOAD SWAP1 PUSH2 0x100 EXP SWAP1 DIV PUSH20 0xFFFFFFFFFFFFFFFFFFFFFFFFFFFFFFFFFFFFFFFF AND PUSH20 0xFFFFFFFFFFFFFFFFFFFFFFFFFFFFFFFFFFFFFFFF AND PUSH4 0x1F00CA74 DUP6 DUP6 DUP6 PUSH1 0x40 MLOAD DUP5 PUSH4 0xFFFFFFFF AND PUSH1 0xE0 SHL DUP2 MSTORE PUSH1 0x4 ADD PUSH2 0x526 SWAP4 SWAP3 SWAP2 SWAP1 PUSH2 0x1121 JUMP JUMPDEST PUSH1 0x0 PUSH1 0x40 MLOAD DUP1 DUP4 SUB DUP2 DUP7 GAS STATICCALL ISZERO DUP1 ISZERO PUSH2 0x543 JUMPI RETURNDATASIZE PUSH1 0x0 DUP1 RETURNDATACOPY RETURNDATASIZE PUSH1 0x0 REVERT JUMPDEST POP POP POP POP PUSH1 0x40 MLOAD RETURNDATASIZE PUSH1 0x0 DUP3 RETURNDATACOPY RETURNDATASIZE PUSH1 0x1F NOT PUSH1 0x1F DUP3 ADD AND DUP3 ADD DUP1 PUSH1 0x40 MSTORE POP DUP2 ADD SWAP1 PUSH2 0x56C SWAP2 SWAP1 PUSH2 0x10D8 JUMP JUMPDEST SWAP1 POP SWAP4 SWAP3 POP POP POP JUMP JUMPDEST PUSH1 0x60 PUSH1 0x0 CALLVALUE SWAP1 POP PUSH1 0x0 CALLVALUE GT PUSH2 0x5BF JUMPI PUSH1 0x40 MLOAD PUSH32 0x8C379A000000000000000000000000000000000000000000000000000000000 DUP2 MSTORE PUSH1 0x4 ADD PUSH2 0x5B6 SWAP1 PUSH2 0x119F JUMP JUMPDEST PUSH1 0x40 MLOAD DUP1 SWAP2 SUB SWAP1 REVERT JUMPDEST PUSH1 0x2 DUP6 DUP6 SWAP1 POP EQ PUSH2 0x605 JUMPI PUSH1 0x40 MLOAD PUSH32 0x8C379A000000000000000000000000000000000000000000000000000000000 DUP2 MSTORE PUSH1 0x4 ADD PUSH2 0x5FC SWAP1 PUSH2 0xD00 JUMP JUMPDEST PUSH1 0x40 MLOAD DUP1 SWAP2 SUB SWAP1 REVERT JUMPDEST PUSH1 0x0 PUSH2 0x612 DUP3 DUP8 DUP8 PUSH2 0x70F JUMP JUMPDEST SWAP1 POP PUSH1 0x0 DUP1 SLOAD SWAP1 PUSH2 0x100 EXP SWAP1 DIV PUSH20 0xFFFFFFFFFFFFFFFFFFFFFFFFFFFFFFFFFFFFFFFF AND PUSH20 0xFFFFFFFFFFFFFFFFFFFFFFFFFFFFFFFFFFFFFFFF AND PUSH4 0x8A657E67 CALLVALUE DUP4 PUSH1 0x1 DUP2 MLOAD DUP2 LT PUSH2 0x665 JUMPI PUSH2 0x664 PUSH2 0xB03 JUMP JUMPDEST JUMPDEST PUSH1 0x20 MUL PUSH1 0x20 ADD ADD MLOAD DUP10 DUP10 CALLER PUSH1 0x3C TIMESTAMP PUSH2 0x67D SWAP2 SWAP1 PUSH2 0xE14 JUMP JUMPDEST PUSH1 0x40 MLOAD DUP8 PUSH4 0xFFFFFFFF AND PUSH1 0xE0 SHL DUP2 MSTORE PUSH1 0x4 ADD PUSH2 0x69D SWAP6 SWAP5 SWAP4 SWAP3 SWAP2 SWAP1 PUSH2 0x11BF JUMP JUMPDEST PUSH1 0x0 PUSH1 0x40 MLOAD DUP1 DUP4 SUB DUP2 DUP6 DUP9 GAS CALL ISZERO DUP1 ISZERO PUSH2 0x6BB JUMPI RETURNDATASIZE PUSH1 0x0 DUP1 RETURNDATACOPY RETURNDATASIZE PUSH1 0x0 REVERT JUMPDEST POP POP POP POP POP PUSH1 0x40 MLOAD RETURNDATASIZE PUSH1 0x0 DUP3 RETURNDATACOPY RETURNDATASIZE PUSH1 0x1F NOT PUSH1 0x1F DUP3 ADD AND DUP3 ADD DUP1 PUSH1 0x40 MSTORE POP DUP2 ADD SWAP1 PUSH2 0x6E5 SWAP2 SWAP1 PUSH2 0x10D8 JUMP JUMPDEST SWAP3 POP POP POP SWAP4 SWAP3 POP POP POP JUMP JUMPDEST PUSH1 0x0 PUSH2 0x708 PUSH2 0x700 DUP4 PUSH1 0x3C PUSH2 0x7BD JUMP JUMPDEST PUSH2 0x2710 PUSH2 0x7D3 JUMP JUMPDEST SWAP1 POP SWAP2 SWAP1 POP JUMP JUMPDEST PUSH1 0x60 PUSH1 0x0 DUP1 SLOAD SWAP1 PUSH2 0x100 EXP SWAP1 DIV PUSH20 0xFFFFFFFFFFFFFFFFFFFFFFFFFFFFFFFFFFFFFFFF AND PUSH20 0xFFFFFFFFFFFFFFFFFFFFFFFFFFFFFFFFFFFFFFFF AND PUSH4 0xD06CA61F DUP6 DUP6 DUP6 PUSH1 0x40 MLOAD DUP5 PUSH4 0xFFFFFFFF AND PUSH1 0xE0 SHL DUP2 MSTORE PUSH1 0x4 ADD PUSH2 0x76E SWAP4 SWAP3 SWAP2 SWAP1 PUSH2 0x1121 JUMP JUMPDEST PUSH1 0x0 PUSH1 0x40 MLOAD DUP1 DUP4 SUB DUP2 DUP7 GAS STATICCALL ISZERO DUP1 ISZERO PUSH2 0x78B JUMPI RETURNDATASIZE PUSH1 0x0 DUP1 RETURNDATACOPY RETURNDATASIZE PUSH1 0x0 REVERT JUMPDEST POP POP POP POP PUSH1 0x40 MLOAD RETURNDATASIZE PUSH1 0x0 DUP3 RETURNDATACOPY RETURNDATASIZE PUSH1 0x1F NOT PUSH1 0x1F DUP3 ADD AND DUP3 ADD DUP1 PUSH1 0x40 MSTORE POP DUP2 ADD SWAP1 PUSH2 0x7B4 SWAP2 SWAP1 PUSH2 0x10D8 JUMP JUMPDEST SWAP1 POP SWAP4 SWAP3 POP POP POP JUMP JUMPDEST PUSH1 0x0 DUP2 DUP4 PUSH2 0x7CB SWAP2 SWAP1 PUSH2 0x120D JUMP JUMPDEST SWAP1 POP SWAP3 SWAP2 POP POP JUMP JUMPDEST PUSH1 0x0 DUP2 DUP4 PUSH2 0x7E1 SWAP2 SWAP1 PUSH2 0x1296 JUMP JUMPDEST SWAP1 POP SWAP3 SWAP2 POP POP JUMP JUMPDEST PUSH1 0x0 PUSH1 0x40 MLOAD SWAP1 POP SWAP1 JUMP JUMPDEST PUSH1 0x0 DUP1 REVERT JUMPDEST PUSH1 0x0 DUP1 REVERT JUMPDEST PUSH1 0x0 DUP2 SWAP1 POP SWAP2 SWAP1 POP JUMP JUMPDEST PUSH2 0x810 DUP2 PUSH2 0x7FD JUMP JUMPDEST DUP2 EQ PUSH2 0x81B JUMPI PUSH1 0x0 DUP1 REVERT JUMPDEST POP JUMP JUMPDEST PUSH1 0x0 DUP2 CALLDATALOAD SWAP1 POP PUSH2 0x82D DUP2 PUSH2 0x807 JUMP JUMPDEST SWAP3 SWAP2 POP POP JUMP JUMPDEST PUSH1 0x0 DUP1 REVERT JUMPDEST PUSH1 0x0 DUP1 REVERT JUMPDEST PUSH1 0x0 DUP1 REVERT JUMPDEST PUSH1 0x0 DUP1 DUP4 PUSH1 0x1F DUP5 ADD SLT PUSH2 0x858 JUMPI PUSH2 0x857 PUSH2 0x833 JUMP JUMPDEST JUMPDEST DUP3 CALLDATALOAD SWAP1 POP PUSH8 0xFFFFFFFFFFFFFFFF DUP2 GT ISZERO PUSH2 0x875 JUMPI PUSH2 0x874 PUSH2 0x838 JUMP JUMPDEST JUMPDEST PUSH1 0x20 DUP4 ADD SWAP2 POP DUP4 PUSH1 0x20 DUP3 MUL DUP4 ADD GT ISZERO PUSH2 0x891 JUMPI PUSH2 0x890 PUSH2 0x83D JUMP JUMPDEST JUMPDEST SWAP3 POP SWAP3 SWAP1 POP JUMP JUMPDEST PUSH1 0x0 DUP1 PUSH1 0x0 DUP1 PUSH1 0x60 DUP6 DUP8 SUB SLT ISZERO PUSH2 0x8B2 JUMPI PUSH2 0x8B1 PUSH2 0x7F3 JUMP JUMPDEST JUMPDEST PUSH1 0x0 PUSH2 0x8C0 DUP8 DUP3 DUP9 ADD PUSH2 0x81E JUMP JUMPDEST SWAP5 POP POP PUSH1 0x20 DUP6 ADD CALLDATALOAD PUSH8 0xFFFFFFFFFFFFFFFF DUP2 GT ISZERO PUSH2 0x8E1 JUMPI PUSH2 0x8E0 PUSH2 0x7F8 JUMP JUMPDEST JUMPDEST PUSH2 0x8ED DUP8 DUP3 DUP9 ADD PUSH2 0x842 JUMP JUMPDEST SWAP4 POP SWAP4 POP POP PUSH1 0x40 PUSH2 0x900 DUP8 DUP3 DUP9 ADD PUSH2 0x81E JUMP JUMPDEST SWAP2 POP POP SWAP3 SWAP6 SWAP2 SWAP5 POP SWAP3 POP JUMP JUMPDEST PUSH1 0x0 DUP2 MLOAD SWAP1 POP SWAP2 SWAP1 POP JUMP JUMPDEST PUSH1 0x0 DUP3 DUP3 MSTORE PUSH1 0x20 DUP3 ADD SWAP1 POP SWAP3 SWAP2 POP POP JUMP JUMPDEST PUSH1 0x0 DUP2 SWAP1 POP PUSH1 0x20 DUP3 ADD SWAP1 POP SWAP2 SWAP1 POP JUMP JUMPDEST PUSH2 0x941 DUP2 PUSH2 0x7FD JUMP JUMPDEST DUP3 MSTORE POP POP JUMP JUMPDEST PUSH1 0x0 PUSH2 0x953 DUP4 DUP4 PUSH2 0x938 JUMP JUMPDEST PUSH1 0x20 DUP4 ADD SWAP1 POP SWAP3 SWAP2 POP POP JUMP JUMPDEST PUSH1 0x0 PUSH1 0x20 DUP3 ADD SWAP1 POP SWAP2 SWAP1 POP JUMP JUMPDEST PUSH1 0x0 PUSH2 0x977 DUP3 PUSH2 0x90C JUMP JUMPDEST PUSH2 0x981 DUP2 DUP6 PUSH2 0x917 JUMP JUMPDEST SWAP4 POP PUSH2 0x98C DUP4 PUSH2 0x928 JUMP JUMPDEST DUP1 PUSH1 0x0 JUMPDEST DUP4 DUP2 LT ISZERO PUSH2 0x9BD JUMPI DUP2 MLOAD PUSH2 0x9A4 DUP9 DUP3 PUSH2 0x947 JUMP JUMPDEST SWAP8 POP PUSH2 0x9AF DUP4 PUSH2 0x95F JUMP JUMPDEST SWAP3 POP POP PUSH1 0x1 DUP2 ADD SWAP1 POP PUSH2 0x990 JUMP JUMPDEST POP DUP6 SWAP4 POP POP POP POP SWAP3 SWAP2 POP POP JUMP JUMPDEST PUSH1 0x0 PUSH1 0x20 DUP3 ADD SWAP1 POP DUP2 DUP2 SUB PUSH1 0x0 DUP4 ADD MSTORE PUSH2 0x9E4 DUP2 DUP5 PUSH2 0x96C JUMP JUMPDEST SWAP1 POP SWAP3 SWAP2 POP POP JUMP JUMPDEST PUSH1 0x0 DUP1 PUSH1 0x0 PUSH1 0x40 DUP5 DUP7 SUB SLT ISZERO PUSH2 0xA05 JUMPI PUSH2 0xA04 PUSH2 0x7F3 JUMP JUMPDEST JUMPDEST PUSH1 0x0 PUSH2 0xA13 DUP7 DUP3 DUP8 ADD PUSH2 0x81E JUMP JUMPDEST SWAP4 POP POP PUSH1 0x20 DUP5 ADD CALLDATALOAD PUSH8 0xFFFFFFFFFFFFFFFF DUP2 GT ISZERO PUSH2 0xA34 JUMPI PUSH2 0xA33 PUSH2 0x7F8 JUMP JUMPDEST JUMPDEST PUSH2 0xA40 DUP7 DUP3 DUP8 ADD PUSH2 0x842 JUMP JUMPDEST SWAP3 POP SWAP3 POP POP SWAP3 POP SWAP3 POP SWAP3 JUMP JUMPDEST PUSH1 0x0 DUP1 PUSH1 0x0 PUSH1 0x40 DUP5 DUP7 SUB SLT ISZERO PUSH2 0xA65 JUMPI PUSH2 0xA64 PUSH2 0x7F3 JUMP JUMPDEST JUMPDEST PUSH1 0x0 DUP5 ADD CALLDATALOAD PUSH8 0xFFFFFFFFFFFFFFFF DUP2 GT ISZERO PUSH2 0xA83 JUMPI PUSH2 0xA82 PUSH2 0x7F8 JUMP JUMPDEST JUMPDEST PUSH2 0xA8F DUP7 DUP3 DUP8 ADD PUSH2 0x842 JUMP JUMPDEST SWAP4 POP SWAP4 POP POP PUSH1 0x20 PUSH2 0xAA2 DUP7 DUP3 DUP8 ADD PUSH2 0x81E JUMP JUMPDEST SWAP2 POP POP SWAP3 POP SWAP3 POP SWAP3 JUMP JUMPDEST PUSH1 0x0 PUSH1 0x20 DUP3 DUP5 SUB SLT ISZERO PUSH2 0xAC2 JUMPI PUSH2 0xAC1 PUSH2 0x7F3 JUMP JUMPDEST JUMPDEST PUSH1 0x0 PUSH2 0xAD0 DUP5 DUP3 DUP6 ADD PUSH2 0x81E JUMP JUMPDEST SWAP2 POP POP SWAP3 SWAP2 POP POP JUMP JUMPDEST PUSH2 0xAE2 DUP2 PUSH2 0x7FD JUMP JUMPDEST DUP3 MSTORE POP POP JUMP JUMPDEST PUSH1 0x0 PUSH1 0x20 DUP3 ADD SWAP1 POP PUSH2 0xAFD PUSH1 0x0 DUP4 ADD DUP5 PUSH2 0xAD9 JUMP JUMPDEST SWAP3 SWAP2 POP POP JUMP JUMPDEST PUSH32 0x4E487B7100000000000000000000000000000000000000000000000000000000 PUSH1 0x0 MSTORE PUSH1 0x32 PUSH1 0x4 MSTORE PUSH1 0x24 PUSH1 0x0 REVERT JUMPDEST PUSH1 0x0 PUSH20 0xFFFFFFFFFFFFFFFFFFFFFFFFFFFFFFFFFFFFFFFF DUP3 AND SWAP1 POP SWAP2 SWAP1 POP JUMP JUMPDEST PUSH1 0x0 PUSH2 0xB5D DUP3 PUSH2 0xB32 JUMP JUMPDEST SWAP1 POP SWAP2 SWAP1 POP JUMP JUMPDEST PUSH2 0xB6D DUP2 PUSH2 0xB52 JUMP JUMPDEST DUP2 EQ PUSH2 0xB78 JUMPI PUSH1 0x0 DUP1 REVERT JUMPDEST POP JUMP JUMPDEST PUSH1 0x0 DUP2 CALLDATALOAD SWAP1 POP PUSH2 0xB8A DUP2 PUSH2 0xB64 JUMP JUMPDEST SWAP3 SWAP2 POP POP JUMP JUMPDEST PUSH1 0x0 PUSH1 0x20 DUP3 DUP5 SUB SLT ISZERO PUSH2 0xBA6 JUMPI PUSH2 0xBA5 PUSH2 0x7F3 JUMP JUMPDEST JUMPDEST PUSH1 0x0 PUSH2 0xBB4 DUP5 DUP3 DUP6 ADD PUSH2 0xB7B JUMP JUMPDEST SWAP2 POP POP SWAP3 SWAP2 POP POP JUMP JUMPDEST PUSH2 0xBC6 DUP2 PUSH2 0xB52 JUMP JUMPDEST DUP3 MSTORE POP POP JUMP JUMPDEST PUSH1 0x0 PUSH1 0x40 DUP3 ADD SWAP1 POP PUSH2 0xBE1 PUSH1 0x0 DUP4 ADD DUP6 PUSH2 0xBBD JUMP JUMPDEST PUSH2 0xBEE PUSH1 0x20 DUP4 ADD DUP5 PUSH2 0xBBD JUMP JUMPDEST SWAP4 SWAP3 POP POP POP JUMP JUMPDEST PUSH1 0x0 DUP2 MLOAD SWAP1 POP PUSH2 0xC04 DUP2 PUSH2 0x807 JUMP JUMPDEST SWAP3 SWAP2 POP POP JUMP JUMPDEST PUSH1 0x0 PUSH1 0x20 DUP3 DUP5 SUB SLT ISZERO PUSH2 0xC20 JUMPI PUSH2 0xC1F PUSH2 0x7F3 JUMP JUMPDEST JUMPDEST PUSH1 0x0 PUSH2 0xC2E DUP5 DUP3 DUP6 ADD PUSH2 0xBF5 JUMP JUMPDEST SWAP2 POP POP SWAP3 SWAP2 POP POP JUMP JUMPDEST PUSH1 0x0 DUP3 DUP3 MSTORE PUSH1 0x20 DUP3 ADD SWAP1 POP SWAP3 SWAP2 POP POP JUMP JUMPDEST PUSH32 0x6E656564206D6F726520416C6C6F77616E636500000000000000000000000000 PUSH1 0x0 DUP3 ADD MSTORE POP JUMP JUMPDEST PUSH1 0x0 PUSH2 0xC7E PUSH1 0x13 DUP4 PUSH2 0xC37 JUMP JUMPDEST SWAP2 POP PUSH2 0xC89 DUP3 PUSH2 0xC48 JUMP JUMPDEST PUSH1 0x20 DUP3 ADD SWAP1 POP SWAP2 SWAP1 POP JUMP JUMPDEST PUSH1 0x0 PUSH1 0x20 DUP3 ADD SWAP1 POP DUP2 DUP2 SUB PUSH1 0x0 DUP4 ADD MSTORE PUSH2 0xCAD DUP2 PUSH2 0xC71 JUMP JUMPDEST SWAP1 POP SWAP2 SWAP1 POP JUMP JUMPDEST PUSH32 0x496E76616C696420706174680000000000000000000000000000000000000000 PUSH1 0x0 DUP3 ADD MSTORE POP JUMP JUMPDEST PUSH1 0x0 PUSH2 0xCEA PUSH1 0xC DUP4 PUSH2 0xC37 JUMP JUMPDEST SWAP2 POP PUSH2 0xCF5 DUP3 PUSH2 0xCB4 JUMP JUMPDEST PUSH1 0x20 DUP3 ADD SWAP1 POP SWAP2 SWAP1 POP JUMP JUMPDEST PUSH1 0x0 PUSH1 0x20 DUP3 ADD SWAP1 POP DUP2 DUP2 SUB PUSH1 0x0 DUP4 ADD MSTORE PUSH2 0xD19 DUP2 PUSH2 0xCDD JUMP JUMPDEST SWAP1 POP SWAP2 SWAP1 POP JUMP JUMPDEST PUSH1 0x0 PUSH1 0x60 DUP3 ADD SWAP1 POP PUSH2 0xD35 PUSH1 0x0 DUP4 ADD DUP7 PUSH2 0xBBD JUMP JUMPDEST PUSH2 0xD42 PUSH1 0x20 DUP4 ADD DUP6 PUSH2 0xBBD JUMP JUMPDEST PUSH2 0xD4F PUSH1 0x40 DUP4 ADD DUP5 PUSH2 0xAD9 JUMP JUMPDEST SWAP5 SWAP4 POP POP POP POP JUMP JUMPDEST PUSH1 0x0 DUP2 ISZERO ISZERO SWAP1 POP SWAP2 SWAP1 POP JUMP JUMPDEST PUSH2 0xD6C DUP2 PUSH2 0xD57 JUMP JUMPDEST DUP2 EQ PUSH2 0xD77 JUMPI PUSH1 0x0 DUP1 REVERT JUMPDEST POP JUMP JUMPDEST PUSH1 0x0 DUP2 MLOAD SWAP1 POP PUSH2 0xD89 DUP2 PUSH2 0xD63 JUMP JUMPDEST SWAP3 SWAP2 POP POP JUMP JUMPDEST PUSH1 0x0 PUSH1 0x20 DUP3 DUP5 SUB SLT ISZERO PUSH2 0xDA5 JUMPI PUSH2 0xDA4 PUSH2 0x7F3 JUMP JUMPDEST JUMPDEST PUSH1 0x0 PUSH2 0xDB3 DUP5 DUP3 DUP6 ADD PUSH2 0xD7A JUMP JUMPDEST SWAP2 POP POP SWAP3 SWAP2 POP POP JUMP JUMPDEST PUSH1 0x0 PUSH1 0x40 DUP3 ADD SWAP1 POP PUSH2 0xDD1 PUSH1 0x0 DUP4 ADD DUP6 PUSH2 0xBBD JUMP JUMPDEST PUSH2 0xDDE PUSH1 0x20 DUP4 ADD DUP5 PUSH2 0xAD9 JUMP JUMPDEST SWAP4 SWAP3 POP POP POP JUMP JUMPDEST PUSH32 0x4E487B7100000000000000000000000000000000000000000000000000000000 PUSH1 0x0 MSTORE PUSH1 0x11 PUSH1 0x4 MSTORE PUSH1 0x24 PUSH1 0x0 REVERT JUMPDEST PUSH1 0x0 PUSH2 0xE1F DUP3 PUSH2 0x7FD JUMP JUMPDEST SWAP2 POP PUSH2 0xE2A DUP4 PUSH2 0x7FD JUMP JUMPDEST SWAP3 POP DUP3 PUSH32 0xFFFFFFFFFFFFFFFFFFFFFFFFFFFFFFFFFFFFFFFFFFFFFFFFFFFFFFFFFFFFFFFF SUB DUP3 GT ISZERO PUSH2 0xE5F JUMPI PUSH2 0xE5E PUSH2 0xDE5 JUMP JUMPDEST JUMPDEST DUP3 DUP3 ADD SWAP1 POP SWAP3 SWAP2 POP POP JUMP JUMPDEST PUSH1 0x0 DUP3 DUP3 MSTORE PUSH1 0x20 DUP3 ADD SWAP1 POP SWAP3 SWAP2 POP POP JUMP JUMPDEST PUSH1 0x0 DUP2 SWAP1 POP SWAP2 SWAP1 POP JUMP JUMPDEST PUSH2 0xE8E DUP2 PUSH2 0xB52 JUMP JUMPDEST DUP3 MSTORE POP POP JUMP JUMPDEST PUSH1 0x0 PUSH2 0xEA0 DUP4 DUP4 PUSH2 0xE85 JUMP JUMPDEST PUSH1 0x20 DUP4 ADD SWAP1 POP SWAP3 SWAP2 POP POP JUMP JUMPDEST PUSH1 0x0 PUSH2 0xEBB PUSH1 0x20 DUP5 ADD DUP5 PUSH2 0xB7B JUMP JUMPDEST SWAP1 POP SWAP3 SWAP2 POP POP JUMP JUMPDEST PUSH1 0x0 PUSH1 0x20 DUP3 ADD SWAP1 POP SWAP2 SWAP1 POP JUMP JUMPDEST PUSH1 0x0 PUSH2 0xEDC DUP4 DUP6 PUSH2 0xE6A JUMP JUMPDEST SWAP4 POP PUSH2 0xEE7 DUP3 PUSH2 0xE7B JUMP JUMPDEST DUP1 PUSH1 0x0 JUMPDEST DUP6 DUP2 LT ISZERO PUSH2 0xF20 JUMPI PUSH2 0xEFD DUP3 DUP5 PUSH2 0xEAC JUMP JUMPDEST PUSH2 0xF07 DUP9 DUP3 PUSH2 0xE94 JUMP JUMPDEST SWAP8 POP PUSH2 0xF12 DUP4 PUSH2 0xEC3 JUMP JUMPDEST SWAP3 POP POP PUSH1 0x1 DUP2 ADD SWAP1 POP PUSH2 0xEEB JUMP JUMPDEST POP DUP6 SWAP3 POP POP POP SWAP4 SWAP3 POP POP POP JUMP JUMPDEST PUSH1 0x0 PUSH1 0xA0 DUP3 ADD SWAP1 POP PUSH2 0xF42 PUSH1 0x0 DUP4 ADD DUP10 PUSH2 0xAD9 JUMP JUMPDEST PUSH2 0xF4F PUSH1 0x20 DUP4 ADD DUP9 PUSH2 0xAD9 JUMP JUMPDEST DUP2 DUP2 SUB PUSH1 0x40 DUP4 ADD MSTORE PUSH2 0xF62 DUP2 DUP7 DUP9 PUSH2 0xED0 JUMP JUMPDEST SWAP1 POP PUSH2 0xF71 PUSH1 0x60 DUP4 ADD DUP6 PUSH2 0xBBD JUMP JUMPDEST PUSH2 0xF7E PUSH1 0x80 DUP4 ADD DUP5 PUSH2 0xAD9 JUMP JUMPDEST SWAP8 SWAP7 POP POP POP POP POP POP POP JUMP JUMPDEST PUSH1 0x0 PUSH1 0x1F NOT PUSH1 0x1F DUP4 ADD AND SWAP1 POP SWAP2 SWAP1 POP JUMP JUMPDEST PUSH32 0x4E487B7100000000000000000000000000000000000000000000000000000000 PUSH1 0x0 MSTORE PUSH1 0x41 PUSH1 0x4 MSTORE PUSH1 0x24 PUSH1 0x0 REVERT JUMPDEST PUSH2 0xFD2 DUP3 PUSH2 0xF89 JUMP JUMPDEST DUP2 ADD DUP2 DUP2 LT PUSH8 0xFFFFFFFFFFFFFFFF DUP3 GT OR ISZERO PUSH2 0xFF1 JUMPI PUSH2 0xFF0 PUSH2 0xF9A JUMP JUMPDEST JUMPDEST DUP1 PUSH1 0x40 MSTORE POP POP POP JUMP JUMPDEST PUSH1 0x0 PUSH2 0x1004 PUSH2 0x7E9 JUMP JUMPDEST SWAP1 POP PUSH2 0x1010 DUP3 DUP3 PUSH2 0xFC9 JUMP JUMPDEST SWAP2 SWAP1 POP JUMP JUMPDEST PUSH1 0x0 PUSH8 0xFFFFFFFFFFFFFFFF DUP3 GT ISZERO PUSH2 0x1030 JUMPI PUSH2 0x102F PUSH2 0xF9A JUMP JUMPDEST JUMPDEST PUSH1 0x20 DUP3 MUL SWAP1 POP PUSH1 0x20 DUP2 ADD SWAP1 POP SWAP2 SWAP1 POP JUMP JUMPDEST PUSH1 0x0 PUSH2 0x1054 PUSH2 0x104F DUP5 PUSH2 0x1015 JUMP JUMPDEST PUSH2 0xFFA JUMP JUMPDEST SWAP1 POP DUP1 DUP4 DUP3 MSTORE PUSH1 0x20 DUP3 ADD SWAP1 POP PUSH1 0x20 DUP5 MUL DUP4 ADD DUP6 DUP2 GT ISZERO PUSH2 0x1077 JUMPI PUSH2 0x1076 PUSH2 0x83D JUMP JUMPDEST JUMPDEST DUP4 JUMPDEST DUP2 DUP2 LT ISZERO PUSH2 0x10A0 JUMPI DUP1 PUSH2 0x108C DUP9 DUP3 PUSH2 0xBF5 JUMP JUMPDEST DUP5 MSTORE PUSH1 0x20 DUP5 ADD SWAP4 POP POP PUSH1 0x20 DUP2 ADD SWAP1 POP PUSH2 0x1079 JUMP JUMPDEST POP POP POP SWAP4 SWAP3 POP POP POP JUMP JUMPDEST PUSH1 0x0 DUP3 PUSH1 0x1F DUP4 ADD SLT PUSH2 0x10BF JUMPI PUSH2 0x10BE PUSH2 0x833 JUMP JUMPDEST JUMPDEST DUP2 MLOAD PUSH2 0x10CF DUP5 DUP3 PUSH1 0x20 DUP7 ADD PUSH2 0x1041 JUMP JUMPDEST SWAP2 POP POP SWAP3 SWAP2 POP POP JUMP JUMPDEST PUSH1 0x0 PUSH1 0x20 DUP3 DUP5 SUB SLT ISZERO PUSH2 0x10EE JUMPI PUSH2 0x10ED PUSH2 0x7F3 JUMP JUMPDEST JUMPDEST PUSH1 0x0 DUP3 ADD MLOAD PUSH8 0xFFFFFFFFFFFFFFFF DUP2 GT ISZERO PUSH2 0x110C JUMPI PUSH2 0x110B PUSH2 0x7F8 JUMP JUMPDEST JUMPDEST PUSH2 0x1118 DUP5 DUP3 DUP6 ADD PUSH2 0x10AA JUMP JUMPDEST SWAP2 POP POP SWAP3 SWAP2 POP POP JUMP JUMPDEST PUSH1 0x0 PUSH1 0x40 DUP3 ADD SWAP1 POP PUSH2 0x1136 PUSH1 0x0 DUP4 ADD DUP7 PUSH2 0xAD9 JUMP JUMPDEST DUP2 DUP2 SUB PUSH1 0x20 DUP4 ADD MSTORE PUSH2 0x1149 DUP2 DUP5 DUP7 PUSH2 0xED0 JUMP JUMPDEST SWAP1 POP SWAP5 SWAP4 POP POP POP POP JUMP JUMPDEST PUSH32 0x4177617820616D6F756E742063616E6E6F74206265207A65726F000000000000 PUSH1 0x0 DUP3 ADD MSTORE POP JUMP JUMPDEST PUSH1 0x0 PUSH2 0x1189 PUSH1 0x1A DUP4 PUSH2 0xC37 JUMP JUMPDEST SWAP2 POP PUSH2 0x1194 DUP3 PUSH2 0x1153 JUMP JUMPDEST PUSH1 0x20 DUP3 ADD SWAP1 POP SWAP2 SWAP1 POP JUMP JUMPDEST PUSH1 0x0 PUSH1 0x20 DUP3 ADD SWAP1 POP DUP2 DUP2 SUB PUSH1 0x0 DUP4 ADD MSTORE PUSH2 0x11B8 DUP2 PUSH2 0x117C JUMP JUMPDEST SWAP1 POP SWAP2 SWAP1 POP JUMP JUMPDEST PUSH1 0x0 PUSH1 0x80 DUP3 ADD SWAP1 POP PUSH2 0x11D4 PUSH1 0x0 DUP4 ADD DUP9 PUSH2 0xAD9 JUMP JUMPDEST DUP2 DUP2 SUB PUSH1 0x20 DUP4 ADD MSTORE PUSH2 0x11E7 DUP2 DUP7 DUP9 PUSH2 0xED0 JUMP JUMPDEST SWAP1 POP PUSH2 0x11F6 PUSH1 0x40 DUP4 ADD DUP6 PUSH2 0xBBD JUMP JUMPDEST PUSH2 0x1203 PUSH1 0x60 DUP4 ADD DUP5 PUSH2 0xAD9 JUMP JUMPDEST SWAP7 SWAP6 POP POP POP POP POP POP JUMP JUMPDEST PUSH1 0x0 PUSH2 0x1218 DUP3 PUSH2 0x7FD JUMP JUMPDEST SWAP2 POP PUSH2 0x1223 DUP4 PUSH2 0x7FD JUMP JUMPDEST SWAP3 POP DUP2 PUSH32 0xFFFFFFFFFFFFFFFFFFFFFFFFFFFFFFFFFFFFFFFFFFFFFFFFFFFFFFFFFFFFFFFF DIV DUP4 GT DUP3 ISZERO ISZERO AND ISZERO PUSH2 0x125C JUMPI PUSH2 0x125B PUSH2 0xDE5 JUMP JUMPDEST JUMPDEST DUP3 DUP3 MUL SWAP1 POP SWAP3 SWAP2 POP POP JUMP JUMPDEST PUSH32 0x4E487B7100000000000000000000000000000000000000000000000000000000 PUSH1 0x0 MSTORE PUSH1 0x12 PUSH1 0x4 MSTORE PUSH1 0x24 PUSH1 0x0 REVERT JUMPDEST PUSH1 0x0 PUSH2 0x12A1 DUP3 PUSH2 0x7FD JUMP JUMPDEST SWAP2 POP PUSH2 0x12AC DUP4 PUSH2 0x7FD JUMP JUMPDEST SWAP3 POP DUP3 PUSH2 0x12BC JUMPI PUSH2 0x12BB PUSH2 0x1267 JUMP JUMPDEST JUMPDEST DUP3 DUP3 DIV SWAP1 POP SWAP3 SWAP2 POP POP JUMP INVALID LOG2 PUSH5 0x6970667358 0x22 SLT KECCAK256 BALANCE DUP1 SWAP13 SWAP9 0x4A 0xE MSIZE SWAP1 PUSH4 0xFE3E819F EXTCODESIZE CALLCODE SWAP13 0x2C RETURNDATASIZE SELFDESTRUCT DIFFICULTY 0x4F LOG3 0xFB 0x25 0xAE CODESIZE SLOAD SUB 0xF9 GASPRICE PUSH24 0xEF64736F6C634300080C0033000000000000000000000000 "
		},
		"gasEstimates": {
			"creation": {
				"codeDepositCost": "972200",
				"executionCost": "infinite",
				"totalCost": "infinite"
			},
			"external": {
				"": "203",
				"calculateTax(uint256)": "infinite",
				"getAmountsIn(uint256,address[])": "infinite",
				"getAmountsOut(uint256,address[])": "infinite",
				"swapAVAXForExactTokens(address[],uint256)": "infinite",
				"swapTokensForExactTokens(uint256,address[],uint256)": "infinite"
			}
		},
		"methodIdentifiers": {
			"calculateTax(uint256)": "483a9310",
			"getAmountsIn(uint256,address[])": "1f00ca74",
			"getAmountsOut(uint256,address[])": "d06ca61f",
			"swapAVAXForExactTokens(address[],uint256)": "26c478c6",
			"swapTokensForExactTokens(uint256,address[],uint256)": "09085732"
		}
	},
	"abi": [
		{
			"inputs": [
				{
					"internalType": "address",
					"name": "_router",
					"type": "address"
				}
			],
			"stateMutability": "nonpayable",
			"type": "constructor"
		},
		{
			"stateMutability": "nonpayable",
			"type": "fallback"
		},
		{
			"inputs": [
				{
					"internalType": "uint256",
					"name": "_amountIn",
					"type": "uint256"
				}
			],
			"name": "calculateTax",
			"outputs": [
				{
					"internalType": "uint256",
					"name": "taxAmount",
					"type": "uint256"
				}
			],
			"stateMutability": "nonpayable",
			"type": "function"
		},
		{
			"inputs": [
				{
					"internalType": "uint256",
					"name": "_amountOut",
					"type": "uint256"
				},
				{
					"internalType": "address[]",
					"name": "_path",
					"type": "address[]"
				}
			],
			"name": "getAmountsIn",
			"outputs": [
				{
					"internalType": "uint256[]",
					"name": "amounts",
					"type": "uint256[]"
				}
			],
			"stateMutability": "view",
			"type": "function"
		},
		{
			"inputs": [
				{
					"internalType": "uint256",
					"name": "_amountIn",
					"type": "uint256"
				},
				{
					"internalType": "address[]",
					"name": "_path",
					"type": "address[]"
				}
			],
			"name": "getAmountsOut",
			"outputs": [
				{
					"internalType": "uint256[]",
					"name": "amounts",
					"type": "uint256[]"
				}
			],
			"stateMutability": "view",
			"type": "function"
		},
		{
			"inputs": [
				{
					"internalType": "address[]",
					"name": "_path",
					"type": "address[]"
				},
				{
					"internalType": "uint256",
					"name": "_deadline",
					"type": "uint256"
				}
			],
			"name": "swapAVAXForExactTokens",
			"outputs": [
				{
					"internalType": "uint256[]",
					"name": "amounts",
					"type": "uint256[]"
				}
			],
			"stateMutability": "payable",
			"type": "function"
		},
		{
			"inputs": [
				{
					"internalType": "uint256",
					"name": "_amountIn",
					"type": "uint256"
				},
				{
					"internalType": "address[]",
					"name": "_path",
					"type": "address[]"
				},
				{
					"internalType": "uint256",
					"name": "_deadline",
					"type": "uint256"
				}
			],
			"name": "swapTokensForExactTokens",
			"outputs": [
				{
					"internalType": "uint256[]",
					"name": "amounts",
					"type": "uint256[]"
				}
			],
			"stateMutability": "nonpayable",
			"type": "function"
		}
	]
}