{
	"data": {
		"bytecode": {
			"linkReferences": {},
			"object": "60806040526000805534801561001457600080fd5b50610431806100246000396000f3fe6080604052600436106100385760003560e01c80633a3d078814610041578063836bb10f1461006a578063bc6d0577146100935761003f565b3661003f57005b005b34801561004d57600080fd5b5061006860048036038101906100639190610179565b6100d0565b005b34801561007657600080fd5b50610091600480360381019061008c91906101e3565b6100d3565b005b34801561009f57600080fd5b506100ba60048036038101906100b591906101a2565b6100d7565b6040516100c79190610270565b60405180910390f35b50565b5050565b6060600082905080915050919050565b60006100fa6100f5846102c3565b610292565b90508281526020810184848401111561011257600080fd5b61011d84828561034b565b509392505050565b600081359050610134816103cd565b92915050565b600082601f83011261014b57600080fd5b813561015b8482602086016100e7565b91505092915050565b600081359050610173816103e4565b92915050565b60006020828403121561018b57600080fd5b600061019984828501610125565b91505092915050565b6000602082840312156101b457600080fd5b600082013567ffffffffffffffff8111156101ce57600080fd5b6101da8482850161013a565b91505092915050565b600080604083850312156101f657600080fd5b600061020485828601610164565b925050602083013567ffffffffffffffff81111561022157600080fd5b61022d8582860161013a565b9150509250929050565b6000610242826102f3565b61024c81856102fe565b935061025c81856020860161035a565b610265816103bc565b840191505092915050565b6000602082019050818103600083015261028a8184610237565b905092915050565b6000604051905081810181811067ffffffffffffffff821117156102b9576102b861038d565b5b8060405250919050565b600067ffffffffffffffff8211156102de576102dd61038d565b5b601f19601f8301169050602081019050919050565b600081519050919050565b600082825260208201905092915050565b600061031a82610321565b9050919050565b600073ffffffffffffffffffffffffffffffffffffffff82169050919050565b6000819050919050565b82818337600083830152505050565b60005b8381101561037857808201518184015260208101905061035d565b83811115610387576000848401525b50505050565b7f4e487b7100000000000000000000000000000000000000000000000000000000600052604160045260246000fd5b6000601f19601f8301169050919050565b6103d68161030f565b81146103e157600080fd5b50565b6103ed81610341565b81146103f857600080fd5b5056fea2646970667358221220d0c9c5e6515df1648ca2a1dcb61bd88f5db4b3868e82da5d557c7f404cfd919164736f6c63430008000033",
			"opcodes": "PUSH1 0x80 PUSH1 0x40 MSTORE PUSH1 0x0 DUP1 SSTORE CALLVALUE DUP1 ISZERO PUSH2 0x14 JUMPI PUSH1 0x0 DUP1 REVERT JUMPDEST POP PUSH2 0x431 DUP1 PUSH2 0x24 PUSH1 0x0 CODECOPY PUSH1 0x0 RETURN INVALID PUSH1 0x80 PUSH1 0x40 MSTORE PUSH1 0x4 CALLDATASIZE LT PUSH2 0x38 JUMPI PUSH1 0x0 CALLDATALOAD PUSH1 0xE0 SHR DUP1 PUSH4 0x3A3D0788 EQ PUSH2 0x41 JUMPI DUP1 PUSH4 0x836BB10F EQ PUSH2 0x6A JUMPI DUP1 PUSH4 0xBC6D0577 EQ PUSH2 0x93 JUMPI PUSH2 0x3F JUMP JUMPDEST CALLDATASIZE PUSH2 0x3F JUMPI STOP JUMPDEST STOP JUMPDEST CALLVALUE DUP1 ISZERO PUSH2 0x4D JUMPI PUSH1 0x0 DUP1 REVERT JUMPDEST POP PUSH2 0x68 PUSH1 0x4 DUP1 CALLDATASIZE SUB DUP2 ADD SWAP1 PUSH2 0x63 SWAP2 SWAP1 PUSH2 0x179 JUMP JUMPDEST PUSH2 0xD0 JUMP JUMPDEST STOP JUMPDEST CALLVALUE DUP1 ISZERO PUSH2 0x76 JUMPI PUSH1 0x0 DUP1 REVERT JUMPDEST POP PUSH2 0x91 PUSH1 0x4 DUP1 CALLDATASIZE SUB DUP2 ADD SWAP1 PUSH2 0x8C SWAP2 SWAP1 PUSH2 0x1E3 JUMP JUMPDEST PUSH2 0xD3 JUMP JUMPDEST STOP JUMPDEST CALLVALUE DUP1 ISZERO PUSH2 0x9F JUMPI PUSH1 0x0 DUP1 REVERT JUMPDEST POP PUSH2 0xBA PUSH1 0x4 DUP1 CALLDATASIZE SUB DUP2 ADD SWAP1 PUSH2 0xB5 SWAP2 SWAP1 PUSH2 0x1A2 JUMP JUMPDEST PUSH2 0xD7 JUMP JUMPDEST PUSH1 0x40 MLOAD PUSH2 0xC7 SWAP2 SWAP1 PUSH2 0x270 JUMP JUMPDEST PUSH1 0x40 MLOAD DUP1 SWAP2 SUB SWAP1 RETURN JUMPDEST POP JUMP JUMPDEST POP POP JUMP JUMPDEST PUSH1 0x60 PUSH1 0x0 DUP3 SWAP1 POP DUP1 SWAP2 POP POP SWAP2 SWAP1 POP JUMP JUMPDEST PUSH1 0x0 PUSH2 0xFA PUSH2 0xF5 DUP5 PUSH2 0x2C3 JUMP JUMPDEST PUSH2 0x292 JUMP JUMPDEST SWAP1 POP DUP3 DUP2 MSTORE PUSH1 0x20 DUP2 ADD DUP5 DUP5 DUP5 ADD GT ISZERO PUSH2 0x112 JUMPI PUSH1 0x0 DUP1 REVERT JUMPDEST PUSH2 0x11D DUP5 DUP3 DUP6 PUSH2 0x34B JUMP JUMPDEST POP SWAP4 SWAP3 POP POP POP JUMP JUMPDEST PUSH1 0x0 DUP2 CALLDATALOAD SWAP1 POP PUSH2 0x134 DUP2 PUSH2 0x3CD JUMP JUMPDEST SWAP3 SWAP2 POP POP JUMP JUMPDEST PUSH1 0x0 DUP3 PUSH1 0x1F DUP4 ADD SLT PUSH2 0x14B JUMPI PUSH1 0x0 DUP1 REVERT JUMPDEST DUP2 CALLDATALOAD PUSH2 0x15B DUP5 DUP3 PUSH1 0x20 DUP7 ADD PUSH2 0xE7 JUMP JUMPDEST SWAP2 POP POP SWAP3 SWAP2 POP POP JUMP JUMPDEST PUSH1 0x0 DUP2 CALLDATALOAD SWAP1 POP PUSH2 0x173 DUP2 PUSH2 0x3E4 JUMP JUMPDEST SWAP3 SWAP2 POP POP JUMP JUMPDEST PUSH1 0x0 PUSH1 0x20 DUP3 DUP5 SUB SLT ISZERO PUSH2 0x18B JUMPI PUSH1 0x0 DUP1 REVERT JUMPDEST PUSH1 0x0 PUSH2 0x199 DUP5 DUP3 DUP6 ADD PUSH2 0x125 JUMP JUMPDEST SWAP2 POP POP SWAP3 SWAP2 POP POP JUMP JUMPDEST PUSH1 0x0 PUSH1 0x20 DUP3 DUP5 SUB SLT ISZERO PUSH2 0x1B4 JUMPI PUSH1 0x0 DUP1 REVERT JUMPDEST PUSH1 0x0 DUP3 ADD CALLDATALOAD PUSH8 0xFFFFFFFFFFFFFFFF DUP2 GT ISZERO PUSH2 0x1CE JUMPI PUSH1 0x0 DUP1 REVERT JUMPDEST PUSH2 0x1DA DUP5 DUP3 DUP6 ADD PUSH2 0x13A JUMP JUMPDEST SWAP2 POP POP SWAP3 SWAP2 POP POP JUMP JUMPDEST PUSH1 0x0 DUP1 PUSH1 0x40 DUP4 DUP6 SUB SLT ISZERO PUSH2 0x1F6 JUMPI PUSH1 0x0 DUP1 REVERT JUMPDEST PUSH1 0x0 PUSH2 0x204 DUP6 DUP3 DUP7 ADD PUSH2 0x164 JUMP JUMPDEST SWAP3 POP POP PUSH1 0x20 DUP4 ADD CALLDATALOAD PUSH8 0xFFFFFFFFFFFFFFFF DUP2 GT ISZERO PUSH2 0x221 JUMPI PUSH1 0x0 DUP1 REVERT JUMPDEST PUSH2 0x22D DUP6 DUP3 DUP7 ADD PUSH2 0x13A JUMP JUMPDEST SWAP2 POP POP SWAP3 POP SWAP3 SWAP1 POP JUMP JUMPDEST PUSH1 0x0 PUSH2 0x242 DUP3 PUSH2 0x2F3 JUMP JUMPDEST PUSH2 0x24C DUP2 DUP6 PUSH2 0x2FE JUMP JUMPDEST SWAP4 POP PUSH2 0x25C DUP2 DUP6 PUSH1 0x20 DUP7 ADD PUSH2 0x35A JUMP JUMPDEST PUSH2 0x265 DUP2 PUSH2 0x3BC JUMP JUMPDEST DUP5 ADD SWAP2 POP POP SWAP3 SWAP2 POP POP JUMP JUMPDEST PUSH1 0x0 PUSH1 0x20 DUP3 ADD SWAP1 POP DUP2 DUP2 SUB PUSH1 0x0 DUP4 ADD MSTORE PUSH2 0x28A DUP2 DUP5 PUSH2 0x237 JUMP JUMPDEST SWAP1 POP SWAP3 SWAP2 POP POP JUMP JUMPDEST PUSH1 0x0 PUSH1 0x40 MLOAD SWAP1 POP DUP2 DUP2 ADD DUP2 DUP2 LT PUSH8 0xFFFFFFFFFFFFFFFF DUP3 GT OR ISZERO PUSH2 0x2B9 JUMPI PUSH2 0x2B8 PUSH2 0x38D JUMP JUMPDEST JUMPDEST DUP1 PUSH1 0x40 MSTORE POP SWAP2 SWAP1 POP JUMP JUMPDEST PUSH1 0x0 PUSH8 0xFFFFFFFFFFFFFFFF DUP3 GT ISZERO PUSH2 0x2DE JUMPI PUSH2 0x2DD PUSH2 0x38D JUMP JUMPDEST JUMPDEST PUSH1 0x1F NOT PUSH1 0x1F DUP4 ADD AND SWAP1 POP PUSH1 0x20 DUP2 ADD SWAP1 POP SWAP2 SWAP1 POP JUMP JUMPDEST PUSH1 0x0 DUP2 MLOAD SWAP1 POP SWAP2 SWAP1 POP JUMP JUMPDEST PUSH1 0x0 DUP3 DUP3 MSTORE PUSH1 0x20 DUP3 ADD SWAP1 POP SWAP3 SWAP2 POP POP JUMP JUMPDEST PUSH1 0x0 PUSH2 0x31A DUP3 PUSH2 0x321 JUMP JUMPDEST SWAP1 POP SWAP2 SWAP1 POP JUMP JUMPDEST PUSH1 0x0 PUSH20 0xFFFFFFFFFFFFFFFFFFFFFFFFFFFFFFFFFFFFFFFF DUP3 AND SWAP1 POP SWAP2 SWAP1 POP JUMP JUMPDEST PUSH1 0x0 DUP2 SWAP1 POP SWAP2 SWAP1 POP JUMP JUMPDEST DUP3 DUP2 DUP4 CALLDATACOPY PUSH1 0x0 DUP4 DUP4 ADD MSTORE POP POP POP JUMP JUMPDEST PUSH1 0x0 JUMPDEST DUP4 DUP2 LT ISZERO PUSH2 0x378 JUMPI DUP1 DUP3 ADD MLOAD DUP2 DUP5 ADD MSTORE PUSH1 0x20 DUP2 ADD SWAP1 POP PUSH2 0x35D JUMP JUMPDEST DUP4 DUP2 GT ISZERO PUSH2 0x387 JUMPI PUSH1 0x0 DUP5 DUP5 ADD MSTORE JUMPDEST POP POP POP POP JUMP JUMPDEST PUSH32 0x4E487B7100000000000000000000000000000000000000000000000000000000 PUSH1 0x0 MSTORE PUSH1 0x41 PUSH1 0x4 MSTORE PUSH1 0x24 PUSH1 0x0 REVERT JUMPDEST PUSH1 0x0 PUSH1 0x1F NOT PUSH1 0x1F DUP4 ADD AND SWAP1 POP SWAP2 SWAP1 POP JUMP JUMPDEST PUSH2 0x3D6 DUP2 PUSH2 0x30F JUMP JUMPDEST DUP2 EQ PUSH2 0x3E1 JUMPI PUSH1 0x0 DUP1 REVERT JUMPDEST POP JUMP JUMPDEST PUSH2 0x3ED DUP2 PUSH2 0x341 JUMP JUMPDEST DUP2 EQ PUSH2 0x3F8 JUMPI PUSH1 0x0 DUP1 REVERT JUMPDEST POP JUMP INVALID LOG2 PUSH5 0x6970667358 0x22 SLT KECCAK256 0xD0 0xC9 0xC5 0xE6 MLOAD 0x5D CALL PUSH5 0x8CA2A1DCB6 SHL 0xD8 DUP16 0x5D 0xB4 0xB3 DUP7 DUP15 DUP3 0xDA 0x5D SSTORE PUSH29 0x7F404CFD919164736F6C63430008000033000000000000000000000000 "
		},
		"gasEstimates": {
			"creation": {
				"codeDepositCost": "214600",
				"executionCost": "5263",
				"totalCost": "219863"
			},
			"external": {
				"": "129",
				"appealforFund(uint256,string)": "infinite",
				"getstatus(address)": "433",
				"string_tobytes(string)": "infinite"
			}
		},
		"methodIdentifiers": {
			"appealforFund(uint256,string)": "836bb10f",
			"getstatus(address)": "3a3d0788",
			"string_tobytes(string)": "bc6d0577"
		}
	},
	"abi": [
		{
			"anonymous": false,
			"inputs": [
				{
					"components": [
						{
							"internalType": "address",
							"name": "ad",
							"type": "address"
						},
						{
							"internalType": "uint256",
							"name": "amount",
							"type": "uint256"
						},
						{
							"internalType": "uint8",
							"name": "positive_votes",
							"type": "uint8"
						},
						{
							"internalType": "uint8",
							"name": "negative_votes",
							"type": "uint8"
						},
						{
							"internalType": "bytes",
							"name": "purpose",
							"type": "bytes"
						},
						{
							"internalType": "enum Treasury.Status",
							"name": "status",
							"type": "uint8"
						}
					],
					"indexed": false,
					"internalType": "struct Treasury.Appeal",
					"name": "_appeal",
					"type": "tuple"
				}
			],
			"name": "AppealforFund",
			"type": "event"
		},
		{
			"stateMutability": "payable",
			"type": "fallback"
		},
		{
			"inputs": [
				{
					"internalType": "uint256",
					"name": "_amount",
					"type": "uint256"
				},
				{
					"internalType": "string",
					"name": "_purpose",
					"type": "string"
				}
			],
			"name": "appealforFund",
			"outputs": [],
			"stateMutability": "nonpayable",
			"type": "function"
		},
		{
			"inputs": [
				{
					"internalType": "address",
					"name": "applier",
					"type": "address"
				}
			],
			"name": "getstatus",
			"outputs": [],
			"stateMutability": "view",
			"type": "function"
		},
		{
			"inputs": [
				{
					"internalType": "string",
					"name": "_purpose",
					"type": "string"
				}
			],
			"name": "string_tobytes",
			"outputs": [
				{
					"internalType": "bytes",
					"name": "",
					"type": "bytes"
				}
			],
			"stateMutability": "pure",
			"type": "function"
		},
		{
			"stateMutability": "payable",
			"type": "receive"
		}
	]
}